{
  "_format": "hh-sol-artifact-1",
  "contractName": "NFT",
  "sourceName": "contracts/NFT.sol",
  "abi": [
    {
      "inputs": [
        {
          "internalType": "string",
          "name": "_name",
          "type": "string"
        },
        {
          "internalType": "string",
          "name": "_symbol",
          "type": "string"
        },
        {
          "internalType": "address",
          "name": "_owner",
          "type": "address"
        }
      ],
      "stateMutability": "nonpayable",
      "type": "constructor"
    },
    {
      "anonymous": false,
      "inputs": [
        {
          "indexed": true,
          "internalType": "address",
          "name": "owner",
          "type": "address"
        },
        {
          "indexed": true,
          "internalType": "address",
          "name": "approved",
          "type": "address"
        },
        {
          "indexed": true,
          "internalType": "uint256",
          "name": "tokenId",
          "type": "uint256"
        }
      ],
      "name": "Approval",
      "type": "event"
    },
    {
      "anonymous": false,
      "inputs": [
        {
          "indexed": true,
          "internalType": "address",
          "name": "owner",
          "type": "address"
        },
        {
          "indexed": true,
          "internalType": "address",
          "name": "operator",
          "type": "address"
        },
        {
          "indexed": false,
          "internalType": "bool",
          "name": "approved",
          "type": "bool"
        }
      ],
      "name": "ApprovalForAll",
      "type": "event"
    },
    {
      "anonymous": false,
      "inputs": [
        {
          "indexed": true,
          "internalType": "address",
          "name": "previousOwner",
          "type": "address"
        },
        {
          "indexed": true,
          "internalType": "address",
          "name": "newOwner",
          "type": "address"
        }
      ],
      "name": "OwnershipTransferred",
      "type": "event"
    },
    {
      "anonymous": false,
      "inputs": [
        {
          "indexed": true,
          "internalType": "address",
          "name": "from",
          "type": "address"
        },
        {
          "indexed": true,
          "internalType": "address",
          "name": "to",
          "type": "address"
        },
        {
          "indexed": true,
          "internalType": "uint256",
          "name": "tokenId",
          "type": "uint256"
        }
      ],
      "name": "SimulatedTransfer",
      "type": "event"
    },
    {
      "anonymous": false,
      "inputs": [
        {
          "indexed": true,
          "internalType": "address",
          "name": "from",
          "type": "address"
        },
        {
          "indexed": true,
          "internalType": "address",
          "name": "to",
          "type": "address"
        },
        {
          "indexed": true,
          "internalType": "uint256",
          "name": "tokenId",
          "type": "uint256"
        }
      ],
      "name": "Transfer",
      "type": "event"
    },
    {
      "inputs": [
        {
          "internalType": "address",
          "name": "minter",
          "type": "address"
        }
      ],
      "name": "addMinter",
      "outputs": [],
      "stateMutability": "nonpayable",
      "type": "function"
    },
    {
      "inputs": [
        {
          "internalType": "address",
          "name": "to",
          "type": "address"
        },
        {
          "internalType": "uint256",
          "name": "tokenId",
          "type": "uint256"
        }
      ],
      "name": "approve",
      "outputs": [],
      "stateMutability": "nonpayable",
      "type": "function"
    },
    {
      "inputs": [
        {
          "internalType": "address",
          "name": "owner",
          "type": "address"
        }
      ],
      "name": "balanceOf",
      "outputs": [
        {
          "internalType": "uint256",
          "name": "",
          "type": "uint256"
        }
      ],
      "stateMutability": "view",
      "type": "function"
    },
    {
      "inputs": [],
      "name": "currentSupply",
      "outputs": [
        {
          "internalType": "uint256",
          "name": "",
          "type": "uint256"
        }
      ],
      "stateMutability": "view",
      "type": "function"
    },
    {
      "inputs": [
        {
          "internalType": "uint256",
          "name": "tokenId",
          "type": "uint256"
        }
      ],
      "name": "getApproved",
      "outputs": [
        {
          "internalType": "address",
          "name": "",
          "type": "address"
        }
      ],
      "stateMutability": "view",
      "type": "function"
    },
    {
      "inputs": [
        {
          "internalType": "address",
          "name": "_owner",
          "type": "address"
        },
        {
          "internalType": "address",
          "name": "_operator",
          "type": "address"
        }
      ],
      "name": "isApprovedForAll",
      "outputs": [
        {
          "internalType": "bool",
          "name": "isOperator",
          "type": "bool"
        }
      ],
      "stateMutability": "view",
      "type": "function"
    },
    {
      "inputs": [
        {
          "internalType": "string",
          "name": "_tokenURI",
          "type": "string"
        },
        {
          "internalType": "address",
          "name": "artist",
          "type": "address"
        }
      ],
      "name": "mint",
      "outputs": [],
      "stateMutability": "nonpayable",
      "type": "function"
    },
    {
      "inputs": [
        {
          "internalType": "address",
          "name": "",
          "type": "address"
        }
      ],
      "name": "minters",
      "outputs": [
        {
          "internalType": "bool",
          "name": "",
          "type": "bool"
        }
      ],
      "stateMutability": "view",
      "type": "function"
    },
    {
      "inputs": [],
      "name": "name",
      "outputs": [
        {
          "internalType": "string",
          "name": "",
          "type": "string"
        }
      ],
      "stateMutability": "view",
      "type": "function"
    },
    {
      "inputs": [],
      "name": "owner",
      "outputs": [
        {
          "internalType": "address",
          "name": "",
          "type": "address"
        }
      ],
      "stateMutability": "view",
      "type": "function"
    },
    {
      "inputs": [
        {
          "internalType": "uint256",
          "name": "tokenId",
          "type": "uint256"
        }
      ],
      "name": "ownerOf",
      "outputs": [
        {
          "internalType": "address",
          "name": "",
          "type": "address"
        }
      ],
      "stateMutability": "view",
      "type": "function"
    },
    {
      "inputs": [
        {
          "internalType": "address",
          "name": "minter",
          "type": "address"
        }
      ],
      "name": "removeMinter",
      "outputs": [],
      "stateMutability": "nonpayable",
      "type": "function"
    },
    {
      "inputs": [],
      "name": "renounceOwnership",
      "outputs": [],
      "stateMutability": "nonpayable",
      "type": "function"
    },
    {
      "inputs": [
        {
          "internalType": "address",
          "name": "from",
          "type": "address"
        },
        {
          "internalType": "address",
          "name": "to",
          "type": "address"
        },
        {
          "internalType": "uint256",
          "name": "tokenId",
          "type": "uint256"
        }
      ],
      "name": "safeTransferFrom",
      "outputs": [],
      "stateMutability": "nonpayable",
      "type": "function"
    },
    {
      "inputs": [
        {
          "internalType": "address",
          "name": "from",
          "type": "address"
        },
        {
          "internalType": "address",
          "name": "to",
          "type": "address"
        },
        {
          "internalType": "uint256",
          "name": "tokenId",
          "type": "uint256"
        },
        {
          "internalType": "bytes",
          "name": "_data",
          "type": "bytes"
        }
      ],
      "name": "safeTransferFrom",
      "outputs": [],
      "stateMutability": "nonpayable",
      "type": "function"
    },
    {
      "inputs": [
        {
          "internalType": "address",
          "name": "operator",
          "type": "address"
        },
        {
          "internalType": "bool",
          "name": "approved",
          "type": "bool"
        }
      ],
      "name": "setApprovalForAll",
      "outputs": [],
      "stateMutability": "nonpayable",
      "type": "function"
    },
    {
      "inputs": [
        {
          "internalType": "bytes4",
          "name": "interfaceId",
          "type": "bytes4"
        }
      ],
      "name": "supportsInterface",
      "outputs": [
        {
          "internalType": "bool",
          "name": "",
          "type": "bool"
        }
      ],
      "stateMutability": "view",
      "type": "function"
    },
    {
      "inputs": [],
      "name": "symbol",
      "outputs": [
        {
          "internalType": "string",
          "name": "",
          "type": "string"
        }
      ],
      "stateMutability": "view",
      "type": "function"
    },
    {
      "inputs": [
        {
          "internalType": "uint256",
          "name": "tokenId",
          "type": "uint256"
        }
      ],
      "name": "tokenURI",
      "outputs": [
        {
          "internalType": "string",
          "name": "",
          "type": "string"
        }
      ],
      "stateMutability": "view",
      "type": "function"
    },
    {
      "inputs": [],
      "name": "totalSupply",
      "outputs": [
        {
          "internalType": "uint256",
          "name": "",
          "type": "uint256"
        }
      ],
      "stateMutability": "view",
      "type": "function"
    },
    {
      "inputs": [
        {
          "internalType": "address",
          "name": "from",
          "type": "address"
        },
        {
          "internalType": "address",
          "name": "to",
          "type": "address"
        },
        {
          "internalType": "uint256",
          "name": "tokenId",
          "type": "uint256"
        }
      ],
      "name": "transferFrom",
      "outputs": [],
      "stateMutability": "nonpayable",
      "type": "function"
    },
    {
      "inputs": [
        {
          "internalType": "address",
          "name": "newOwner",
          "type": "address"
        }
      ],
      "name": "transferOwnership",
      "outputs": [],
      "stateMutability": "nonpayable",
      "type": "function"
    }
  ],
  "bytecode": "0x60806040523480156200001157600080fd5b5060405162001eb538038062001eb583398101604081905262000034916200026a565b80838381600090805190602001906200004f929190620000f7565b50805162000065906001906020840190620000f7565b5050506200007981620000a560201b60201c565b505060016008819055336000908152600960205260409020805460ff1916909117905550620003349050565b600780546001600160a01b038381166001600160a01b0319831681179093556040519116919082907f8be0079c531659141344cd1fd0a4f28419497f9722a3daafe3b4186f6b6457e090600090a35050565b8280546200010590620002f7565b90600052602060002090601f01602090048101928262000129576000855562000174565b82601f106200014457805160ff191683800117855562000174565b8280016001018555821562000174579182015b828111156200017457825182559160200191906001019062000157565b506200018292915062000186565b5090565b5b8082111562000182576000815560010162000187565b634e487b7160e01b600052604160045260246000fd5b600082601f830112620001c557600080fd5b81516001600160401b0380821115620001e257620001e26200019d565b604051601f8301601f19908116603f011681019082821181831017156200020d576200020d6200019d565b816040528381526020925086838588010111156200022a57600080fd5b600091505b838210156200024e57858201830151818301840152908201906200022f565b83821115620002605760008385830101525b9695505050505050565b6000806000606084860312156200028057600080fd5b83516001600160401b03808211156200029857600080fd5b620002a687838801620001b3565b94506020860151915080821115620002bd57600080fd5b50620002cc86828701620001b3565b604086015190935090506001600160a01b0381168114620002ec57600080fd5b809150509250925092565b600181811c908216806200030c57607f821691505b602082108114156200032e57634e487b7160e01b600052602260045260246000fd5b50919050565b611b7180620003446000396000f3fe608060405234801561001057600080fd5b50600436106101425760003560e01c8063715018a6116100b8578063a22cb4651161007c578063a22cb46514610289578063b88d4fde1461029c578063c87b56dd146102af578063e985e9c5146102c2578063f2fde38b146102d5578063f46eccc4146102e857600080fd5b8063715018a61461024c578063771282f6146102545780638da5cb5b1461025d57806395d89b411461026e578063983b2d561461027657600080fd5b80631c351a9d1161010a5780631c351a9d146101da57806323b872dd146101ed5780633092afd51461020057806342842e0e146102135780636352211e1461022657806370a082311461023957600080fd5b806301ffc9a71461014757806306fdde031461016f578063081812fc14610184578063095ea7b3146101af57806318160ddd146101c4575b600080fd5b61015a6101553660046115c1565b61030b565b60405190151581526020015b60405180910390f35b61017761035d565b6040516101669190611636565b610197610192366004611649565b6103ef565b6040516001600160a01b039091168152602001610166565b6101c26101bd36600461167e565b61047c565b005b6101cc610592565b604051908152602001610166565b6101c26101e8366004611734565b6105a8565b6101c26101fb366004611796565b6106e0565b6101c261020e3660046117d2565b610711565b6101c2610221366004611796565b61075c565b610197610234366004611649565b610777565b6101cc6102473660046117d2565b6107ee565b6101c2610875565b6101cc60085481565b6007546001600160a01b0316610197565b6101776108ab565b6101c26102843660046117d2565b6108ba565b6101c26102973660046117ed565b610908565b6101c26102aa366004611829565b610913565b6101776102bd366004611649565b61094b565b61015a6102d03660046118a5565b610ac2565b6101c26102e33660046117d2565b610b49565b61015a6102f63660046117d2565b60096020526000908152604090205460ff1681565b60006001600160e01b031982166380ac58cd60e01b148061033c57506001600160e01b03198216635b5e139f60e01b145b8061035757506301ffc9a760e01b6001600160e01b03198316145b92915050565b60606000805461036c906118cf565b80601f0160208091040260200160405190810160405280929190818152602001828054610398906118cf565b80156103e55780601f106103ba576101008083540402835291602001916103e5565b820191906000526020600020905b8154815290600101906020018083116103c857829003601f168201915b5050505050905090565b60006103fa82610be4565b6104605760405162461bcd60e51b815260206004820152602c60248201527f4552433732313a20617070726f76656420717565727920666f72206e6f6e657860448201526b34b9ba32b73a103a37b5b2b760a11b60648201526084015b60405180910390fd5b506000908152600460205260409020546001600160a01b031690565b600061048782610777565b9050806001600160a01b0316836001600160a01b031614156104f55760405162461bcd60e51b815260206004820152602160248201527f4552433732313a20617070726f76616c20746f2063757272656e74206f776e656044820152603960f91b6064820152608401610457565b336001600160a01b038216148061051157506105118133610ac2565b6105835760405162461bcd60e51b815260206004820152603860248201527f4552433732313a20617070726f76652063616c6c6572206973206e6f74206f7760448201527f6e6572206e6f7220617070726f76656420666f7220616c6c00000000000000006064820152608401610457565b61058d8383610c01565b505050565b600060016008546105a39190611920565b905090565b3360009081526009602052604090205460ff161515600114806105d557506007546001600160a01b031633145b61060f5760405162461bcd60e51b815260206004820152600b60248201526a139bdd08185b1b1bddd95960aa1b6044820152606401610457565b600a8260405161061f9190611937565b90815260200160405180910390205460001461068d57600a826040516106459190611937565b90815260405190819003602001812054906001600160a01b0383169081907ff9492de4663ad3ea04e979f77c3750740def7774be5fd55505b940633dd3d9b190600090a45050565b60085461069a8282610c6f565b6106a48184610c89565b80600a846040516106b59190611937565b90815260405190819003602001902055600880549060006106d583611953565b9190505550505b5050565b6106ea3382610d14565b6107065760405162461bcd60e51b81526004016104579061196e565b61058d838383610dd6565b6007546001600160a01b0316331461073b5760405162461bcd60e51b8152600401610457906119bf565b6001600160a01b03166000908152600960205260409020805460ff19169055565b61058d83838360405180602001604052806000815250610913565b6000818152600260205260408120546001600160a01b0316806103575760405162461bcd60e51b815260206004820152602960248201527f4552433732313a206f776e657220717565727920666f72206e6f6e657869737460448201526832b73a103a37b5b2b760b91b6064820152608401610457565b60006001600160a01b0382166108595760405162461bcd60e51b815260206004820152602a60248201527f4552433732313a2062616c616e636520717565727920666f7220746865207a65604482015269726f206164647265737360b01b6064820152608401610457565b506001600160a01b031660009081526003602052604090205490565b6007546001600160a01b0316331461089f5760405162461bcd60e51b8152600401610457906119bf565b6108a96000610f76565b565b60606001805461036c906118cf565b6007546001600160a01b031633146108e45760405162461bcd60e51b8152600401610457906119bf565b6001600160a01b03166000908152600960205260409020805460ff19166001179055565b6106dc338383610fc8565b61091d3383610d14565b6109395760405162461bcd60e51b81526004016104579061196e565b61094584848484611097565b50505050565b606061095682610be4565b6109bc5760405162461bcd60e51b815260206004820152603160248201527f45524337323155524953746f726167653a2055524920717565727920666f72206044820152703737b732bc34b9ba32b73a103a37b5b2b760791b6064820152608401610457565b600082815260066020526040812080546109d5906118cf565b80601f0160208091040260200160405190810160405280929190818152602001828054610a01906118cf565b8015610a4e5780601f10610a2357610100808354040283529160200191610a4e565b820191906000526020600020905b815481529060010190602001808311610a3157829003601f168201915b505050505090506000610a6c60408051602081019091526000815290565b9050805160001415610a7f575092915050565b815115610ab1578082604051602001610a999291906119f4565b60405160208183030381529060405292505050919050565b610aba846110ca565b949350505050565b60006001600160a01b03821673d47e14dd9b98411754f722b4c4074e14752ada7c1480610b0b57506001600160a01b0382167358807bad0b376efc12f5ad86aac70e78ed67deae145b15610b1857506001610357565b6001600160a01b0380841660009081526005602090815260408083209386168352929052205460ff165b9392505050565b6007546001600160a01b03163314610b735760405162461bcd60e51b8152600401610457906119bf565b6001600160a01b038116610bd85760405162461bcd60e51b815260206004820152602660248201527f4f776e61626c653a206e6577206f776e657220697320746865207a65726f206160448201526564647265737360d01b6064820152608401610457565b610be181610f76565b50565b6000908152600260205260409020546001600160a01b0316151590565b600081815260046020526040902080546001600160a01b0319166001600160a01b0384169081179091558190610c3682610777565b6001600160a01b03167f8c5be1e5ebec7d5bd14f71427d1e84f3dd0314c0f7b2291e5b200ac8c7c3b92560405160405180910390a45050565b6106dc8282604051806020016040528060008152506111a1565b610c9282610be4565b610cf55760405162461bcd60e51b815260206004820152602e60248201527f45524337323155524953746f726167653a2055524920736574206f66206e6f6e60448201526d32bc34b9ba32b73a103a37b5b2b760911b6064820152608401610457565b6000828152600660209081526040909120825161058d92840190611512565b6000610d1f82610be4565b610d805760405162461bcd60e51b815260206004820152602c60248201527f4552433732313a206f70657261746f7220717565727920666f72206e6f6e657860448201526b34b9ba32b73a103a37b5b2b760a11b6064820152608401610457565b6000610d8b83610777565b9050806001600160a01b0316846001600160a01b03161480610dc65750836001600160a01b0316610dbb846103ef565b6001600160a01b0316145b80610aba5750610aba8185610ac2565b826001600160a01b0316610de982610777565b6001600160a01b031614610e515760405162461bcd60e51b815260206004820152602960248201527f4552433732313a207472616e73666572206f6620746f6b656e2074686174206960448201526839903737ba1037bbb760b91b6064820152608401610457565b6001600160a01b038216610eb35760405162461bcd60e51b8152602060048201526024808201527f4552433732313a207472616e7366657220746f20746865207a65726f206164646044820152637265737360e01b6064820152608401610457565b610ebe600082610c01565b6001600160a01b0383166000908152600360205260408120805460019290610ee7908490611920565b90915550506001600160a01b0382166000908152600360205260408120805460019290610f15908490611a23565b909155505060008181526002602052604080822080546001600160a01b0319166001600160a01b0386811691821790925591518493918716917fddf252ad1be2c89b69c2b068fc378daa952ba7f163c4a11628f55a4df523b3ef91a4505050565b600780546001600160a01b038381166001600160a01b0319831681179093556040519116919082907f8be0079c531659141344cd1fd0a4f28419497f9722a3daafe3b4186f6b6457e090600090a35050565b816001600160a01b0316836001600160a01b0316141561102a5760405162461bcd60e51b815260206004820152601960248201527f4552433732313a20617070726f766520746f2063616c6c6572000000000000006044820152606401610457565b6001600160a01b03838116600081815260056020908152604080832094871680845294825291829020805460ff191686151590811790915591519182527f17307eab39ab6107e8899845ad3d59bd9653f200f220920489ca2b5937696c31910160405180910390a3505050565b6110a2848484610dd6565b6110ae848484846111d4565b6109455760405162461bcd60e51b815260040161045790611a3b565b60606110d582610be4565b6111395760405162461bcd60e51b815260206004820152602f60248201527f4552433732314d657461646174613a2055524920717565727920666f72206e6f60448201526e3732bc34b9ba32b73a103a37b5b2b760891b6064820152608401610457565b600061115060408051602081019091526000815290565b905060008151116111705760405180602001604052806000815250610b42565b8061117a846112e1565b60405160200161118b9291906119f4565b6040516020818303038152906040529392505050565b6111ab83836113df565b6111b860008484846111d4565b61058d5760405162461bcd60e51b815260040161045790611a3b565b60006001600160a01b0384163b156112d657604051630a85bd0160e11b81526001600160a01b0385169063150b7a0290611218903390899088908890600401611a8d565b602060405180830381600087803b15801561123257600080fd5b505af1925050508015611262575060408051601f3d908101601f1916820190925261125f91810190611aca565b60015b6112bc573d808015611290576040519150601f19603f3d011682016040523d82523d6000602084013e611295565b606091505b5080516112b45760405162461bcd60e51b815260040161045790611a3b565b805181602001fd5b6001600160e01b031916630a85bd0160e11b149050610aba565b506001949350505050565b6060816113055750506040805180820190915260018152600360fc1b602082015290565b8160005b811561132f578061131981611953565b91506113289050600a83611afd565b9150611309565b60008167ffffffffffffffff81111561134a5761134a6116a8565b6040519080825280601f01601f191660200182016040528015611374576020820181803683370190505b5090505b8415610aba57611389600183611920565b9150611396600a86611b11565b6113a1906030611a23565b60f81b8183815181106113b6576113b6611b25565b60200101906001600160f81b031916908160001a9053506113d8600a86611afd565b9450611378565b6001600160a01b0382166114355760405162461bcd60e51b815260206004820181905260248201527f4552433732313a206d696e7420746f20746865207a65726f20616464726573736044820152606401610457565b61143e81610be4565b1561148b5760405162461bcd60e51b815260206004820152601c60248201527f4552433732313a20746f6b656e20616c7265616479206d696e746564000000006044820152606401610457565b6001600160a01b03821660009081526003602052604081208054600192906114b4908490611a23565b909155505060008181526002602052604080822080546001600160a01b0319166001600160a01b03861690811790915590518392907fddf252ad1be2c89b69c2b068fc378daa952ba7f163c4a11628f55a4df523b3ef908290a45050565b82805461151e906118cf565b90600052602060002090601f0160209004810192826115405760008555611586565b82601f1061155957805160ff1916838001178555611586565b82800160010185558215611586579182015b8281111561158657825182559160200191906001019061156b565b50611592929150611596565b5090565b5b808211156115925760008155600101611597565b6001600160e01b031981168114610be157600080fd5b6000602082840312156115d357600080fd5b8135610b42816115ab565b60005b838110156115f95781810151838201526020016115e1565b838111156109455750506000910152565b600081518084526116228160208601602086016115de565b601f01601f19169290920160200192915050565b602081526000610b42602083018461160a565b60006020828403121561165b57600080fd5b5035919050565b80356001600160a01b038116811461167957600080fd5b919050565b6000806040838503121561169157600080fd5b61169a83611662565b946020939093013593505050565b634e487b7160e01b600052604160045260246000fd5b600067ffffffffffffffff808411156116d9576116d96116a8565b604051601f8501601f19908116603f01168101908282118183101715611701576117016116a8565b8160405280935085815286868601111561171a57600080fd5b858560208301376000602087830101525050509392505050565b6000806040838503121561174757600080fd5b823567ffffffffffffffff81111561175e57600080fd5b8301601f8101851361176f57600080fd5b61177e858235602084016116be565b92505061178d60208401611662565b90509250929050565b6000806000606084860312156117ab57600080fd5b6117b484611662565b92506117c260208501611662565b9150604084013590509250925092565b6000602082840312156117e457600080fd5b610b4282611662565b6000806040838503121561180057600080fd5b61180983611662565b91506020830135801515811461181e57600080fd5b809150509250929050565b6000806000806080858703121561183f57600080fd5b61184885611662565b935061185660208601611662565b925060408501359150606085013567ffffffffffffffff81111561187957600080fd5b8501601f8101871361188a57600080fd5b611899878235602084016116be565b91505092959194509250565b600080604083850312156118b857600080fd5b6118c183611662565b915061178d60208401611662565b600181811c908216806118e357607f821691505b6020821081141561190457634e487b7160e01b600052602260045260246000fd5b50919050565b634e487b7160e01b600052601160045260246000fd5b6000828210156119325761193261190a565b500390565b600082516119498184602087016115de565b9190910192915050565b60006000198214156119675761196761190a565b5060010190565b60208082526031908201527f4552433732313a207472616e736665722063616c6c6572206973206e6f74206f6040820152701ddb995c881b9bdc88185c1c1c9bdd9959607a1b606082015260800190565b6020808252818101527f4f776e61626c653a2063616c6c6572206973206e6f7420746865206f776e6572604082015260600190565b60008351611a068184602088016115de565b835190830190611a1a8183602088016115de565b01949350505050565b60008219821115611a3657611a3661190a565b500190565b60208082526032908201527f4552433732313a207472616e7366657220746f206e6f6e20455243373231526560408201527131b2b4bb32b91034b6b83632b6b2b73a32b960711b606082015260800190565b6001600160a01b0385811682528416602082015260408101839052608060608201819052600090611ac09083018461160a565b9695505050505050565b600060208284031215611adc57600080fd5b8151610b42816115ab565b634e487b7160e01b600052601260045260246000fd5b600082611b0c57611b0c611ae7565b500490565b600082611b2057611b20611ae7565b500690565b634e487b7160e01b600052603260045260246000fdfea2646970667358221220d5d87a8c11e281a5852f49d1d791f949454ba3af4923a8331292cee712dbfe3764736f6c63430008090033",
  "linkReferences": {},
  "deployedLinkReferences": {}
}