{
  "_format": "hh-sol-artifact-1",
  "contractName": "NFT",
  "sourceName": "contracts/NFT.sol",
  "abi": [
    {
      "inputs": [
        {
          "internalType": "string",
          "name": "_name",
          "type": "string"
        },
        {
          "internalType": "string",
          "name": "_symbol",
          "type": "string"
        }
      ],
      "stateMutability": "nonpayable",
      "type": "constructor"
    },
    {
      "anonymous": false,
      "inputs": [
        {
          "indexed": true,
          "internalType": "address",
          "name": "owner",
          "type": "address"
        },
        {
          "indexed": true,
          "internalType": "address",
          "name": "approved",
          "type": "address"
        },
        {
          "indexed": true,
          "internalType": "uint256",
          "name": "tokenId",
          "type": "uint256"
        }
      ],
      "name": "Approval",
      "type": "event"
    },
    {
      "anonymous": false,
      "inputs": [
        {
          "indexed": true,
          "internalType": "address",
          "name": "owner",
          "type": "address"
        },
        {
          "indexed": true,
          "internalType": "address",
          "name": "operator",
          "type": "address"
        },
        {
          "indexed": false,
          "internalType": "bool",
          "name": "approved",
          "type": "bool"
        }
      ],
      "name": "ApprovalForAll",
      "type": "event"
    },
    {
      "anonymous": false,
      "inputs": [
        {
          "indexed": true,
          "internalType": "address",
          "name": "previousOwner",
          "type": "address"
        },
        {
          "indexed": true,
          "internalType": "address",
          "name": "newOwner",
          "type": "address"
        }
      ],
      "name": "OwnershipTransferred",
      "type": "event"
    },
    {
      "anonymous": false,
      "inputs": [
        {
          "indexed": true,
          "internalType": "address",
          "name": "from",
          "type": "address"
        },
        {
          "indexed": true,
          "internalType": "address",
          "name": "to",
          "type": "address"
        },
        {
          "indexed": true,
          "internalType": "uint256",
          "name": "tokenId",
          "type": "uint256"
        }
      ],
      "name": "Transfer",
      "type": "event"
    },
    {
      "inputs": [
        {
          "internalType": "address",
          "name": "minter",
          "type": "address"
        }
      ],
      "name": "addMinter",
      "outputs": [],
      "stateMutability": "nonpayable",
      "type": "function"
    },
    {
      "inputs": [
        {
          "internalType": "address",
          "name": "to",
          "type": "address"
        },
        {
          "internalType": "uint256",
          "name": "tokenId",
          "type": "uint256"
        }
      ],
      "name": "approve",
      "outputs": [],
      "stateMutability": "nonpayable",
      "type": "function"
    },
    {
      "inputs": [
        {
          "internalType": "address",
          "name": "owner",
          "type": "address"
        }
      ],
      "name": "balanceOf",
      "outputs": [
        {
          "internalType": "uint256",
          "name": "",
          "type": "uint256"
        }
      ],
      "stateMutability": "view",
      "type": "function"
    },
    {
      "inputs": [],
      "name": "currentSupply",
      "outputs": [
        {
          "internalType": "uint256",
          "name": "",
          "type": "uint256"
        }
      ],
      "stateMutability": "view",
      "type": "function"
    },
    {
      "inputs": [
        {
          "internalType": "uint256",
          "name": "tokenId",
          "type": "uint256"
        }
      ],
      "name": "getApproved",
      "outputs": [
        {
          "internalType": "address",
          "name": "",
          "type": "address"
        }
      ],
      "stateMutability": "view",
      "type": "function"
    },
    {
      "inputs": [
        {
          "internalType": "address",
          "name": "owner",
          "type": "address"
        },
        {
          "internalType": "address",
          "name": "operator",
          "type": "address"
        }
      ],
      "name": "isApprovedForAll",
      "outputs": [
        {
          "internalType": "bool",
          "name": "",
          "type": "bool"
        }
      ],
      "stateMutability": "view",
      "type": "function"
    },
    {
      "inputs": [
        {
          "internalType": "string",
          "name": "_tokenURI",
          "type": "string"
        },
        {
          "internalType": "address",
          "name": "artist",
          "type": "address"
        }
      ],
      "name": "mint",
      "outputs": [],
      "stateMutability": "nonpayable",
      "type": "function"
    },
    {
      "inputs": [
        {
          "internalType": "address",
          "name": "",
          "type": "address"
        }
      ],
      "name": "minters",
      "outputs": [
        {
          "internalType": "bool",
          "name": "",
          "type": "bool"
        }
      ],
      "stateMutability": "view",
      "type": "function"
    },
    {
      "inputs": [],
      "name": "name",
      "outputs": [
        {
          "internalType": "string",
          "name": "",
          "type": "string"
        }
      ],
      "stateMutability": "view",
      "type": "function"
    },
    {
      "inputs": [],
      "name": "owner",
      "outputs": [
        {
          "internalType": "address",
          "name": "",
          "type": "address"
        }
      ],
      "stateMutability": "view",
      "type": "function"
    },
    {
      "inputs": [
        {
          "internalType": "uint256",
          "name": "tokenId",
          "type": "uint256"
        }
      ],
      "name": "ownerOf",
      "outputs": [
        {
          "internalType": "address",
          "name": "",
          "type": "address"
        }
      ],
      "stateMutability": "view",
      "type": "function"
    },
    {
      "inputs": [
        {
          "internalType": "address",
          "name": "minter",
          "type": "address"
        }
      ],
      "name": "removeMinter",
      "outputs": [],
      "stateMutability": "nonpayable",
      "type": "function"
    },
    {
      "inputs": [],
      "name": "renounceOwnership",
      "outputs": [],
      "stateMutability": "nonpayable",
      "type": "function"
    },
    {
      "inputs": [
        {
          "internalType": "address",
          "name": "from",
          "type": "address"
        },
        {
          "internalType": "address",
          "name": "to",
          "type": "address"
        },
        {
          "internalType": "uint256",
          "name": "tokenId",
          "type": "uint256"
        }
      ],
      "name": "safeTransferFrom",
      "outputs": [],
      "stateMutability": "nonpayable",
      "type": "function"
    },
    {
      "inputs": [
        {
          "internalType": "address",
          "name": "from",
          "type": "address"
        },
        {
          "internalType": "address",
          "name": "to",
          "type": "address"
        },
        {
          "internalType": "uint256",
          "name": "tokenId",
          "type": "uint256"
        },
        {
          "internalType": "bytes",
          "name": "_data",
          "type": "bytes"
        }
      ],
      "name": "safeTransferFrom",
      "outputs": [],
      "stateMutability": "nonpayable",
      "type": "function"
    },
    {
      "inputs": [
        {
          "internalType": "address",
          "name": "operator",
          "type": "address"
        },
        {
          "internalType": "bool",
          "name": "approved",
          "type": "bool"
        }
      ],
      "name": "setApprovalForAll",
      "outputs": [],
      "stateMutability": "nonpayable",
      "type": "function"
    },
    {
      "inputs": [
        {
          "internalType": "bytes4",
          "name": "interfaceId",
          "type": "bytes4"
        }
      ],
      "name": "supportsInterface",
      "outputs": [
        {
          "internalType": "bool",
          "name": "",
          "type": "bool"
        }
      ],
      "stateMutability": "view",
      "type": "function"
    },
    {
      "inputs": [],
      "name": "symbol",
      "outputs": [
        {
          "internalType": "string",
          "name": "",
          "type": "string"
        }
      ],
      "stateMutability": "view",
      "type": "function"
    },
    {
      "inputs": [
        {
          "internalType": "uint256",
          "name": "tokenId",
          "type": "uint256"
        }
      ],
      "name": "tokenURI",
      "outputs": [
        {
          "internalType": "string",
          "name": "",
          "type": "string"
        }
      ],
      "stateMutability": "view",
      "type": "function"
    },
    {
      "inputs": [
        {
          "internalType": "address",
          "name": "from",
          "type": "address"
        },
        {
          "internalType": "address",
          "name": "to",
          "type": "address"
        },
        {
          "internalType": "uint256",
          "name": "tokenId",
          "type": "uint256"
        }
      ],
      "name": "transferFrom",
      "outputs": [],
      "stateMutability": "nonpayable",
      "type": "function"
    },
    {
      "inputs": [
        {
          "internalType": "address",
          "name": "newOwner",
          "type": "address"
        }
      ],
      "name": "transferOwnership",
      "outputs": [],
      "stateMutability": "nonpayable",
      "type": "function"
    }
  ],
  "bytecode": "0x60806040523480156200001157600080fd5b5060405162001db238038062001db283398101604081905262000034916200026f565b8151829082906200004d906000906020850190620000fc565b50805162000063906001906020840190620000fc565b505050620000806200007a620000a660201b60201c565b620000aa565b505060006008819055338152600960205260409020805460ff1916600117905562000316565b3390565b600780546001600160a01b038381166001600160a01b0319831681179093556040519116919082907f8be0079c531659141344cd1fd0a4f28419497f9722a3daafe3b4186f6b6457e090600090a35050565b8280546200010a90620002d9565b90600052602060002090601f0160209004810192826200012e576000855562000179565b82601f106200014957805160ff191683800117855562000179565b8280016001018555821562000179579182015b82811115620001795782518255916020019190600101906200015c565b50620001879291506200018b565b5090565b5b808211156200018757600081556001016200018c565b634e487b7160e01b600052604160045260246000fd5b600082601f830112620001ca57600080fd5b81516001600160401b0380821115620001e757620001e7620001a2565b604051601f8301601f19908116603f01168101908282118183101715620002125762000212620001a2565b816040528381526020925086838588010111156200022f57600080fd5b600091505b8382101562000253578582018301518183018401529082019062000234565b83821115620002655760008385830101525b9695505050505050565b600080604083850312156200028357600080fd5b82516001600160401b03808211156200029b57600080fd5b620002a986838701620001b8565b93506020850151915080821115620002c057600080fd5b50620002cf85828601620001b8565b9150509250929050565b600181811c90821680620002ee57607f821691505b602082108114156200031057634e487b7160e01b600052602260045260246000fd5b50919050565b611a8c80620003266000396000f3fe608060405234801561001057600080fd5b50600436106101375760003560e01c8063715018a6116100b8578063a22cb4651161007c578063a22cb46514610276578063b88d4fde14610289578063c87b56dd1461029c578063e985e9c5146102af578063f2fde38b146102eb578063f46eccc4146102fe57600080fd5b8063715018a614610239578063771282f6146102415780638da5cb5b1461024a57806395d89b411461025b578063983b2d561461026357600080fd5b806323b872dd116100ff57806323b872dd146101cc5780633092afd5146101df57806342842e0e146101f25780636352211e1461020557806370a082311461021857600080fd5b806301ffc9a71461013c57806306fdde0314610164578063081812fc14610179578063095ea7b3146101a45780631c351a9d146101b9575b600080fd5b61014f61014a3660046114f8565b610321565b60405190151581526020015b60405180910390f35b61016c610373565b60405161015b919061156d565b61018c610187366004611580565b610405565b6040516001600160a01b03909116815260200161015b565b6101b76101b23660046115b5565b610492565b005b6101b76101c736600461166b565b6105a8565b6101b76101da3660046116cd565b610675565b6101b76101ed366004611709565b6106a6565b6101b76102003660046116cd565b6106f1565b61018c610213366004611580565b61070c565b61022b610226366004611709565b610783565b60405190815260200161015b565b6101b761080a565b61022b60085481565b6007546001600160a01b031661018c565b61016c610840565b6101b7610271366004611709565b61084f565b6101b7610284366004611724565b61089d565b6101b7610297366004611760565b6108ac565b61016c6102aa366004611580565b6108e4565b61014f6102bd3660046117dc565b6001600160a01b03918216600090815260056020908152604080832093909416825291909152205460ff1690565b6101b76102f9366004611709565b610a5b565b61014f61030c366004611709565b60096020526000908152604090205460ff1681565b60006001600160e01b031982166380ac58cd60e01b148061035257506001600160e01b03198216635b5e139f60e01b145b8061036d57506301ffc9a760e01b6001600160e01b03198316145b92915050565b60606000805461038290611806565b80601f01602080910402602001604051908101604052809291908181526020018280546103ae90611806565b80156103fb5780601f106103d0576101008083540402835291602001916103fb565b820191906000526020600020905b8154815290600101906020018083116103de57829003601f168201915b5050505050905090565b600061041082610af6565b6104765760405162461bcd60e51b815260206004820152602c60248201527f4552433732313a20617070726f76656420717565727920666f72206e6f6e657860448201526b34b9ba32b73a103a37b5b2b760a11b60648201526084015b60405180910390fd5b506000908152600460205260409020546001600160a01b031690565b600061049d8261070c565b9050806001600160a01b0316836001600160a01b0316141561050b5760405162461bcd60e51b815260206004820152602160248201527f4552433732313a20617070726f76616c20746f2063757272656e74206f776e656044820152603960f91b606482015260840161046d565b336001600160a01b0382161480610527575061052781336102bd565b6105995760405162461bcd60e51b815260206004820152603860248201527f4552433732313a20617070726f76652063616c6c6572206973206e6f74206f7760448201527f6e6572206e6f7220617070726f76656420666f7220616c6c0000000000000000606482015260840161046d565b6105a38383610b13565b505050565b3360009081526009602052604090205460ff161515600114806105d557506007546001600160a01b031633145b61060f5760405162461bcd60e51b815260206004820152600b60248201526a139bdd08185b1b1bddd95960aa1b604482015260640161046d565b600060085460016106209190611857565b905061062c8282610b81565b6106368184610b9b565b6000818152600a6020526040812080546001600160a01b0319166001600160a01b038516179055600880549161066b8361186f565b9190505550505050565b61067f3382610c26565b61069b5760405162461bcd60e51b815260040161046d9061188a565b6105a3838383610d0c565b6007546001600160a01b031633146106d05760405162461bcd60e51b815260040161046d906118db565b6001600160a01b03166000908152600960205260409020805460ff19169055565b6105a3838383604051806020016040528060008152506108ac565b6000818152600260205260408120546001600160a01b03168061036d5760405162461bcd60e51b815260206004820152602960248201527f4552433732313a206f776e657220717565727920666f72206e6f6e657869737460448201526832b73a103a37b5b2b760b91b606482015260840161046d565b60006001600160a01b0382166107ee5760405162461bcd60e51b815260206004820152602a60248201527f4552433732313a2062616c616e636520717565727920666f7220746865207a65604482015269726f206164647265737360b01b606482015260840161046d565b506001600160a01b031660009081526003602052604090205490565b6007546001600160a01b031633146108345760405162461bcd60e51b815260040161046d906118db565b61083e6000610eac565b565b60606001805461038290611806565b6007546001600160a01b031633146108795760405162461bcd60e51b815260040161046d906118db565b6001600160a01b03166000908152600960205260409020805460ff19166001179055565b6108a8338383610efe565b5050565b6108b63383610c26565b6108d25760405162461bcd60e51b815260040161046d9061188a565b6108de84848484610fcd565b50505050565b60606108ef82610af6565b6109555760405162461bcd60e51b815260206004820152603160248201527f45524337323155524953746f726167653a2055524920717565727920666f72206044820152703737b732bc34b9ba32b73a103a37b5b2b760791b606482015260840161046d565b6000828152600660205260408120805461096e90611806565b80601f016020809104026020016040519081016040528092919081815260200182805461099a90611806565b80156109e75780601f106109bc576101008083540402835291602001916109e7565b820191906000526020600020905b8154815290600101906020018083116109ca57829003601f168201915b505050505090506000610a0560408051602081019091526000815290565b9050805160001415610a18575092915050565b815115610a4a578082604051602001610a32929190611910565b60405160208183030381529060405292505050919050565b610a5384611000565b949350505050565b6007546001600160a01b03163314610a855760405162461bcd60e51b815260040161046d906118db565b6001600160a01b038116610aea5760405162461bcd60e51b815260206004820152602660248201527f4f776e61626c653a206e6577206f776e657220697320746865207a65726f206160448201526564647265737360d01b606482015260840161046d565b610af381610eac565b50565b6000908152600260205260409020546001600160a01b0316151590565b600081815260046020526040902080546001600160a01b0319166001600160a01b0384169081179091558190610b488261070c565b6001600160a01b03167f8c5be1e5ebec7d5bd14f71427d1e84f3dd0314c0f7b2291e5b200ac8c7c3b92560405160405180910390a45050565b6108a88282604051806020016040528060008152506110d8565b610ba482610af6565b610c075760405162461bcd60e51b815260206004820152602e60248201527f45524337323155524953746f726167653a2055524920736574206f66206e6f6e60448201526d32bc34b9ba32b73a103a37b5b2b760911b606482015260840161046d565b600082815260066020908152604090912082516105a392840190611449565b6000610c3182610af6565b610c925760405162461bcd60e51b815260206004820152602c60248201527f4552433732313a206f70657261746f7220717565727920666f72206e6f6e657860448201526b34b9ba32b73a103a37b5b2b760a11b606482015260840161046d565b6000610c9d8361070c565b9050806001600160a01b0316846001600160a01b03161480610cd85750836001600160a01b0316610ccd84610405565b6001600160a01b0316145b80610a5357506001600160a01b0380821660009081526005602090815260408083209388168352929052205460ff16610a53565b826001600160a01b0316610d1f8261070c565b6001600160a01b031614610d875760405162461bcd60e51b815260206004820152602960248201527f4552433732313a207472616e73666572206f6620746f6b656e2074686174206960448201526839903737ba1037bbb760b91b606482015260840161046d565b6001600160a01b038216610de95760405162461bcd60e51b8152602060048201526024808201527f4552433732313a207472616e7366657220746f20746865207a65726f206164646044820152637265737360e01b606482015260840161046d565b610df4600082610b13565b6001600160a01b0383166000908152600360205260408120805460019290610e1d90849061193f565b90915550506001600160a01b0382166000908152600360205260408120805460019290610e4b908490611857565b909155505060008181526002602052604080822080546001600160a01b0319166001600160a01b0386811691821790925591518493918716917fddf252ad1be2c89b69c2b068fc378daa952ba7f163c4a11628f55a4df523b3ef91a4505050565b600780546001600160a01b038381166001600160a01b0319831681179093556040519116919082907f8be0079c531659141344cd1fd0a4f28419497f9722a3daafe3b4186f6b6457e090600090a35050565b816001600160a01b0316836001600160a01b03161415610f605760405162461bcd60e51b815260206004820152601960248201527f4552433732313a20617070726f766520746f2063616c6c657200000000000000604482015260640161046d565b6001600160a01b03838116600081815260056020908152604080832094871680845294825291829020805460ff191686151590811790915591519182527f17307eab39ab6107e8899845ad3d59bd9653f200f220920489ca2b5937696c31910160405180910390a3505050565b610fd8848484610d0c565b610fe48484848461110b565b6108de5760405162461bcd60e51b815260040161046d90611956565b606061100b82610af6565b61106f5760405162461bcd60e51b815260206004820152602f60248201527f4552433732314d657461646174613a2055524920717565727920666f72206e6f60448201526e3732bc34b9ba32b73a103a37b5b2b760891b606482015260840161046d565b600061108660408051602081019091526000815290565b905060008151116110a657604051806020016040528060008152506110d1565b806110b084611218565b6040516020016110c1929190611910565b6040516020818303038152906040525b9392505050565b6110e28383611316565b6110ef600084848461110b565b6105a35760405162461bcd60e51b815260040161046d90611956565b60006001600160a01b0384163b1561120d57604051630a85bd0160e11b81526001600160a01b0385169063150b7a029061114f9033908990889088906004016119a8565b602060405180830381600087803b15801561116957600080fd5b505af1925050508015611199575060408051601f3d908101601f19168201909252611196918101906119e5565b60015b6111f3573d8080156111c7576040519150601f19603f3d011682016040523d82523d6000602084013e6111cc565b606091505b5080516111eb5760405162461bcd60e51b815260040161046d90611956565b805181602001fd5b6001600160e01b031916630a85bd0160e11b149050610a53565b506001949350505050565b60608161123c5750506040805180820190915260018152600360fc1b602082015290565b8160005b811561126657806112508161186f565b915061125f9050600a83611a18565b9150611240565b60008167ffffffffffffffff811115611281576112816115df565b6040519080825280601f01601f1916602001820160405280156112ab576020820181803683370190505b5090505b8415610a53576112c060018361193f565b91506112cd600a86611a2c565b6112d8906030611857565b60f81b8183815181106112ed576112ed611a40565b60200101906001600160f81b031916908160001a90535061130f600a86611a18565b94506112af565b6001600160a01b03821661136c5760405162461bcd60e51b815260206004820181905260248201527f4552433732313a206d696e7420746f20746865207a65726f2061646472657373604482015260640161046d565b61137581610af6565b156113c25760405162461bcd60e51b815260206004820152601c60248201527f4552433732313a20746f6b656e20616c7265616479206d696e74656400000000604482015260640161046d565b6001600160a01b03821660009081526003602052604081208054600192906113eb908490611857565b909155505060008181526002602052604080822080546001600160a01b0319166001600160a01b03861690811790915590518392907fddf252ad1be2c89b69c2b068fc378daa952ba7f163c4a11628f55a4df523b3ef908290a45050565b82805461145590611806565b90600052602060002090601f01602090048101928261147757600085556114bd565b82601f1061149057805160ff19168380011785556114bd565b828001600101855582156114bd579182015b828111156114bd5782518255916020019190600101906114a2565b506114c99291506114cd565b5090565b5b808211156114c957600081556001016114ce565b6001600160e01b031981168114610af357600080fd5b60006020828403121561150a57600080fd5b81356110d1816114e2565b60005b83811015611530578181015183820152602001611518565b838111156108de5750506000910152565b60008151808452611559816020860160208601611515565b601f01601f19169290920160200192915050565b6020815260006110d16020830184611541565b60006020828403121561159257600080fd5b5035919050565b80356001600160a01b03811681146115b057600080fd5b919050565b600080604083850312156115c857600080fd5b6115d183611599565b946020939093013593505050565b634e487b7160e01b600052604160045260246000fd5b600067ffffffffffffffff80841115611610576116106115df565b604051601f8501601f19908116603f01168101908282118183101715611638576116386115df565b8160405280935085815286868601111561165157600080fd5b858560208301376000602087830101525050509392505050565b6000806040838503121561167e57600080fd5b823567ffffffffffffffff81111561169557600080fd5b8301601f810185136116a657600080fd5b6116b5858235602084016115f5565b9250506116c460208401611599565b90509250929050565b6000806000606084860312156116e257600080fd5b6116eb84611599565b92506116f960208501611599565b9150604084013590509250925092565b60006020828403121561171b57600080fd5b6110d182611599565b6000806040838503121561173757600080fd5b61174083611599565b91506020830135801515811461175557600080fd5b809150509250929050565b6000806000806080858703121561177657600080fd5b61177f85611599565b935061178d60208601611599565b925060408501359150606085013567ffffffffffffffff8111156117b057600080fd5b8501601f810187136117c157600080fd5b6117d0878235602084016115f5565b91505092959194509250565b600080604083850312156117ef57600080fd5b6117f883611599565b91506116c460208401611599565b600181811c9082168061181a57607f821691505b6020821081141561183b57634e487b7160e01b600052602260045260246000fd5b50919050565b634e487b7160e01b600052601160045260246000fd5b6000821982111561186a5761186a611841565b500190565b600060001982141561188357611883611841565b5060010190565b60208082526031908201527f4552433732313a207472616e736665722063616c6c6572206973206e6f74206f6040820152701ddb995c881b9bdc88185c1c1c9bdd9959607a1b606082015260800190565b6020808252818101527f4f776e61626c653a2063616c6c6572206973206e6f7420746865206f776e6572604082015260600190565b60008351611922818460208801611515565b835190830190611936818360208801611515565b01949350505050565b60008282101561195157611951611841565b500390565b60208082526032908201527f4552433732313a207472616e7366657220746f206e6f6e20455243373231526560408201527131b2b4bb32b91034b6b83632b6b2b73a32b960711b606082015260800190565b6001600160a01b03858116825284166020820152604081018390526080606082018190526000906119db90830184611541565b9695505050505050565b6000602082840312156119f757600080fd5b81516110d1816114e2565b634e487b7160e01b600052601260045260246000fd5b600082611a2757611a27611a02565b500490565b600082611a3b57611a3b611a02565b500690565b634e487b7160e01b600052603260045260246000fdfea26469706673582212202629fc81473d392120e5247fae2488919bca35f48ca5a71c088061db46e88e8564736f6c63430008090033",
  "linkReferences": {},
  "deployedLinkReferences": {}
}