{
  "_format": "hh-sol-artifact-1",
  "contractName": "NFT",
  "sourceName": "contracts/NFT.sol",
  "abi": [
    {
      "inputs": [
        {
          "internalType": "string",
          "name": "_name",
          "type": "string"
        },
        {
          "internalType": "string",
          "name": "_symbol",
          "type": "string"
        },
        {
          "internalType": "address",
          "name": "_owner",
          "type": "address"
        }
      ],
      "stateMutability": "nonpayable",
      "type": "constructor"
    },
    {
      "anonymous": false,
      "inputs": [
        {
          "indexed": true,
          "internalType": "address",
          "name": "owner",
          "type": "address"
        },
        {
          "indexed": true,
          "internalType": "address",
          "name": "approved",
          "type": "address"
        },
        {
          "indexed": true,
          "internalType": "uint256",
          "name": "tokenId",
          "type": "uint256"
        }
      ],
      "name": "Approval",
      "type": "event"
    },
    {
      "anonymous": false,
      "inputs": [
        {
          "indexed": true,
          "internalType": "address",
          "name": "owner",
          "type": "address"
        },
        {
          "indexed": true,
          "internalType": "address",
          "name": "operator",
          "type": "address"
        },
        {
          "indexed": false,
          "internalType": "bool",
          "name": "approved",
          "type": "bool"
        }
      ],
      "name": "ApprovalForAll",
      "type": "event"
    },
    {
      "anonymous": false,
      "inputs": [
        {
          "indexed": true,
          "internalType": "address",
          "name": "previousOwner",
          "type": "address"
        },
        {
          "indexed": true,
          "internalType": "address",
          "name": "newOwner",
          "type": "address"
        }
      ],
      "name": "OwnershipTransferred",
      "type": "event"
    },
    {
      "anonymous": false,
      "inputs": [
        {
          "indexed": true,
          "internalType": "address",
          "name": "from",
          "type": "address"
        },
        {
          "indexed": true,
          "internalType": "address",
          "name": "to",
          "type": "address"
        },
        {
          "indexed": true,
          "internalType": "uint256",
          "name": "tokenId",
          "type": "uint256"
        }
      ],
      "name": "SimulatedTransfer",
      "type": "event"
    },
    {
      "anonymous": false,
      "inputs": [
        {
          "indexed": true,
          "internalType": "address",
          "name": "from",
          "type": "address"
        },
        {
          "indexed": true,
          "internalType": "address",
          "name": "to",
          "type": "address"
        },
        {
          "indexed": true,
          "internalType": "uint256",
          "name": "tokenId",
          "type": "uint256"
        }
      ],
      "name": "Transfer",
      "type": "event"
    },
    {
      "inputs": [
        {
          "internalType": "address",
          "name": "minter",
          "type": "address"
        }
      ],
      "name": "addMinter",
      "outputs": [],
      "stateMutability": "nonpayable",
      "type": "function"
    },
    {
      "inputs": [
        {
          "internalType": "address",
          "name": "to",
          "type": "address"
        },
        {
          "internalType": "uint256",
          "name": "tokenId",
          "type": "uint256"
        }
      ],
      "name": "approve",
      "outputs": [],
      "stateMutability": "nonpayable",
      "type": "function"
    },
    {
      "inputs": [
        {
          "internalType": "address",
          "name": "owner",
          "type": "address"
        }
      ],
      "name": "balanceOf",
      "outputs": [
        {
          "internalType": "uint256",
          "name": "",
          "type": "uint256"
        }
      ],
      "stateMutability": "view",
      "type": "function"
    },
    {
      "inputs": [],
      "name": "currentSupply",
      "outputs": [
        {
          "internalType": "uint256",
          "name": "",
          "type": "uint256"
        }
      ],
      "stateMutability": "view",
      "type": "function"
    },
    {
      "inputs": [
        {
          "internalType": "uint256",
          "name": "tokenId",
          "type": "uint256"
        }
      ],
      "name": "getApproved",
      "outputs": [
        {
          "internalType": "address",
          "name": "",
          "type": "address"
        }
      ],
      "stateMutability": "view",
      "type": "function"
    },
    {
      "inputs": [
        {
          "internalType": "address",
          "name": "owner",
          "type": "address"
        },
        {
          "internalType": "address",
          "name": "operator",
          "type": "address"
        }
      ],
      "name": "isApprovedForAll",
      "outputs": [
        {
          "internalType": "bool",
          "name": "",
          "type": "bool"
        }
      ],
      "stateMutability": "view",
      "type": "function"
    },
    {
      "inputs": [
        {
          "internalType": "string",
          "name": "_tokenURI",
          "type": "string"
        },
        {
          "internalType": "address",
          "name": "artist",
          "type": "address"
        }
      ],
      "name": "mint",
      "outputs": [],
      "stateMutability": "nonpayable",
      "type": "function"
    },
    {
      "inputs": [
        {
          "internalType": "address",
          "name": "",
          "type": "address"
        }
      ],
      "name": "minters",
      "outputs": [
        {
          "internalType": "bool",
          "name": "",
          "type": "bool"
        }
      ],
      "stateMutability": "view",
      "type": "function"
    },
    {
      "inputs": [],
      "name": "name",
      "outputs": [
        {
          "internalType": "string",
          "name": "",
          "type": "string"
        }
      ],
      "stateMutability": "view",
      "type": "function"
    },
    {
      "inputs": [],
      "name": "owner",
      "outputs": [
        {
          "internalType": "address",
          "name": "",
          "type": "address"
        }
      ],
      "stateMutability": "view",
      "type": "function"
    },
    {
      "inputs": [
        {
          "internalType": "uint256",
          "name": "tokenId",
          "type": "uint256"
        }
      ],
      "name": "ownerOf",
      "outputs": [
        {
          "internalType": "address",
          "name": "",
          "type": "address"
        }
      ],
      "stateMutability": "view",
      "type": "function"
    },
    {
      "inputs": [
        {
          "internalType": "address",
          "name": "minter",
          "type": "address"
        }
      ],
      "name": "removeMinter",
      "outputs": [],
      "stateMutability": "nonpayable",
      "type": "function"
    },
    {
      "inputs": [],
      "name": "renounceOwnership",
      "outputs": [],
      "stateMutability": "nonpayable",
      "type": "function"
    },
    {
      "inputs": [
        {
          "internalType": "address",
          "name": "from",
          "type": "address"
        },
        {
          "internalType": "address",
          "name": "to",
          "type": "address"
        },
        {
          "internalType": "uint256",
          "name": "tokenId",
          "type": "uint256"
        }
      ],
      "name": "safeTransferFrom",
      "outputs": [],
      "stateMutability": "nonpayable",
      "type": "function"
    },
    {
      "inputs": [
        {
          "internalType": "address",
          "name": "from",
          "type": "address"
        },
        {
          "internalType": "address",
          "name": "to",
          "type": "address"
        },
        {
          "internalType": "uint256",
          "name": "tokenId",
          "type": "uint256"
        },
        {
          "internalType": "bytes",
          "name": "_data",
          "type": "bytes"
        }
      ],
      "name": "safeTransferFrom",
      "outputs": [],
      "stateMutability": "nonpayable",
      "type": "function"
    },
    {
      "inputs": [
        {
          "internalType": "address",
          "name": "operator",
          "type": "address"
        },
        {
          "internalType": "bool",
          "name": "approved",
          "type": "bool"
        }
      ],
      "name": "setApprovalForAll",
      "outputs": [],
      "stateMutability": "nonpayable",
      "type": "function"
    },
    {
      "inputs": [
        {
          "internalType": "bytes4",
          "name": "interfaceId",
          "type": "bytes4"
        }
      ],
      "name": "supportsInterface",
      "outputs": [
        {
          "internalType": "bool",
          "name": "",
          "type": "bool"
        }
      ],
      "stateMutability": "view",
      "type": "function"
    },
    {
      "inputs": [],
      "name": "symbol",
      "outputs": [
        {
          "internalType": "string",
          "name": "",
          "type": "string"
        }
      ],
      "stateMutability": "view",
      "type": "function"
    },
    {
      "inputs": [
        {
          "internalType": "uint256",
          "name": "tokenId",
          "type": "uint256"
        }
      ],
      "name": "tokenURI",
      "outputs": [
        {
          "internalType": "string",
          "name": "",
          "type": "string"
        }
      ],
      "stateMutability": "view",
      "type": "function"
    },
    {
      "inputs": [],
      "name": "totalSupply",
      "outputs": [
        {
          "internalType": "uint256",
          "name": "",
          "type": "uint256"
        }
      ],
      "stateMutability": "view",
      "type": "function"
    },
    {
      "inputs": [
        {
          "internalType": "address",
          "name": "from",
          "type": "address"
        },
        {
          "internalType": "address",
          "name": "to",
          "type": "address"
        },
        {
          "internalType": "uint256",
          "name": "tokenId",
          "type": "uint256"
        }
      ],
      "name": "transferFrom",
      "outputs": [],
      "stateMutability": "nonpayable",
      "type": "function"
    },
    {
      "inputs": [
        {
          "internalType": "address",
          "name": "newOwner",
          "type": "address"
        }
      ],
      "name": "transferOwnership",
      "outputs": [],
      "stateMutability": "nonpayable",
      "type": "function"
    }
  ],
  "bytecode": "0x60806040523480156200001157600080fd5b5060405162001e7c38038062001e7c83398101604081905262000034916200026a565b80838381600090805190602001906200004f929190620000f7565b50805162000065906001906020840190620000f7565b5050506200007981620000a560201b60201c565b505060016008819055336000908152600960205260409020805460ff1916909117905550620003349050565b600780546001600160a01b038381166001600160a01b0319831681179093556040519116919082907f8be0079c531659141344cd1fd0a4f28419497f9722a3daafe3b4186f6b6457e090600090a35050565b8280546200010590620002f7565b90600052602060002090601f01602090048101928262000129576000855562000174565b82601f106200014457805160ff191683800117855562000174565b8280016001018555821562000174579182015b828111156200017457825182559160200191906001019062000157565b506200018292915062000186565b5090565b5b8082111562000182576000815560010162000187565b634e487b7160e01b600052604160045260246000fd5b600082601f830112620001c557600080fd5b81516001600160401b0380821115620001e257620001e26200019d565b604051601f8301601f19908116603f011681019082821181831017156200020d576200020d6200019d565b816040528381526020925086838588010111156200022a57600080fd5b600091505b838210156200024e57858201830151818301840152908201906200022f565b83821115620002605760008385830101525b9695505050505050565b6000806000606084860312156200028057600080fd5b83516001600160401b03808211156200029857600080fd5b620002a687838801620001b3565b94506020860151915080821115620002bd57600080fd5b50620002cc86828701620001b3565b604086015190935090506001600160a01b0381168114620002ec57600080fd5b809150509250925092565b600181811c908216806200030c57607f821691505b602082108114156200032e57634e487b7160e01b600052602260045260246000fd5b50919050565b611b3880620003446000396000f3fe608060405234801561001057600080fd5b50600436106101425760003560e01c8063715018a6116100b8578063a22cb4651161007c578063a22cb46514610289578063b88d4fde1461029c578063c87b56dd146102af578063e985e9c5146102c2578063f2fde38b146102fe578063f46eccc41461031157600080fd5b8063715018a61461024c578063771282f6146102545780638da5cb5b1461025d57806395d89b411461026e578063983b2d561461027657600080fd5b80631c351a9d1161010a5780631c351a9d146101da57806323b872dd146101ed5780633092afd51461020057806342842e0e146102135780636352211e1461022657806370a082311461023957600080fd5b806301ffc9a71461014757806306fdde031461016f578063081812fc14610184578063095ea7b3146101af57806318160ddd146101c4575b600080fd5b61015a610155366004611588565b610334565b60405190151581526020015b60405180910390f35b610177610386565b60405161016691906115fd565b610197610192366004611610565b610418565b6040516001600160a01b039091168152602001610166565b6101c26101bd366004611645565b6104a5565b005b6101cc6105bb565b604051908152602001610166565b6101c26101e83660046116fb565b6105d1565b6101c26101fb36600461175d565b610709565b6101c261020e366004611799565b61073a565b6101c261022136600461175d565b610785565b610197610234366004611610565b6107a0565b6101cc610247366004611799565b610817565b6101c261089e565b6101cc60085481565b6007546001600160a01b0316610197565b6101776108d4565b6101c2610284366004611799565b6108e3565b6101c26102973660046117b4565b610931565b6101c26102aa3660046117f0565b61093c565b6101776102bd366004611610565b610974565b61015a6102d036600461186c565b6001600160a01b03918216600090815260056020908152604080832093909416825291909152205460ff1690565b6101c261030c366004611799565b610aeb565b61015a61031f366004611799565b60096020526000908152604090205460ff1681565b60006001600160e01b031982166380ac58cd60e01b148061036557506001600160e01b03198216635b5e139f60e01b145b8061038057506301ffc9a760e01b6001600160e01b03198316145b92915050565b60606000805461039590611896565b80601f01602080910402602001604051908101604052809291908181526020018280546103c190611896565b801561040e5780601f106103e35761010080835404028352916020019161040e565b820191906000526020600020905b8154815290600101906020018083116103f157829003601f168201915b5050505050905090565b600061042382610b86565b6104895760405162461bcd60e51b815260206004820152602c60248201527f4552433732313a20617070726f76656420717565727920666f72206e6f6e657860448201526b34b9ba32b73a103a37b5b2b760a11b60648201526084015b60405180910390fd5b506000908152600460205260409020546001600160a01b031690565b60006104b0826107a0565b9050806001600160a01b0316836001600160a01b0316141561051e5760405162461bcd60e51b815260206004820152602160248201527f4552433732313a20617070726f76616c20746f2063757272656e74206f776e656044820152603960f91b6064820152608401610480565b336001600160a01b038216148061053a575061053a81336102d0565b6105ac5760405162461bcd60e51b815260206004820152603860248201527f4552433732313a20617070726f76652063616c6c6572206973206e6f74206f7760448201527f6e6572206e6f7220617070726f76656420666f7220616c6c00000000000000006064820152608401610480565b6105b68383610ba3565b505050565b600060016008546105cc91906118e7565b905090565b3360009081526009602052604090205460ff161515600114806105fe57506007546001600160a01b031633145b6106385760405162461bcd60e51b815260206004820152600b60248201526a139bdd08185b1b1bddd95960aa1b6044820152606401610480565b600a8260405161064891906118fe565b9081526020016040518091039020546000146106b657600a8260405161066e91906118fe565b90815260405190819003602001812054906001600160a01b0383169081907ff9492de4663ad3ea04e979f77c3750740def7774be5fd55505b940633dd3d9b190600090a45050565b6008546106c38282610c11565b6106cd8184610c2b565b80600a846040516106de91906118fe565b90815260405190819003602001902055600880549060006106fe8361191a565b9190505550505b5050565b6107133382610cb6565b61072f5760405162461bcd60e51b815260040161048090611935565b6105b6838383610d9c565b6007546001600160a01b031633146107645760405162461bcd60e51b815260040161048090611986565b6001600160a01b03166000908152600960205260409020805460ff19169055565b6105b68383836040518060200160405280600081525061093c565b6000818152600260205260408120546001600160a01b0316806103805760405162461bcd60e51b815260206004820152602960248201527f4552433732313a206f776e657220717565727920666f72206e6f6e657869737460448201526832b73a103a37b5b2b760b91b6064820152608401610480565b60006001600160a01b0382166108825760405162461bcd60e51b815260206004820152602a60248201527f4552433732313a2062616c616e636520717565727920666f7220746865207a65604482015269726f206164647265737360b01b6064820152608401610480565b506001600160a01b031660009081526003602052604090205490565b6007546001600160a01b031633146108c85760405162461bcd60e51b815260040161048090611986565b6108d26000610f3c565b565b60606001805461039590611896565b6007546001600160a01b0316331461090d5760405162461bcd60e51b815260040161048090611986565b6001600160a01b03166000908152600960205260409020805460ff19166001179055565b610705338383610f8e565b6109463383610cb6565b6109625760405162461bcd60e51b815260040161048090611935565b61096e8484848461105d565b50505050565b606061097f82610b86565b6109e55760405162461bcd60e51b815260206004820152603160248201527f45524337323155524953746f726167653a2055524920717565727920666f72206044820152703737b732bc34b9ba32b73a103a37b5b2b760791b6064820152608401610480565b600082815260066020526040812080546109fe90611896565b80601f0160208091040260200160405190810160405280929190818152602001828054610a2a90611896565b8015610a775780601f10610a4c57610100808354040283529160200191610a77565b820191906000526020600020905b815481529060010190602001808311610a5a57829003601f168201915b505050505090506000610a9560408051602081019091526000815290565b9050805160001415610aa8575092915050565b815115610ada578082604051602001610ac29291906119bb565b60405160208183030381529060405292505050919050565b610ae384611090565b949350505050565b6007546001600160a01b03163314610b155760405162461bcd60e51b815260040161048090611986565b6001600160a01b038116610b7a5760405162461bcd60e51b815260206004820152602660248201527f4f776e61626c653a206e6577206f776e657220697320746865207a65726f206160448201526564647265737360d01b6064820152608401610480565b610b8381610f3c565b50565b6000908152600260205260409020546001600160a01b0316151590565b600081815260046020526040902080546001600160a01b0319166001600160a01b0384169081179091558190610bd8826107a0565b6001600160a01b03167f8c5be1e5ebec7d5bd14f71427d1e84f3dd0314c0f7b2291e5b200ac8c7c3b92560405160405180910390a45050565b610705828260405180602001604052806000815250611168565b610c3482610b86565b610c975760405162461bcd60e51b815260206004820152602e60248201527f45524337323155524953746f726167653a2055524920736574206f66206e6f6e60448201526d32bc34b9ba32b73a103a37b5b2b760911b6064820152608401610480565b600082815260066020908152604090912082516105b6928401906114d9565b6000610cc182610b86565b610d225760405162461bcd60e51b815260206004820152602c60248201527f4552433732313a206f70657261746f7220717565727920666f72206e6f6e657860448201526b34b9ba32b73a103a37b5b2b760a11b6064820152608401610480565b6000610d2d836107a0565b9050806001600160a01b0316846001600160a01b03161480610d685750836001600160a01b0316610d5d84610418565b6001600160a01b0316145b80610ae357506001600160a01b0380821660009081526005602090815260408083209388168352929052205460ff16610ae3565b826001600160a01b0316610daf826107a0565b6001600160a01b031614610e175760405162461bcd60e51b815260206004820152602960248201527f4552433732313a207472616e73666572206f6620746f6b656e2074686174206960448201526839903737ba1037bbb760b91b6064820152608401610480565b6001600160a01b038216610e795760405162461bcd60e51b8152602060048201526024808201527f4552433732313a207472616e7366657220746f20746865207a65726f206164646044820152637265737360e01b6064820152608401610480565b610e84600082610ba3565b6001600160a01b0383166000908152600360205260408120805460019290610ead9084906118e7565b90915550506001600160a01b0382166000908152600360205260408120805460019290610edb9084906119ea565b909155505060008181526002602052604080822080546001600160a01b0319166001600160a01b0386811691821790925591518493918716917fddf252ad1be2c89b69c2b068fc378daa952ba7f163c4a11628f55a4df523b3ef91a4505050565b600780546001600160a01b038381166001600160a01b0319831681179093556040519116919082907f8be0079c531659141344cd1fd0a4f28419497f9722a3daafe3b4186f6b6457e090600090a35050565b816001600160a01b0316836001600160a01b03161415610ff05760405162461bcd60e51b815260206004820152601960248201527f4552433732313a20617070726f766520746f2063616c6c6572000000000000006044820152606401610480565b6001600160a01b03838116600081815260056020908152604080832094871680845294825291829020805460ff191686151590811790915591519182527f17307eab39ab6107e8899845ad3d59bd9653f200f220920489ca2b5937696c31910160405180910390a3505050565b611068848484610d9c565b6110748484848461119b565b61096e5760405162461bcd60e51b815260040161048090611a02565b606061109b82610b86565b6110ff5760405162461bcd60e51b815260206004820152602f60248201527f4552433732314d657461646174613a2055524920717565727920666f72206e6f60448201526e3732bc34b9ba32b73a103a37b5b2b760891b6064820152608401610480565b600061111660408051602081019091526000815290565b905060008151116111365760405180602001604052806000815250611161565b80611140846112a8565b6040516020016111519291906119bb565b6040516020818303038152906040525b9392505050565b61117283836113a6565b61117f600084848461119b565b6105b65760405162461bcd60e51b815260040161048090611a02565b60006001600160a01b0384163b1561129d57604051630a85bd0160e11b81526001600160a01b0385169063150b7a02906111df903390899088908890600401611a54565b602060405180830381600087803b1580156111f957600080fd5b505af1925050508015611229575060408051601f3d908101601f1916820190925261122691810190611a91565b60015b611283573d808015611257576040519150601f19603f3d011682016040523d82523d6000602084013e61125c565b606091505b50805161127b5760405162461bcd60e51b815260040161048090611a02565b805181602001fd5b6001600160e01b031916630a85bd0160e11b149050610ae3565b506001949350505050565b6060816112cc5750506040805180820190915260018152600360fc1b602082015290565b8160005b81156112f657806112e08161191a565b91506112ef9050600a83611ac4565b91506112d0565b60008167ffffffffffffffff8111156113115761131161166f565b6040519080825280601f01601f19166020018201604052801561133b576020820181803683370190505b5090505b8415610ae3576113506001836118e7565b915061135d600a86611ad8565b6113689060306119ea565b60f81b81838151811061137d5761137d611aec565b60200101906001600160f81b031916908160001a90535061139f600a86611ac4565b945061133f565b6001600160a01b0382166113fc5760405162461bcd60e51b815260206004820181905260248201527f4552433732313a206d696e7420746f20746865207a65726f20616464726573736044820152606401610480565b61140581610b86565b156114525760405162461bcd60e51b815260206004820152601c60248201527f4552433732313a20746f6b656e20616c7265616479206d696e746564000000006044820152606401610480565b6001600160a01b038216600090815260036020526040812080546001929061147b9084906119ea565b909155505060008181526002602052604080822080546001600160a01b0319166001600160a01b03861690811790915590518392907fddf252ad1be2c89b69c2b068fc378daa952ba7f163c4a11628f55a4df523b3ef908290a45050565b8280546114e590611896565b90600052602060002090601f016020900481019282611507576000855561154d565b82601f1061152057805160ff191683800117855561154d565b8280016001018555821561154d579182015b8281111561154d578251825591602001919060010190611532565b5061155992915061155d565b5090565b5b80821115611559576000815560010161155e565b6001600160e01b031981168114610b8357600080fd5b60006020828403121561159a57600080fd5b813561116181611572565b60005b838110156115c05781810151838201526020016115a8565b8381111561096e5750506000910152565b600081518084526115e98160208601602086016115a5565b601f01601f19169290920160200192915050565b60208152600061116160208301846115d1565b60006020828403121561162257600080fd5b5035919050565b80356001600160a01b038116811461164057600080fd5b919050565b6000806040838503121561165857600080fd5b61166183611629565b946020939093013593505050565b634e487b7160e01b600052604160045260246000fd5b600067ffffffffffffffff808411156116a0576116a061166f565b604051601f8501601f19908116603f011681019082821181831017156116c8576116c861166f565b816040528093508581528686860111156116e157600080fd5b858560208301376000602087830101525050509392505050565b6000806040838503121561170e57600080fd5b823567ffffffffffffffff81111561172557600080fd5b8301601f8101851361173657600080fd5b61174585823560208401611685565b92505061175460208401611629565b90509250929050565b60008060006060848603121561177257600080fd5b61177b84611629565b925061178960208501611629565b9150604084013590509250925092565b6000602082840312156117ab57600080fd5b61116182611629565b600080604083850312156117c757600080fd5b6117d083611629565b9150602083013580151581146117e557600080fd5b809150509250929050565b6000806000806080858703121561180657600080fd5b61180f85611629565b935061181d60208601611629565b925060408501359150606085013567ffffffffffffffff81111561184057600080fd5b8501601f8101871361185157600080fd5b61186087823560208401611685565b91505092959194509250565b6000806040838503121561187f57600080fd5b61188883611629565b915061175460208401611629565b600181811c908216806118aa57607f821691505b602082108114156118cb57634e487b7160e01b600052602260045260246000fd5b50919050565b634e487b7160e01b600052601160045260246000fd5b6000828210156118f9576118f96118d1565b500390565b600082516119108184602087016115a5565b9190910192915050565b600060001982141561192e5761192e6118d1565b5060010190565b60208082526031908201527f4552433732313a207472616e736665722063616c6c6572206973206e6f74206f6040820152701ddb995c881b9bdc88185c1c1c9bdd9959607a1b606082015260800190565b6020808252818101527f4f776e61626c653a2063616c6c6572206973206e6f7420746865206f776e6572604082015260600190565b600083516119cd8184602088016115a5565b8351908301906119e18183602088016115a5565b01949350505050565b600082198211156119fd576119fd6118d1565b500190565b60208082526032908201527f4552433732313a207472616e7366657220746f206e6f6e20455243373231526560408201527131b2b4bb32b91034b6b83632b6b2b73a32b960711b606082015260800190565b6001600160a01b0385811682528416602082015260408101839052608060608201819052600090611a87908301846115d1565b9695505050505050565b600060208284031215611aa357600080fd5b815161116181611572565b634e487b7160e01b600052601260045260246000fd5b600082611ad357611ad3611aae565b500490565b600082611ae757611ae7611aae565b500690565b634e487b7160e01b600052603260045260246000fdfea26469706673582212205be9d0920bc77da8fe7f9fe5eab149fb7708ee34e34c632924f2c13d3fc827ed64736f6c63430008090033",
  "linkReferences": {},
  "deployedLinkReferences": {}
}