{
  "_format": "hh-sol-artifact-1",
  "contractName": "NFT",
  "sourceName": "contracts/NFT.sol",
  "abi": [
    {
      "inputs": [
        {
          "internalType": "string",
          "name": "_name",
          "type": "string"
        },
        {
          "internalType": "string",
          "name": "_symbol",
          "type": "string"
        },
        {
          "internalType": "address",
          "name": "_owner",
          "type": "address"
        }
      ],
      "stateMutability": "nonpayable",
      "type": "constructor"
    },
    {
      "anonymous": false,
      "inputs": [
        {
          "indexed": true,
          "internalType": "address",
          "name": "owner",
          "type": "address"
        },
        {
          "indexed": true,
          "internalType": "address",
          "name": "approved",
          "type": "address"
        },
        {
          "indexed": true,
          "internalType": "uint256",
          "name": "tokenId",
          "type": "uint256"
        }
      ],
      "name": "Approval",
      "type": "event"
    },
    {
      "anonymous": false,
      "inputs": [
        {
          "indexed": true,
          "internalType": "address",
          "name": "owner",
          "type": "address"
        },
        {
          "indexed": true,
          "internalType": "address",
          "name": "operator",
          "type": "address"
        },
        {
          "indexed": false,
          "internalType": "bool",
          "name": "approved",
          "type": "bool"
        }
      ],
      "name": "ApprovalForAll",
      "type": "event"
    },
    {
      "anonymous": false,
      "inputs": [
        {
          "indexed": false,
          "internalType": "address",
          "name": "userAddress",
          "type": "address"
        },
        {
          "indexed": false,
          "internalType": "address payable",
          "name": "relayerAddress",
          "type": "address"
        },
        {
          "indexed": false,
          "internalType": "bytes",
          "name": "functionSignature",
          "type": "bytes"
        }
      ],
      "name": "MetaTransactionExecuted",
      "type": "event"
    },
    {
      "anonymous": false,
      "inputs": [
        {
          "indexed": true,
          "internalType": "address",
          "name": "previousOwner",
          "type": "address"
        },
        {
          "indexed": true,
          "internalType": "address",
          "name": "newOwner",
          "type": "address"
        }
      ],
      "name": "OwnershipTransferred",
      "type": "event"
    },
    {
      "anonymous": false,
      "inputs": [
        {
          "indexed": true,
          "internalType": "address",
          "name": "from",
          "type": "address"
        },
        {
          "indexed": true,
          "internalType": "address",
          "name": "to",
          "type": "address"
        },
        {
          "indexed": true,
          "internalType": "uint256",
          "name": "tokenId",
          "type": "uint256"
        }
      ],
      "name": "SimulatedTransfer",
      "type": "event"
    },
    {
      "anonymous": false,
      "inputs": [
        {
          "indexed": true,
          "internalType": "address",
          "name": "from",
          "type": "address"
        },
        {
          "indexed": true,
          "internalType": "address",
          "name": "to",
          "type": "address"
        },
        {
          "indexed": true,
          "internalType": "uint256",
          "name": "tokenId",
          "type": "uint256"
        }
      ],
      "name": "Transfer",
      "type": "event"
    },
    {
      "inputs": [],
      "name": "ERC712_VERSION",
      "outputs": [
        {
          "internalType": "string",
          "name": "",
          "type": "string"
        }
      ],
      "stateMutability": "view",
      "type": "function"
    },
    {
      "inputs": [
        {
          "internalType": "address",
          "name": "to",
          "type": "address"
        },
        {
          "internalType": "uint256",
          "name": "tokenId",
          "type": "uint256"
        }
      ],
      "name": "approve",
      "outputs": [],
      "stateMutability": "nonpayable",
      "type": "function"
    },
    {
      "inputs": [
        {
          "internalType": "address",
          "name": "owner",
          "type": "address"
        }
      ],
      "name": "balanceOf",
      "outputs": [
        {
          "internalType": "uint256",
          "name": "",
          "type": "uint256"
        }
      ],
      "stateMutability": "view",
      "type": "function"
    },
    {
      "inputs": [],
      "name": "currentSupply",
      "outputs": [
        {
          "internalType": "uint256",
          "name": "",
          "type": "uint256"
        }
      ],
      "stateMutability": "view",
      "type": "function"
    },
    {
      "inputs": [
        {
          "internalType": "address",
          "name": "userAddress",
          "type": "address"
        },
        {
          "internalType": "bytes",
          "name": "functionSignature",
          "type": "bytes"
        },
        {
          "internalType": "bytes32",
          "name": "sigR",
          "type": "bytes32"
        },
        {
          "internalType": "bytes32",
          "name": "sigS",
          "type": "bytes32"
        },
        {
          "internalType": "uint8",
          "name": "sigV",
          "type": "uint8"
        }
      ],
      "name": "executeMetaTransaction",
      "outputs": [
        {
          "internalType": "bytes",
          "name": "",
          "type": "bytes"
        }
      ],
      "stateMutability": "payable",
      "type": "function"
    },
    {
      "inputs": [
        {
          "internalType": "uint256",
          "name": "tokenId",
          "type": "uint256"
        }
      ],
      "name": "getApproved",
      "outputs": [
        {
          "internalType": "address",
          "name": "",
          "type": "address"
        }
      ],
      "stateMutability": "view",
      "type": "function"
    },
    {
      "inputs": [],
      "name": "getChainId",
      "outputs": [
        {
          "internalType": "uint256",
          "name": "",
          "type": "uint256"
        }
      ],
      "stateMutability": "view",
      "type": "function"
    },
    {
      "inputs": [],
      "name": "getDomainSeperator",
      "outputs": [
        {
          "internalType": "bytes32",
          "name": "",
          "type": "bytes32"
        }
      ],
      "stateMutability": "view",
      "type": "function"
    },
    {
      "inputs": [
        {
          "internalType": "address",
          "name": "user",
          "type": "address"
        }
      ],
      "name": "getNonce",
      "outputs": [
        {
          "internalType": "uint256",
          "name": "nonce",
          "type": "uint256"
        }
      ],
      "stateMutability": "view",
      "type": "function"
    },
    {
      "inputs": [
        {
          "internalType": "address",
          "name": "_owner",
          "type": "address"
        },
        {
          "internalType": "address",
          "name": "_operator",
          "type": "address"
        }
      ],
      "name": "isApprovedForAll",
      "outputs": [
        {
          "internalType": "bool",
          "name": "isOperator",
          "type": "bool"
        }
      ],
      "stateMutability": "view",
      "type": "function"
    },
    {
      "inputs": [
        {
          "internalType": "string",
          "name": "_tokenURI",
          "type": "string"
        },
        {
          "internalType": "address",
          "name": "artist",
          "type": "address"
        }
      ],
      "name": "mint",
      "outputs": [],
      "stateMutability": "nonpayable",
      "type": "function"
    },
    {
      "inputs": [],
      "name": "name",
      "outputs": [
        {
          "internalType": "string",
          "name": "",
          "type": "string"
        }
      ],
      "stateMutability": "view",
      "type": "function"
    },
    {
      "inputs": [],
      "name": "owner",
      "outputs": [
        {
          "internalType": "address",
          "name": "",
          "type": "address"
        }
      ],
      "stateMutability": "view",
      "type": "function"
    },
    {
      "inputs": [
        {
          "internalType": "uint256",
          "name": "tokenId",
          "type": "uint256"
        }
      ],
      "name": "ownerOf",
      "outputs": [
        {
          "internalType": "address",
          "name": "",
          "type": "address"
        }
      ],
      "stateMutability": "view",
      "type": "function"
    },
    {
      "inputs": [],
      "name": "renounceOwnership",
      "outputs": [],
      "stateMutability": "nonpayable",
      "type": "function"
    },
    {
      "inputs": [
        {
          "internalType": "address",
          "name": "from",
          "type": "address"
        },
        {
          "internalType": "address",
          "name": "to",
          "type": "address"
        },
        {
          "internalType": "uint256",
          "name": "tokenId",
          "type": "uint256"
        }
      ],
      "name": "safeTransferFrom",
      "outputs": [],
      "stateMutability": "nonpayable",
      "type": "function"
    },
    {
      "inputs": [
        {
          "internalType": "address",
          "name": "from",
          "type": "address"
        },
        {
          "internalType": "address",
          "name": "to",
          "type": "address"
        },
        {
          "internalType": "uint256",
          "name": "tokenId",
          "type": "uint256"
        },
        {
          "internalType": "bytes",
          "name": "_data",
          "type": "bytes"
        }
      ],
      "name": "safeTransferFrom",
      "outputs": [],
      "stateMutability": "nonpayable",
      "type": "function"
    },
    {
      "inputs": [
        {
          "internalType": "address",
          "name": "operator",
          "type": "address"
        },
        {
          "internalType": "bool",
          "name": "approved",
          "type": "bool"
        }
      ],
      "name": "setApprovalForAll",
      "outputs": [],
      "stateMutability": "nonpayable",
      "type": "function"
    },
    {
      "inputs": [
        {
          "internalType": "bool",
          "name": "_revealOnTransfer",
          "type": "bool"
        }
      ],
      "name": "setRevealOnTransfer",
      "outputs": [],
      "stateMutability": "nonpayable",
      "type": "function"
    },
    {
      "inputs": [
        {
          "internalType": "bytes4",
          "name": "interfaceId",
          "type": "bytes4"
        }
      ],
      "name": "supportsInterface",
      "outputs": [
        {
          "internalType": "bool",
          "name": "",
          "type": "bool"
        }
      ],
      "stateMutability": "view",
      "type": "function"
    },
    {
      "inputs": [],
      "name": "symbol",
      "outputs": [
        {
          "internalType": "string",
          "name": "",
          "type": "string"
        }
      ],
      "stateMutability": "view",
      "type": "function"
    },
    {
      "inputs": [
        {
          "internalType": "uint256",
          "name": "tokenId",
          "type": "uint256"
        }
      ],
      "name": "tokenURI",
      "outputs": [
        {
          "internalType": "string",
          "name": "",
          "type": "string"
        }
      ],
      "stateMutability": "view",
      "type": "function"
    },
    {
      "inputs": [],
      "name": "totalSupply",
      "outputs": [
        {
          "internalType": "uint256",
          "name": "",
          "type": "uint256"
        }
      ],
      "stateMutability": "view",
      "type": "function"
    },
    {
      "inputs": [
        {
          "internalType": "address",
          "name": "from",
          "type": "address"
        },
        {
          "internalType": "address",
          "name": "to",
          "type": "address"
        },
        {
          "internalType": "uint256",
          "name": "tokenId",
          "type": "uint256"
        }
      ],
      "name": "transferFrom",
      "outputs": [],
      "stateMutability": "nonpayable",
      "type": "function"
    },
    {
      "inputs": [
        {
          "internalType": "address",
          "name": "newOwner",
          "type": "address"
        }
      ],
      "name": "transferOwnership",
      "outputs": [],
      "stateMutability": "nonpayable",
      "type": "function"
    }
  ],
  "bytecode": "0x60806040526007805460ff60a01b19169055600d805460ff191690553480156200002857600080fd5b50604051620027ca380380620027ca8339810160408190526200004b9162000394565b80838381600090805190602001906200006692919062000221565b5080516200007c90600190602084019062000221565b5050506200009081620000bc60201b60201c565b506001600a55600b80546001600160a01b03191633179055620000b3836200010e565b5050506200045e565b600780546001600160a01b038381166001600160a01b0319831681179093556040519116919082907f8be0079c531659141344cd1fd0a4f28419497f9722a3daafe3b4186f6b6457e090600090a35050565b600754600160a01b900460ff16156200015e5760405162461bcd60e51b815260206004820152600e60248201526d185b1c9958591e481a5b9a5d195960921b604482015260640160405180910390fd5b62000169816200017f565b506007805460ff60a01b1916600160a01b179055565b6040518060800160405280604f81526020016200277b604f9139805160209182012082519282019290922060408051808201825260018152603160f81b90840152805180840194909452838101919091527fc89efdaa54c0f20c7adf612882df0950f5a951637e0307cdcb4c672f298b8bc660608401523060808401524660a0808501919091528151808503909101815260c090930190528151910120600855565b8280546200022f9062000421565b90600052602060002090601f0160209004810192826200025357600085556200029e565b82601f106200026e57805160ff19168380011785556200029e565b828001600101855582156200029e579182015b828111156200029e57825182559160200191906001019062000281565b50620002ac929150620002b0565b5090565b5b80821115620002ac5760008155600101620002b1565b634e487b7160e01b600052604160045260246000fd5b600082601f830112620002ef57600080fd5b81516001600160401b03808211156200030c576200030c620002c7565b604051601f8301601f19908116603f01168101908282118183101715620003375762000337620002c7565b816040528381526020925086838588010111156200035457600080fd5b600091505b8382101562000378578582018301518183018401529082019062000359565b838211156200038a5760008385830101525b9695505050505050565b600080600060608486031215620003aa57600080fd5b83516001600160401b0380821115620003c257600080fd5b620003d087838801620002dd565b94506020860151915080821115620003e757600080fd5b50620003f686828701620002dd565b604086015190935090506001600160a01b03811681146200041657600080fd5b809150509250925092565b600181811c908216806200043657607f821691505b602082108114156200045857634e487b7160e01b600052602260045260246000fd5b50919050565b61230d806200046e6000396000f3fe6080604052600436106101665760003560e01c806342842e0e116100d157806395d89b411161008a578063b88d4fde11610064578063b88d4fde1461041b578063c87b56dd1461043b578063e985e9c51461045b578063f2fde38b1461047b57600080fd5b806395d89b41146103c6578063a22cb465146103db578063b223920b146103fb57600080fd5b806342842e0e1461031d5780636352211e1461033d57806370a082311461035d578063715018a61461037d578063771282f6146103925780638da5cb5b146103a857600080fd5b806318160ddd1161012357806318160ddd1461025c5780631c351a9d1461027f57806320379ee51461029f57806323b872dd146102b45780632d0335ab146102d45780633408e4701461030a57600080fd5b806301ffc9a71461016b57806306fdde03146101a0578063081812fc146101c2578063095ea7b3146101fa5780630c53c51c1461021c5780630f7e59701461022f575b600080fd5b34801561017757600080fd5b5061018b610186366004611c42565b61049b565b60405190151581526020015b60405180910390f35b3480156101ac57600080fd5b506101b56104ed565b6040516101979190611cb7565b3480156101ce57600080fd5b506101e26101dd366004611cca565b61057f565b6040516001600160a01b039091168152602001610197565b34801561020657600080fd5b5061021a610215366004611cff565b61060c565b005b6101b561022a366004611dd5565b610734565b34801561023b57600080fd5b506101b5604051806040016040528060018152602001603160f81b81525081565b34801561026857600080fd5b5061027161091e565b604051908152602001610197565b34801561028b57600080fd5b5061021a61029a366004611e51565b610934565b3480156102ab57600080fd5b50600854610271565b3480156102c057600080fd5b5061021a6102cf366004611eb3565b610a62565b3480156102e057600080fd5b506102716102ef366004611eef565b6001600160a01b031660009081526009602052604090205490565b34801561031657600080fd5b5046610271565b34801561032957600080fd5b5061021a610338366004611eb3565b610a9a565b34801561034957600080fd5b506101e2610358366004611cca565b610ab5565b34801561036957600080fd5b50610271610378366004611eef565b610b2c565b34801561038957600080fd5b5061021a610bb3565b34801561039e57600080fd5b50610271600a5481565b3480156103b457600080fd5b506007546001600160a01b03166101e2565b3480156103d257600080fd5b506101b5610c38565b3480156103e757600080fd5b5061021a6103f6366004611f1a565b610c47565b34801561040757600080fd5b5061021a610416366004611f44565b610c59565b34801561042757600080fd5b5061021a610436366004611f5f565b610cc9565b34801561044757600080fd5b506101b5610456366004611cca565b610d08565b34801561046757600080fd5b5061018b610476366004611fc7565b610d5a565b34801561048757600080fd5b5061021a610496366004611eef565b610df9565b60006001600160e01b031982166380ac58cd60e01b14806104cc57506001600160e01b03198216635b5e139f60e01b145b806104e757506301ffc9a760e01b6001600160e01b03198316145b92915050565b6060600080546104fc90611ff1565b80601f016020809104026020016040519081016040528092919081815260200182805461052890611ff1565b80156105755780601f1061054a57610100808354040283529160200191610575565b820191906000526020600020905b81548152906001019060200180831161055857829003601f168201915b5050505050905090565b600061058a82610ee3565b6105f05760405162461bcd60e51b815260206004820152602c60248201527f4552433732313a20617070726f76656420717565727920666f72206e6f6e657860448201526b34b9ba32b73a103a37b5b2b760a11b60648201526084015b60405180910390fd5b506000908152600460205260409020546001600160a01b031690565b600061061782610ab5565b9050806001600160a01b0316836001600160a01b031614156106855760405162461bcd60e51b815260206004820152602160248201527f4552433732313a20617070726f76616c20746f2063757272656e74206f776e656044820152603960f91b60648201526084016105e7565b806001600160a01b0316610697610f00565b6001600160a01b031614806106b357506106b381610476610f00565b6107255760405162461bcd60e51b815260206004820152603860248201527f4552433732313a20617070726f76652063616c6c6572206973206e6f74206f7760448201527f6e6572206e6f7220617070726f76656420666f7220616c6c000000000000000060648201526084016105e7565b61072f8383610f0a565b505050565b60408051606081810183526001600160a01b038816600081815260096020908152908590205484528301529181018690526107728782878787610f78565b6107c85760405162461bcd60e51b815260206004820152602160248201527f5369676e657220616e64207369676e617475726520646f206e6f74206d6174636044820152600d60fb1b60648201526084016105e7565b6001600160a01b0387166000908152600960205260409020546107ec906001612042565b6001600160a01b0388166000908152600960205260409081902091909155517f5845892132946850460bff5a0083f71031bc5bf9aadcd40f1de79423eac9b10b9061083c90899033908a9061205a565b60405180910390a1600080306001600160a01b0316888a60405160200161086492919061208f565b60408051601f198184030181529082905261087e916120c6565b6000604051808303816000865af19150503d80600081146108bb576040519150601f19603f3d011682016040523d82523d6000602084013e6108c0565b606091505b5091509150816109125760405162461bcd60e51b815260206004820152601c60248201527f46756e6374696f6e2063616c6c206e6f74207375636365737366756c0000000060448201526064016105e7565b98975050505050505050565b60006001600a5461092f91906120e2565b905090565b600b546001600160a01b031633148061095757506007546001600160a01b031633145b6109915760405162461bcd60e51b815260206004820152600b60248201526a139bdd08185b1b1bddd95960aa1b60448201526064016105e7565b600c826040516109a191906120c6565b908152602001604051809103902054600014610a0f57600c826040516109c791906120c6565b90815260405190819003602001812054906001600160a01b0383169081907ff9492de4663ad3ea04e979f77c3750740def7774be5fd55505b940633dd3d9b190600090a45050565b600a54610a1c8282611068565b610a268184611082565b80600c84604051610a3791906120c6565b90815260405190819003602001902055600a8054906000610a57836120f9565b9190505550505b5050565b610a73610a6d610f00565b8261110d565b610a8f5760405162461bcd60e51b81526004016105e790612114565b61072f8383836111d7565b61072f83838360405180602001604052806000815250610cc9565b6000818152600260205260408120546001600160a01b0316806104e75760405162461bcd60e51b815260206004820152602960248201527f4552433732313a206f776e657220717565727920666f72206e6f6e657869737460448201526832b73a103a37b5b2b760b91b60648201526084016105e7565b60006001600160a01b038216610b975760405162461bcd60e51b815260206004820152602a60248201527f4552433732313a2062616c616e636520717565727920666f7220746865207a65604482015269726f206164647265737360b01b60648201526084016105e7565b506001600160a01b031660009081526003602052604090205490565b610bbb610f00565b6001600160a01b0316610bd66007546001600160a01b031690565b6001600160a01b031614610c2c5760405162461bcd60e51b815260206004820181905260248201527f4f776e61626c653a2063616c6c6572206973206e6f7420746865206f776e657260448201526064016105e7565b610c366000611377565b565b6060600180546104fc90611ff1565b610a5e610c52610f00565b83836113c9565b600b546001600160a01b0316331480610c7c57506007546001600160a01b031633145b610cb65760405162461bcd60e51b815260206004820152600b60248201526a139bdd08185b1b1bddd95960aa1b60448201526064016105e7565b600d805460ff1916911515919091179055565b610cda610cd4610f00565b8361110d565b610cf65760405162461bcd60e51b81526004016105e790612114565b610d0284848484611498565b50505050565b600d5460609060ff168015610d3857506007546001600160a01b0316610d2d83610ab5565b6001600160a01b0316145b15610d5157505060408051602081019091526000815290565b6104e7826114cb565b60006001600160a01b03821673d47e14dd9b98411754f722b4c4074e14752ada7c1480610da357506001600160a01b0382167358807bad0b376efc12f5ad86aac70e78ed67deae145b80610dbb5750600b546001600160a01b038381169116145b15610dc8575060016104e7565b6001600160a01b0380841660009081526005602090815260408083209386168352929052205460ff165b9392505050565b610e01610f00565b6001600160a01b0316610e1c6007546001600160a01b031690565b6001600160a01b031614610e725760405162461bcd60e51b815260206004820181905260248201527f4f776e61626c653a2063616c6c6572206973206e6f7420746865206f776e657260448201526064016105e7565b6001600160a01b038116610ed75760405162461bcd60e51b815260206004820152602660248201527f4f776e61626c653a206e6577206f776e657220697320746865207a65726f206160448201526564647265737360d01b60648201526084016105e7565b610ee081611377565b50565b6000908152600260205260409020546001600160a01b0316151590565b600061092f61163a565b600081815260046020526040902080546001600160a01b0319166001600160a01b0384169081179091558190610f3f82610ab5565b6001600160a01b03167f8c5be1e5ebec7d5bd14f71427d1e84f3dd0314c0f7b2291e5b200ac8c7c3b92560405160405180910390a45050565b60006001600160a01b038616610fde5760405162461bcd60e51b815260206004820152602560248201527f4e61746976654d6574615472616e73616374696f6e3a20494e56414c49445f5360448201526424a3a722a960d91b60648201526084016105e7565b6001610ff1610fec87611697565b611714565b6040805160008152602081018083529290925260ff851690820152606081018690526080810185905260a0016020604051602081039080840390855afa15801561103f573d6000803e3d6000fd5b505050602060405103516001600160a01b0316866001600160a01b031614905095945050505050565b610a5e828260405180602001604052806000815250611744565b61108b82610ee3565b6110ee5760405162461bcd60e51b815260206004820152602e60248201527f45524337323155524953746f726167653a2055524920736574206f66206e6f6e60448201526d32bc34b9ba32b73a103a37b5b2b760911b60648201526084016105e7565b6000828152600660209081526040909120825161072f92840190611b93565b600061111882610ee3565b6111795760405162461bcd60e51b815260206004820152602c60248201527f4552433732313a206f70657261746f7220717565727920666f72206e6f6e657860448201526b34b9ba32b73a103a37b5b2b760a11b60648201526084016105e7565b600061118483610ab5565b9050806001600160a01b0316846001600160a01b031614806111bf5750836001600160a01b03166111b48461057f565b6001600160a01b0316145b806111cf57506111cf8185610d5a565b949350505050565b826001600160a01b03166111ea82610ab5565b6001600160a01b0316146112525760405162461bcd60e51b815260206004820152602960248201527f4552433732313a207472616e73666572206f6620746f6b656e2074686174206960448201526839903737ba1037bbb760b91b60648201526084016105e7565b6001600160a01b0382166112b45760405162461bcd60e51b8152602060048201526024808201527f4552433732313a207472616e7366657220746f20746865207a65726f206164646044820152637265737360e01b60648201526084016105e7565b6112bf600082610f0a565b6001600160a01b03831660009081526003602052604081208054600192906112e89084906120e2565b90915550506001600160a01b0382166000908152600360205260408120805460019290611316908490612042565b909155505060008181526002602052604080822080546001600160a01b0319166001600160a01b0386811691821790925591518493918716917fddf252ad1be2c89b69c2b068fc378daa952ba7f163c4a11628f55a4df523b3ef91a4505050565b600780546001600160a01b038381166001600160a01b0319831681179093556040519116919082907f8be0079c531659141344cd1fd0a4f28419497f9722a3daafe3b4186f6b6457e090600090a35050565b816001600160a01b0316836001600160a01b0316141561142b5760405162461bcd60e51b815260206004820152601960248201527f4552433732313a20617070726f766520746f2063616c6c65720000000000000060448201526064016105e7565b6001600160a01b03838116600081815260056020908152604080832094871680845294825291829020805460ff191686151590811790915591519182527f17307eab39ab6107e8899845ad3d59bd9653f200f220920489ca2b5937696c31910160405180910390a3505050565b6114a38484846111d7565b6114af84848484611777565b610d025760405162461bcd60e51b81526004016105e790612165565b60606114d682610ee3565b61153c5760405162461bcd60e51b815260206004820152603160248201527f45524337323155524953746f726167653a2055524920717565727920666f72206044820152703737b732bc34b9ba32b73a103a37b5b2b760791b60648201526084016105e7565b6000828152600660205260408120805461155590611ff1565b80601f016020809104026020016040519081016040528092919081815260200182805461158190611ff1565b80156115ce5780601f106115a3576101008083540402835291602001916115ce565b820191906000526020600020905b8154815290600101906020018083116115b157829003601f168201915b5050505050905060006115ec60408051602081019091526000815290565b90508051600014156115ff575092915050565b8151156116315780826040516020016116199291906121b7565b60405160208183030381529060405292505050919050565b6111cf8461188b565b60003330141561169157600080368080601f0160208091040260200160405190810160405280939291908181526020018383808284376000920191909152505050503601516001600160a01b031691506116949050565b50335b90565b600060405180608001604052806043815260200161229560439139805160209182012083518483015160408087015180519086012090516116f7950193845260208401929092526001600160a01b03166040830152606082015260800190565b604051602081830303815290604052805190602001209050919050565b600061171f60085490565b60405161190160f01b60208201526022810191909152604281018390526062016116f7565b61174e8383611962565b61175b6000848484611777565b61072f5760405162461bcd60e51b81526004016105e790612165565b60006001600160a01b0384163b1561188057836001600160a01b031663150b7a026117a0610f00565b8786866040518563ffffffff1660e01b81526004016117c294939291906121e6565b602060405180830381600087803b1580156117dc57600080fd5b505af192505050801561180c575060408051601f3d908101601f1916820190925261180991810190612223565b60015b611866573d80801561183a576040519150601f19603f3d011682016040523d82523d6000602084013e61183f565b606091505b50805161185e5760405162461bcd60e51b81526004016105e790612165565b805181602001fd5b6001600160e01b031916630a85bd0160e11b1490506111cf565b506001949350505050565b606061189682610ee3565b6118fa5760405162461bcd60e51b815260206004820152602f60248201527f4552433732314d657461646174613a2055524920717565727920666f72206e6f60448201526e3732bc34b9ba32b73a103a37b5b2b760891b60648201526084016105e7565b600061191160408051602081019091526000815290565b905060008151116119315760405180602001604052806000815250610df2565b8061193b84611a95565b60405160200161194c9291906121b7565b6040516020818303038152906040529392505050565b6001600160a01b0382166119b85760405162461bcd60e51b815260206004820181905260248201527f4552433732313a206d696e7420746f20746865207a65726f206164647265737360448201526064016105e7565b6119c181610ee3565b15611a0e5760405162461bcd60e51b815260206004820152601c60248201527f4552433732313a20746f6b656e20616c7265616479206d696e7465640000000060448201526064016105e7565b6001600160a01b0382166000908152600360205260408120805460019290611a37908490612042565b909155505060008181526002602052604080822080546001600160a01b0319166001600160a01b03861690811790915590518392907fddf252ad1be2c89b69c2b068fc378daa952ba7f163c4a11628f55a4df523b3ef908290a45050565b606081611ab95750506040805180820190915260018152600360fc1b602082015290565b8160005b8115611ae35780611acd816120f9565b9150611adc9050600a83612256565b9150611abd565b60008167ffffffffffffffff811115611afe57611afe611d29565b6040519080825280601f01601f191660200182016040528015611b28576020820181803683370190505b5090505b84156111cf57611b3d6001836120e2565b9150611b4a600a8661226a565b611b55906030612042565b60f81b818381518110611b6a57611b6a61227e565b60200101906001600160f81b031916908160001a905350611b8c600a86612256565b9450611b2c565b828054611b9f90611ff1565b90600052602060002090601f016020900481019282611bc15760008555611c07565b82601f10611bda57805160ff1916838001178555611c07565b82800160010185558215611c07579182015b82811115611c07578251825591602001919060010190611bec565b50611c13929150611c17565b5090565b5b80821115611c135760008155600101611c18565b6001600160e01b031981168114610ee057600080fd5b600060208284031215611c5457600080fd5b8135610df281611c2c565b60005b83811015611c7a578181015183820152602001611c62565b83811115610d025750506000910152565b60008151808452611ca3816020860160208601611c5f565b601f01601f19169290920160200192915050565b602081526000610df26020830184611c8b565b600060208284031215611cdc57600080fd5b5035919050565b80356001600160a01b0381168114611cfa57600080fd5b919050565b60008060408385031215611d1257600080fd5b611d1b83611ce3565b946020939093013593505050565b634e487b7160e01b600052604160045260246000fd5b600067ffffffffffffffff80841115611d5a57611d5a611d29565b604051601f8501601f19908116603f01168101908282118183101715611d8257611d82611d29565b81604052809350858152868686011115611d9b57600080fd5b858560208301376000602087830101525050509392505050565b600082601f830112611dc657600080fd5b610df283833560208501611d3f565b600080600080600060a08688031215611ded57600080fd5b611df686611ce3565b9450602086013567ffffffffffffffff811115611e1257600080fd5b611e1e88828901611db5565b9450506040860135925060608601359150608086013560ff81168114611e4357600080fd5b809150509295509295909350565b60008060408385031215611e6457600080fd5b823567ffffffffffffffff811115611e7b57600080fd5b8301601f81018513611e8c57600080fd5b611e9b85823560208401611d3f565b925050611eaa60208401611ce3565b90509250929050565b600080600060608486031215611ec857600080fd5b611ed184611ce3565b9250611edf60208501611ce3565b9150604084013590509250925092565b600060208284031215611f0157600080fd5b610df282611ce3565b80358015158114611cfa57600080fd5b60008060408385031215611f2d57600080fd5b611f3683611ce3565b9150611eaa60208401611f0a565b600060208284031215611f5657600080fd5b610df282611f0a565b60008060008060808587031215611f7557600080fd5b611f7e85611ce3565b9350611f8c60208601611ce3565b925060408501359150606085013567ffffffffffffffff811115611faf57600080fd5b611fbb87828801611db5565b91505092959194509250565b60008060408385031215611fda57600080fd5b611fe383611ce3565b9150611eaa60208401611ce3565b600181811c9082168061200557607f821691505b6020821081141561202657634e487b7160e01b600052602260045260246000fd5b50919050565b634e487b7160e01b600052601160045260246000fd5b600082198211156120555761205561202c565b500190565b6001600160a01b0384811682528316602082015260606040820181905260009061208690830184611c8b565b95945050505050565b600083516120a1818460208801611c5f565b60609390931b6bffffffffffffffffffffffff19169190920190815260140192915050565b600082516120d8818460208701611c5f565b9190910192915050565b6000828210156120f4576120f461202c565b500390565b600060001982141561210d5761210d61202c565b5060010190565b60208082526031908201527f4552433732313a207472616e736665722063616c6c6572206973206e6f74206f6040820152701ddb995c881b9bdc88185c1c1c9bdd9959607a1b606082015260800190565b60208082526032908201527f4552433732313a207472616e7366657220746f206e6f6e20455243373231526560408201527131b2b4bb32b91034b6b83632b6b2b73a32b960711b606082015260800190565b600083516121c9818460208801611c5f565b8351908301906121dd818360208801611c5f565b01949350505050565b6001600160a01b038581168252841660208201526040810183905260806060820181905260009061221990830184611c8b565b9695505050505050565b60006020828403121561223557600080fd5b8151610df281611c2c565b634e487b7160e01b600052601260045260246000fd5b60008261226557612265612240565b500490565b60008261227957612279612240565b500690565b634e487b7160e01b600052603260045260246000fdfe4d6574615472616e73616374696f6e2875696e74323536206e6f6e63652c616464726573732066726f6d2c62797465732066756e6374696f6e5369676e617475726529a2646970667358221220ae7a1e6d94a0c55deb94db33cd876b00eb02b1ed5a95dad6b3bbf0bdb4c8e38764736f6c63430008090033454950373132446f6d61696e28737472696e67206e616d652c737472696e672076657273696f6e2c6164647265737320766572696679696e67436f6e74726163742c627974657333322073616c7429",
  "linkReferences": {},
  "deployedLinkReferences": {}
}