{
  "_format": "hh-sol-artifact-1",
  "contractName": "NFT",
  "sourceName": "contracts/NFT.sol",
  "abi": [
    {
      "inputs": [
        {
          "internalType": "string",
          "name": "_name",
          "type": "string"
        },
        {
          "internalType": "string",
          "name": "_symbol",
          "type": "string"
        },
        {
          "internalType": "address",
          "name": "_owner",
          "type": "address"
        }
      ],
      "stateMutability": "nonpayable",
      "type": "constructor"
    },
    {
      "anonymous": false,
      "inputs": [
        {
          "indexed": true,
          "internalType": "address",
          "name": "owner",
          "type": "address"
        },
        {
          "indexed": true,
          "internalType": "address",
          "name": "approved",
          "type": "address"
        },
        {
          "indexed": true,
          "internalType": "uint256",
          "name": "tokenId",
          "type": "uint256"
        }
      ],
      "name": "Approval",
      "type": "event"
    },
    {
      "anonymous": false,
      "inputs": [
        {
          "indexed": true,
          "internalType": "address",
          "name": "owner",
          "type": "address"
        },
        {
          "indexed": true,
          "internalType": "address",
          "name": "operator",
          "type": "address"
        },
        {
          "indexed": false,
          "internalType": "bool",
          "name": "approved",
          "type": "bool"
        }
      ],
      "name": "ApprovalForAll",
      "type": "event"
    },
    {
      "anonymous": false,
      "inputs": [
        {
          "indexed": false,
          "internalType": "address",
          "name": "userAddress",
          "type": "address"
        },
        {
          "indexed": false,
          "internalType": "address payable",
          "name": "relayerAddress",
          "type": "address"
        },
        {
          "indexed": false,
          "internalType": "bytes",
          "name": "functionSignature",
          "type": "bytes"
        }
      ],
      "name": "MetaTransactionExecuted",
      "type": "event"
    },
    {
      "anonymous": false,
      "inputs": [
        {
          "indexed": true,
          "internalType": "address",
          "name": "previousOwner",
          "type": "address"
        },
        {
          "indexed": true,
          "internalType": "address",
          "name": "newOwner",
          "type": "address"
        }
      ],
      "name": "OwnershipTransferred",
      "type": "event"
    },
    {
      "anonymous": false,
      "inputs": [
        {
          "indexed": true,
          "internalType": "address",
          "name": "from",
          "type": "address"
        },
        {
          "indexed": true,
          "internalType": "address",
          "name": "to",
          "type": "address"
        },
        {
          "indexed": true,
          "internalType": "uint256",
          "name": "tokenId",
          "type": "uint256"
        }
      ],
      "name": "SimulatedTransfer",
      "type": "event"
    },
    {
      "anonymous": false,
      "inputs": [
        {
          "indexed": true,
          "internalType": "address",
          "name": "from",
          "type": "address"
        },
        {
          "indexed": true,
          "internalType": "address",
          "name": "to",
          "type": "address"
        },
        {
          "indexed": true,
          "internalType": "uint256",
          "name": "tokenId",
          "type": "uint256"
        }
      ],
      "name": "Transfer",
      "type": "event"
    },
    {
      "inputs": [],
      "name": "ERC712_VERSION",
      "outputs": [
        {
          "internalType": "string",
          "name": "",
          "type": "string"
        }
      ],
      "stateMutability": "view",
      "type": "function"
    },
    {
      "inputs": [
        {
          "internalType": "address",
          "name": "to",
          "type": "address"
        },
        {
          "internalType": "uint256",
          "name": "tokenId",
          "type": "uint256"
        }
      ],
      "name": "approve",
      "outputs": [],
      "stateMutability": "nonpayable",
      "type": "function"
    },
    {
      "inputs": [
        {
          "internalType": "address",
          "name": "owner",
          "type": "address"
        }
      ],
      "name": "balanceOf",
      "outputs": [
        {
          "internalType": "uint256",
          "name": "",
          "type": "uint256"
        }
      ],
      "stateMutability": "view",
      "type": "function"
    },
    {
      "inputs": [
        {
          "internalType": "uint256",
          "name": "tokenId",
          "type": "uint256"
        }
      ],
      "name": "burn",
      "outputs": [],
      "stateMutability": "nonpayable",
      "type": "function"
    },
    {
      "inputs": [],
      "name": "burnedSupply",
      "outputs": [
        {
          "internalType": "uint256",
          "name": "",
          "type": "uint256"
        }
      ],
      "stateMutability": "view",
      "type": "function"
    },
    {
      "inputs": [],
      "name": "currentSupply",
      "outputs": [
        {
          "internalType": "uint256",
          "name": "",
          "type": "uint256"
        }
      ],
      "stateMutability": "view",
      "type": "function"
    },
    {
      "inputs": [
        {
          "internalType": "address",
          "name": "userAddress",
          "type": "address"
        },
        {
          "internalType": "bytes",
          "name": "functionSignature",
          "type": "bytes"
        },
        {
          "internalType": "bytes32",
          "name": "sigR",
          "type": "bytes32"
        },
        {
          "internalType": "bytes32",
          "name": "sigS",
          "type": "bytes32"
        },
        {
          "internalType": "uint8",
          "name": "sigV",
          "type": "uint8"
        }
      ],
      "name": "executeMetaTransaction",
      "outputs": [
        {
          "internalType": "bytes",
          "name": "",
          "type": "bytes"
        }
      ],
      "stateMutability": "payable",
      "type": "function"
    },
    {
      "inputs": [
        {
          "internalType": "uint256",
          "name": "tokenId",
          "type": "uint256"
        }
      ],
      "name": "getApproved",
      "outputs": [
        {
          "internalType": "address",
          "name": "",
          "type": "address"
        }
      ],
      "stateMutability": "view",
      "type": "function"
    },
    {
      "inputs": [],
      "name": "getChainId",
      "outputs": [
        {
          "internalType": "uint256",
          "name": "",
          "type": "uint256"
        }
      ],
      "stateMutability": "view",
      "type": "function"
    },
    {
      "inputs": [],
      "name": "getDomainSeperator",
      "outputs": [
        {
          "internalType": "bytes32",
          "name": "",
          "type": "bytes32"
        }
      ],
      "stateMutability": "view",
      "type": "function"
    },
    {
      "inputs": [
        {
          "internalType": "address",
          "name": "user",
          "type": "address"
        }
      ],
      "name": "getNonce",
      "outputs": [
        {
          "internalType": "uint256",
          "name": "nonce",
          "type": "uint256"
        }
      ],
      "stateMutability": "view",
      "type": "function"
    },
    {
      "inputs": [
        {
          "internalType": "address",
          "name": "_owner",
          "type": "address"
        },
        {
          "internalType": "address",
          "name": "_operator",
          "type": "address"
        }
      ],
      "name": "isApprovedForAll",
      "outputs": [
        {
          "internalType": "bool",
          "name": "isOperator",
          "type": "bool"
        }
      ],
      "stateMutability": "view",
      "type": "function"
    },
    {
      "inputs": [
        {
          "internalType": "address",
          "name": "_mod",
          "type": "address"
        }
      ],
      "name": "isApprovedMod",
      "outputs": [
        {
          "internalType": "bool",
          "name": "",
          "type": "bool"
        }
      ],
      "stateMutability": "view",
      "type": "function"
    },
    {
      "inputs": [
        {
          "internalType": "string",
          "name": "_tokenURI",
          "type": "string"
        },
        {
          "internalType": "address",
          "name": "artist",
          "type": "address"
        }
      ],
      "name": "mint",
      "outputs": [],
      "stateMutability": "nonpayable",
      "type": "function"
    },
    {
      "inputs": [],
      "name": "name",
      "outputs": [
        {
          "internalType": "string",
          "name": "",
          "type": "string"
        }
      ],
      "stateMutability": "view",
      "type": "function"
    },
    {
      "inputs": [],
      "name": "owner",
      "outputs": [
        {
          "internalType": "address",
          "name": "",
          "type": "address"
        }
      ],
      "stateMutability": "view",
      "type": "function"
    },
    {
      "inputs": [
        {
          "internalType": "uint256",
          "name": "tokenId",
          "type": "uint256"
        }
      ],
      "name": "ownerOf",
      "outputs": [
        {
          "internalType": "address",
          "name": "",
          "type": "address"
        }
      ],
      "stateMutability": "view",
      "type": "function"
    },
    {
      "inputs": [],
      "name": "renounceOwnership",
      "outputs": [],
      "stateMutability": "nonpayable",
      "type": "function"
    },
    {
      "inputs": [
        {
          "internalType": "address",
          "name": "from",
          "type": "address"
        },
        {
          "internalType": "address",
          "name": "to",
          "type": "address"
        },
        {
          "internalType": "uint256",
          "name": "tokenId",
          "type": "uint256"
        }
      ],
      "name": "safeTransferFrom",
      "outputs": [],
      "stateMutability": "nonpayable",
      "type": "function"
    },
    {
      "inputs": [
        {
          "internalType": "address",
          "name": "from",
          "type": "address"
        },
        {
          "internalType": "address",
          "name": "to",
          "type": "address"
        },
        {
          "internalType": "uint256",
          "name": "tokenId",
          "type": "uint256"
        },
        {
          "internalType": "bytes",
          "name": "_data",
          "type": "bytes"
        }
      ],
      "name": "safeTransferFrom",
      "outputs": [],
      "stateMutability": "nonpayable",
      "type": "function"
    },
    {
      "inputs": [
        {
          "internalType": "address",
          "name": "operator",
          "type": "address"
        },
        {
          "internalType": "bool",
          "name": "approved",
          "type": "bool"
        }
      ],
      "name": "setApprovalForAll",
      "outputs": [],
      "stateMutability": "nonpayable",
      "type": "function"
    },
    {
      "inputs": [
        {
          "internalType": "address",
          "name": "_mod",
          "type": "address"
        },
        {
          "internalType": "bool",
          "name": "_approved",
          "type": "bool"
        }
      ],
      "name": "setApprovedMod",
      "outputs": [],
      "stateMutability": "nonpayable",
      "type": "function"
    },
    {
      "inputs": [
        {
          "internalType": "bool",
          "name": "_revealOnTransfer",
          "type": "bool"
        }
      ],
      "name": "setRevealOnTransfer",
      "outputs": [],
      "stateMutability": "nonpayable",
      "type": "function"
    },
    {
      "inputs": [
        {
          "internalType": "bytes4",
          "name": "interfaceId",
          "type": "bytes4"
        }
      ],
      "name": "supportsInterface",
      "outputs": [
        {
          "internalType": "bool",
          "name": "",
          "type": "bool"
        }
      ],
      "stateMutability": "view",
      "type": "function"
    },
    {
      "inputs": [],
      "name": "symbol",
      "outputs": [
        {
          "internalType": "string",
          "name": "",
          "type": "string"
        }
      ],
      "stateMutability": "view",
      "type": "function"
    },
    {
      "inputs": [
        {
          "internalType": "uint256",
          "name": "tokenId",
          "type": "uint256"
        }
      ],
      "name": "tokenURI",
      "outputs": [
        {
          "internalType": "string",
          "name": "",
          "type": "string"
        }
      ],
      "stateMutability": "view",
      "type": "function"
    },
    {
      "inputs": [],
      "name": "totalSupply",
      "outputs": [
        {
          "internalType": "uint256",
          "name": "",
          "type": "uint256"
        }
      ],
      "stateMutability": "view",
      "type": "function"
    },
    {
      "inputs": [
        {
          "internalType": "address",
          "name": "from",
          "type": "address"
        },
        {
          "internalType": "address",
          "name": "to",
          "type": "address"
        },
        {
          "internalType": "uint256",
          "name": "tokenId",
          "type": "uint256"
        }
      ],
      "name": "transferFrom",
      "outputs": [],
      "stateMutability": "nonpayable",
      "type": "function"
    },
    {
      "inputs": [
        {
          "internalType": "address",
          "name": "newOwner",
          "type": "address"
        }
      ],
      "name": "transferOwnership",
      "outputs": [],
      "stateMutability": "nonpayable",
      "type": "function"
    }
  ],
  "bytecode": "0x60806040526007805460ff60a01b191690556000600b55600f805460ff191690553480156200002d57600080fd5b5060405162002abf38038062002abf833981016040819052620000509162000399565b80838381600090805190602001906200006b92919062000226565b5080516200008190600190602084019062000226565b5050506200009581620000c160201b60201c565b506001600a55600c80546001600160a01b03191633179055620000b88362000113565b50505062000463565b600780546001600160a01b038381166001600160a01b0319831681179093556040519116919082907f8be0079c531659141344cd1fd0a4f28419497f9722a3daafe3b4186f6b6457e090600090a35050565b600754600160a01b900460ff1615620001635760405162461bcd60e51b815260206004820152600e60248201526d185b1c9958591e481a5b9a5d195960921b604482015260640160405180910390fd5b6200016e8162000184565b506007805460ff60a01b1916600160a01b179055565b6040518060800160405280604f815260200162002a70604f9139805160209182012082519282019290922060408051808201825260018152603160f81b90840152805180840194909452838101919091527fc89efdaa54c0f20c7adf612882df0950f5a951637e0307cdcb4c672f298b8bc660608401523060808401524660a0808501919091528151808503909101815260c090930190528151910120600855565b828054620002349062000426565b90600052602060002090601f016020900481019282620002585760008555620002a3565b82601f106200027357805160ff1916838001178555620002a3565b82800160010185558215620002a3579182015b82811115620002a357825182559160200191906001019062000286565b50620002b1929150620002b5565b5090565b5b80821115620002b15760008155600101620002b6565b634e487b7160e01b600052604160045260246000fd5b600082601f830112620002f457600080fd5b81516001600160401b0380821115620003115762000311620002cc565b604051601f8301601f19908116603f011681019082821181831017156200033c576200033c620002cc565b816040528381526020925086838588010111156200035957600080fd5b600091505b838210156200037d57858201830151818301840152908201906200035e565b838211156200038f5760008385830101525b9695505050505050565b600080600060608486031215620003af57600080fd5b83516001600160401b0380821115620003c757600080fd5b620003d587838801620002e2565b94506020860151915080821115620003ec57600080fd5b50620003fb86828701620002e2565b604086015190935090506001600160a01b03811681146200041b57600080fd5b809150509250925092565b600181811c908216806200043b57607f821691505b602082108114156200045d57634e487b7160e01b600052602260045260246000fd5b50919050565b6125fd80620004736000396000f3fe6080604052600436106101c25760003560e01c806342842e0e116100f75780638da5cb5b11610095578063b88d4fde11610064578063b88d4fde14610506578063c87b56dd14610526578063e985e9c514610546578063f2fde38b1461056657600080fd5b80638da5cb5b1461049357806395d89b41146104b1578063a22cb465146104c6578063b223920b146104e657600080fd5b80636352211e116100d15780636352211e1461042857806370a0823114610448578063715018a614610468578063771282f61461047d57600080fd5b806342842e0e146103d257806342966c68146103f257806355d0a1d01461041257600080fd5b806318ed43141161016457806322397f681161013e57806322397f681461033057806323b872dd146103695780632d0335ab146103895780633408e470146103bf57600080fd5b806318ed4314146102db5780631c351a9d146102fb57806320379ee51461031b57600080fd5b8063095ea7b3116101a0578063095ea7b3146102565780630c53c51c146102785780630f7e59701461028b57806318160ddd146102b857600080fd5b806301ffc9a7146101c757806306fdde03146101fc578063081812fc1461021e575b600080fd5b3480156101d357600080fd5b506101e76101e2366004611f0d565b610586565b60405190151581526020015b60405180910390f35b34801561020857600080fd5b506102116105d8565b6040516101f39190611f82565b34801561022a57600080fd5b5061023e610239366004611f95565b61066a565b6040516001600160a01b0390911681526020016101f3565b34801561026257600080fd5b50610276610271366004611fca565b6106f7565b005b6102116102863660046120a0565b61081f565b34801561029757600080fd5b50610211604051806040016040528060018152602001603160f81b81525081565b3480156102c457600080fd5b506102cd610a09565b6040519081526020016101f3565b3480156102e757600080fd5b506102766102f636600461212c565b610a2c565b34801561030757600080fd5b5061027661031636600461215f565b610a81565b34801561032757600080fd5b506008546102cd565b34801561033c57600080fd5b506101e761034b3660046121b8565b6001600160a01b03166000908152600e602052604090205460ff1690565b34801561037557600080fd5b506102766103843660046121d3565b610b91565b34801561039557600080fd5b506102cd6103a43660046121b8565b6001600160a01b031660009081526009602052604090205490565b3480156103cb57600080fd5b50466102cd565b3480156103de57600080fd5b506102766103ed3660046121d3565b610bc9565b3480156103fe57600080fd5b5061027661040d366004611f95565b610be4565b34801561041e57600080fd5b506102cd600b5481565b34801561043457600080fd5b5061023e610443366004611f95565b610c82565b34801561045457600080fd5b506102cd6104633660046121b8565b610cf9565b34801561047457600080fd5b50610276610d80565b34801561048957600080fd5b506102cd600a5481565b34801561049f57600080fd5b506007546001600160a01b031661023e565b3480156104bd57600080fd5b50610211610e05565b3480156104d257600080fd5b506102766104e136600461212c565b610e14565b3480156104f257600080fd5b5061027661050136600461220f565b610e26565b34801561051257600080fd5b5061027661052136600461222a565b610e78565b34801561053257600080fd5b50610211610541366004611f95565b610eb7565b34801561055257600080fd5b506101e7610561366004612292565b610f09565b34801561057257600080fd5b506102766105813660046121b8565b610fb3565b60006001600160e01b031982166380ac58cd60e01b14806105b757506001600160e01b03198216635b5e139f60e01b145b806105d257506301ffc9a760e01b6001600160e01b03198316145b92915050565b6060600080546105e7906122bc565b80601f0160208091040260200160405190810160405280929190818152602001828054610613906122bc565b80156106605780601f1061063557610100808354040283529160200191610660565b820191906000526020600020905b81548152906001019060200180831161064357829003601f168201915b5050505050905090565b60006106758261109d565b6106db5760405162461bcd60e51b815260206004820152602c60248201527f4552433732313a20617070726f76656420717565727920666f72206e6f6e657860448201526b34b9ba32b73a103a37b5b2b760a11b60648201526084015b60405180910390fd5b506000908152600460205260409020546001600160a01b031690565b600061070282610c82565b9050806001600160a01b0316836001600160a01b031614156107705760405162461bcd60e51b815260206004820152602160248201527f4552433732313a20617070726f76616c20746f2063757272656e74206f776e656044820152603960f91b60648201526084016106d2565b806001600160a01b03166107826110ba565b6001600160a01b0316148061079e575061079e816105616110ba565b6108105760405162461bcd60e51b815260206004820152603860248201527f4552433732313a20617070726f76652063616c6c6572206973206e6f74206f7760448201527f6e6572206e6f7220617070726f76656420666f7220616c6c000000000000000060648201526084016106d2565b61081a83836110c4565b505050565b60408051606081810183526001600160a01b0388166000818152600960209081529085902054845283015291810186905261085d8782878787611132565b6108b35760405162461bcd60e51b815260206004820152602160248201527f5369676e657220616e64207369676e617475726520646f206e6f74206d6174636044820152600d60fb1b60648201526084016106d2565b6001600160a01b0387166000908152600960205260409020546108d790600161230d565b6001600160a01b0388166000908152600960205260409081902091909155517f5845892132946850460bff5a0083f71031bc5bf9aadcd40f1de79423eac9b10b9061092790899033908a90612325565b60405180910390a1600080306001600160a01b0316888a60405160200161094f92919061235a565b60408051601f198184030181529082905261096991612391565b6000604051808303816000865af19150503d80600081146109a6576040519150601f19603f3d011682016040523d82523d6000602084013e6109ab565b606091505b5091509150816109fd5760405162461bcd60e51b815260206004820152601c60248201527f46756e6374696f6e2063616c6c206e6f74207375636365737366756c0000000060448201526064016106d2565b98975050505050505050565b60006001600b54600a54610a1d91906123ad565b610a2791906123ad565b905090565b600c546001600160a01b03163314610a565760405162461bcd60e51b81526004016106d2906123c4565b6001600160a01b03919091166000908152600e60205260409020805460ff1916911515919091179055565b600c546001600160a01b0316331480610aa457506007546001600160a01b031633145b610ac05760405162461bcd60e51b81526004016106d2906123c4565b600d82604051610ad09190612391565b908152602001604051809103902054600014610b3e57600d82604051610af69190612391565b90815260405190819003602001812054906001600160a01b0383169081907ff9492de4663ad3ea04e979f77c3750740def7774be5fd55505b940633dd3d9b190600090a45050565b600a54610b4b8282611222565b610b55818461123c565b80600d84604051610b669190612391565b90815260405190819003602001902055600a8054906000610b86836123e9565b9190505550505b5050565b610ba2610b9c6110ba565b826112c7565b610bbe5760405162461bcd60e51b81526004016106d290612404565b61081a838383611391565b61081a83838360405180602001604052806000815250610e78565b610bf6610bf082610c82565b33610f09565b610c315760405162461bcd60e51b815260206004820152600c60248201526b139bdd08185c1c1c9bdd995960a21b60448201526064016106d2565b6000610c3c82610eb7565b9050610c4782611531565b600b8054906000610c57836123e9565b91905055506000600d82604051610c6e9190612391565b908152604051908190036020019020555050565b6000818152600260205260408120546001600160a01b0316806105d25760405162461bcd60e51b815260206004820152602960248201527f4552433732313a206f776e657220717565727920666f72206e6f6e657869737460448201526832b73a103a37b5b2b760b91b60648201526084016106d2565b60006001600160a01b038216610d645760405162461bcd60e51b815260206004820152602a60248201527f4552433732313a2062616c616e636520717565727920666f7220746865207a65604482015269726f206164647265737360b01b60648201526084016106d2565b506001600160a01b031660009081526003602052604090205490565b610d886110ba565b6001600160a01b0316610da36007546001600160a01b031690565b6001600160a01b031614610df95760405162461bcd60e51b815260206004820181905260248201527f4f776e61626c653a2063616c6c6572206973206e6f7420746865206f776e657260448201526064016106d2565b610e036000611571565b565b6060600180546105e7906122bc565b610b8d610e1f6110ba565b83836115c3565b600c546001600160a01b0316331480610e4957506007546001600160a01b031633145b610e655760405162461bcd60e51b81526004016106d2906123c4565b600f805460ff1916911515919091179055565b610e89610e836110ba565b836112c7565b610ea55760405162461bcd60e51b81526004016106d290612404565b610eb184848484611692565b50505050565b600f5460609060ff168015610ee757506007546001600160a01b0316610edc83610c82565b6001600160a01b0316145b15610f0057505060408051602081019091526000815290565b6105d2826116c5565b60006001600160a01b03821673d47e14dd9b98411754f722b4c4074e14752ada7c1480610f5257506001600160a01b0382167358807bad0b376efc12f5ad86aac70e78ed67deae145b80610f7557506001600160a01b0382166000908152600e602052604090205460ff165b15610f82575060016105d2565b6001600160a01b0380841660009081526005602090815260408083209386168352929052205460ff165b9392505050565b610fbb6110ba565b6001600160a01b0316610fd66007546001600160a01b031690565b6001600160a01b03161461102c5760405162461bcd60e51b815260206004820181905260248201527f4f776e61626c653a2063616c6c6572206973206e6f7420746865206f776e657260448201526064016106d2565b6001600160a01b0381166110915760405162461bcd60e51b815260206004820152602660248201527f4f776e61626c653a206e6577206f776e657220697320746865207a65726f206160448201526564647265737360d01b60648201526084016106d2565b61109a81611571565b50565b6000908152600260205260409020546001600160a01b0316151590565b6000610a27611834565b600081815260046020526040902080546001600160a01b0319166001600160a01b03841690811790915581906110f982610c82565b6001600160a01b03167f8c5be1e5ebec7d5bd14f71427d1e84f3dd0314c0f7b2291e5b200ac8c7c3b92560405160405180910390a45050565b60006001600160a01b0386166111985760405162461bcd60e51b815260206004820152602560248201527f4e61746976654d6574615472616e73616374696f6e3a20494e56414c49445f5360448201526424a3a722a960d91b60648201526084016106d2565b60016111ab6111a687611891565b61190e565b6040805160008152602081018083529290925260ff851690820152606081018690526080810185905260a0016020604051602081039080840390855afa1580156111f9573d6000803e3d6000fd5b505050602060405103516001600160a01b0316866001600160a01b031614905095945050505050565b610b8d82826040518060200160405280600081525061193e565b6112458261109d565b6112a85760405162461bcd60e51b815260206004820152602e60248201527f45524337323155524953746f726167653a2055524920736574206f66206e6f6e60448201526d32bc34b9ba32b73a103a37b5b2b760911b60648201526084016106d2565b6000828152600660209081526040909120825161081a92840190611e28565b60006112d28261109d565b6113335760405162461bcd60e51b815260206004820152602c60248201527f4552433732313a206f70657261746f7220717565727920666f72206e6f6e657860448201526b34b9ba32b73a103a37b5b2b760a11b60648201526084016106d2565b600061133e83610c82565b9050806001600160a01b0316846001600160a01b031614806113795750836001600160a01b031661136e8461066a565b6001600160a01b0316145b8061138957506113898185610f09565b949350505050565b826001600160a01b03166113a482610c82565b6001600160a01b03161461140c5760405162461bcd60e51b815260206004820152602960248201527f4552433732313a207472616e73666572206f6620746f6b656e2074686174206960448201526839903737ba1037bbb760b91b60648201526084016106d2565b6001600160a01b03821661146e5760405162461bcd60e51b8152602060048201526024808201527f4552433732313a207472616e7366657220746f20746865207a65726f206164646044820152637265737360e01b60648201526084016106d2565b6114796000826110c4565b6001600160a01b03831660009081526003602052604081208054600192906114a29084906123ad565b90915550506001600160a01b03821660009081526003602052604081208054600192906114d090849061230d565b909155505060008181526002602052604080822080546001600160a01b0319166001600160a01b0386811691821790925591518493918716917fddf252ad1be2c89b69c2b068fc378daa952ba7f163c4a11628f55a4df523b3ef91a4505050565b61153a81611971565b60008181526006602052604090208054611553906122bc565b15905061109a57600081815260066020526040812061109a91611eac565b600780546001600160a01b038381166001600160a01b0319831681179093556040519116919082907f8be0079c531659141344cd1fd0a4f28419497f9722a3daafe3b4186f6b6457e090600090a35050565b816001600160a01b0316836001600160a01b031614156116255760405162461bcd60e51b815260206004820152601960248201527f4552433732313a20617070726f766520746f2063616c6c65720000000000000060448201526064016106d2565b6001600160a01b03838116600081815260056020908152604080832094871680845294825291829020805460ff191686151590811790915591519182527f17307eab39ab6107e8899845ad3d59bd9653f200f220920489ca2b5937696c31910160405180910390a3505050565b61169d848484611391565b6116a984848484611a0c565b610eb15760405162461bcd60e51b81526004016106d290612455565b60606116d08261109d565b6117365760405162461bcd60e51b815260206004820152603160248201527f45524337323155524953746f726167653a2055524920717565727920666f72206044820152703737b732bc34b9ba32b73a103a37b5b2b760791b60648201526084016106d2565b6000828152600660205260408120805461174f906122bc565b80601f016020809104026020016040519081016040528092919081815260200182805461177b906122bc565b80156117c85780601f1061179d576101008083540402835291602001916117c8565b820191906000526020600020905b8154815290600101906020018083116117ab57829003601f168201915b5050505050905060006117e660408051602081019091526000815290565b90508051600014156117f9575092915050565b81511561182b5780826040516020016118139291906124a7565b60405160208183030381529060405292505050919050565b61138984611b20565b60003330141561188b57600080368080601f0160208091040260200160405190810160405280939291908181526020018383808284376000920191909152505050503601516001600160a01b0316915061188e9050565b50335b90565b600060405180608001604052806043815260200161258560439139805160209182012083518483015160408087015180519086012090516118f1950193845260208401929092526001600160a01b03166040830152606082015260800190565b604051602081830303815290604052805190602001209050919050565b600061191960085490565b60405161190160f01b60208201526022810191909152604281018390526062016118f1565b6119488383611bf7565b6119556000848484611a0c565b61081a5760405162461bcd60e51b81526004016106d290612455565b600061197c82610c82565b90506119896000836110c4565b6001600160a01b03811660009081526003602052604081208054600192906119b29084906123ad565b909155505060008281526002602052604080822080546001600160a01b0319169055518391906001600160a01b038416907fddf252ad1be2c89b69c2b068fc378daa952ba7f163c4a11628f55a4df523b3ef908390a45050565b60006001600160a01b0384163b15611b1557836001600160a01b031663150b7a02611a356110ba565b8786866040518563ffffffff1660e01b8152600401611a5794939291906124d6565b602060405180830381600087803b158015611a7157600080fd5b505af1925050508015611aa1575060408051601f3d908101601f19168201909252611a9e91810190612513565b60015b611afb573d808015611acf576040519150601f19603f3d011682016040523d82523d6000602084013e611ad4565b606091505b508051611af35760405162461bcd60e51b81526004016106d290612455565b805181602001fd5b6001600160e01b031916630a85bd0160e11b149050611389565b506001949350505050565b6060611b2b8261109d565b611b8f5760405162461bcd60e51b815260206004820152602f60248201527f4552433732314d657461646174613a2055524920717565727920666f72206e6f60448201526e3732bc34b9ba32b73a103a37b5b2b760891b60648201526084016106d2565b6000611ba660408051602081019091526000815290565b90506000815111611bc65760405180602001604052806000815250610fac565b80611bd084611d2a565b604051602001611be19291906124a7565b6040516020818303038152906040529392505050565b6001600160a01b038216611c4d5760405162461bcd60e51b815260206004820181905260248201527f4552433732313a206d696e7420746f20746865207a65726f206164647265737360448201526064016106d2565b611c568161109d565b15611ca35760405162461bcd60e51b815260206004820152601c60248201527f4552433732313a20746f6b656e20616c7265616479206d696e7465640000000060448201526064016106d2565b6001600160a01b0382166000908152600360205260408120805460019290611ccc90849061230d565b909155505060008181526002602052604080822080546001600160a01b0319166001600160a01b03861690811790915590518392907fddf252ad1be2c89b69c2b068fc378daa952ba7f163c4a11628f55a4df523b3ef908290a45050565b606081611d4e5750506040805180820190915260018152600360fc1b602082015290565b8160005b8115611d785780611d62816123e9565b9150611d719050600a83612546565b9150611d52565b60008167ffffffffffffffff811115611d9357611d93611ff4565b6040519080825280601f01601f191660200182016040528015611dbd576020820181803683370190505b5090505b841561138957611dd26001836123ad565b9150611ddf600a8661255a565b611dea90603061230d565b60f81b818381518110611dff57611dff61256e565b60200101906001600160f81b031916908160001a905350611e21600a86612546565b9450611dc1565b828054611e34906122bc565b90600052602060002090601f016020900481019282611e565760008555611e9c565b82601f10611e6f57805160ff1916838001178555611e9c565b82800160010185558215611e9c579182015b82811115611e9c578251825591602001919060010190611e81565b50611ea8929150611ee2565b5090565b508054611eb8906122bc565b6000825580601f10611ec8575050565b601f01602090049060005260206000209081019061109a91905b5b80821115611ea85760008155600101611ee3565b6001600160e01b03198116811461109a57600080fd5b600060208284031215611f1f57600080fd5b8135610fac81611ef7565b60005b83811015611f45578181015183820152602001611f2d565b83811115610eb15750506000910152565b60008151808452611f6e816020860160208601611f2a565b601f01601f19169290920160200192915050565b602081526000610fac6020830184611f56565b600060208284031215611fa757600080fd5b5035919050565b80356001600160a01b0381168114611fc557600080fd5b919050565b60008060408385031215611fdd57600080fd5b611fe683611fae565b946020939093013593505050565b634e487b7160e01b600052604160045260246000fd5b600067ffffffffffffffff8084111561202557612025611ff4565b604051601f8501601f19908116603f0116810190828211818310171561204d5761204d611ff4565b8160405280935085815286868601111561206657600080fd5b858560208301376000602087830101525050509392505050565b600082601f83011261209157600080fd5b610fac8383356020850161200a565b600080600080600060a086880312156120b857600080fd5b6120c186611fae565b9450602086013567ffffffffffffffff8111156120dd57600080fd5b6120e988828901612080565b9450506040860135925060608601359150608086013560ff8116811461210e57600080fd5b809150509295509295909350565b80358015158114611fc557600080fd5b6000806040838503121561213f57600080fd5b61214883611fae565b91506121566020840161211c565b90509250929050565b6000806040838503121561217257600080fd5b823567ffffffffffffffff81111561218957600080fd5b8301601f8101851361219a57600080fd5b6121a98582356020840161200a565b92505061215660208401611fae565b6000602082840312156121ca57600080fd5b610fac82611fae565b6000806000606084860312156121e857600080fd5b6121f184611fae565b92506121ff60208501611fae565b9150604084013590509250925092565b60006020828403121561222157600080fd5b610fac8261211c565b6000806000806080858703121561224057600080fd5b61224985611fae565b935061225760208601611fae565b925060408501359150606085013567ffffffffffffffff81111561227a57600080fd5b61228687828801612080565b91505092959194509250565b600080604083850312156122a557600080fd5b6122ae83611fae565b915061215660208401611fae565b600181811c908216806122d057607f821691505b602082108114156122f157634e487b7160e01b600052602260045260246000fd5b50919050565b634e487b7160e01b600052601160045260246000fd5b60008219821115612320576123206122f7565b500190565b6001600160a01b0384811682528316602082015260606040820181905260009061235190830184611f56565b95945050505050565b6000835161236c818460208801611f2a565b60609390931b6bffffffffffffffffffffffff19169190920190815260140192915050565b600082516123a3818460208701611f2a565b9190910192915050565b6000828210156123bf576123bf6122f7565b500390565b6020808252600b908201526a139bdd08185b1b1bddd95960aa1b604082015260600190565b60006000198214156123fd576123fd6122f7565b5060010190565b60208082526031908201527f4552433732313a207472616e736665722063616c6c6572206973206e6f74206f6040820152701ddb995c881b9bdc88185c1c1c9bdd9959607a1b606082015260800190565b60208082526032908201527f4552433732313a207472616e7366657220746f206e6f6e20455243373231526560408201527131b2b4bb32b91034b6b83632b6b2b73a32b960711b606082015260800190565b600083516124b9818460208801611f2a565b8351908301906124cd818360208801611f2a565b01949350505050565b6001600160a01b038581168252841660208201526040810183905260806060820181905260009061250990830184611f56565b9695505050505050565b60006020828403121561252557600080fd5b8151610fac81611ef7565b634e487b7160e01b600052601260045260246000fd5b60008261255557612555612530565b500490565b60008261256957612569612530565b500690565b634e487b7160e01b600052603260045260246000fdfe4d6574615472616e73616374696f6e2875696e74323536206e6f6e63652c616464726573732066726f6d2c62797465732066756e6374696f6e5369676e617475726529a264697066735822122057d902f4c33128c4256d8b7d0035bba837194d85782be5791c082ecee8788b3c64736f6c63430008090033454950373132446f6d61696e28737472696e67206e616d652c737472696e672076657273696f6e2c6164647265737320766572696679696e67436f6e74726163742c627974657333322073616c7429",
  "linkReferences": {},
  "deployedLinkReferences": {}
}