{
  "_format": "hh-sol-artifact-1",
  "contractName": "NFT",
  "sourceName": "contracts/NFT.sol",
  "abi": [
    {
      "inputs": [
        {
          "internalType": "string",
          "name": "_name",
          "type": "string"
        },
        {
          "internalType": "string",
          "name": "_symbol",
          "type": "string"
        }
      ],
      "stateMutability": "nonpayable",
      "type": "constructor"
    },
    {
      "anonymous": false,
      "inputs": [
        {
          "indexed": true,
          "internalType": "address",
          "name": "owner",
          "type": "address"
        },
        {
          "indexed": true,
          "internalType": "address",
          "name": "approved",
          "type": "address"
        },
        {
          "indexed": true,
          "internalType": "uint256",
          "name": "tokenId",
          "type": "uint256"
        }
      ],
      "name": "Approval",
      "type": "event"
    },
    {
      "anonymous": false,
      "inputs": [
        {
          "indexed": true,
          "internalType": "address",
          "name": "owner",
          "type": "address"
        },
        {
          "indexed": true,
          "internalType": "address",
          "name": "operator",
          "type": "address"
        },
        {
          "indexed": false,
          "internalType": "bool",
          "name": "approved",
          "type": "bool"
        }
      ],
      "name": "ApprovalForAll",
      "type": "event"
    },
    {
      "anonymous": false,
      "inputs": [
        {
          "indexed": true,
          "internalType": "address",
          "name": "previousOwner",
          "type": "address"
        },
        {
          "indexed": true,
          "internalType": "address",
          "name": "newOwner",
          "type": "address"
        }
      ],
      "name": "OwnershipTransferred",
      "type": "event"
    },
    {
      "anonymous": false,
      "inputs": [
        {
          "indexed": true,
          "internalType": "address",
          "name": "from",
          "type": "address"
        },
        {
          "indexed": true,
          "internalType": "address",
          "name": "to",
          "type": "address"
        },
        {
          "indexed": true,
          "internalType": "uint256",
          "name": "tokenId",
          "type": "uint256"
        }
      ],
      "name": "Transfer",
      "type": "event"
    },
    {
      "inputs": [
        {
          "internalType": "address",
          "name": "to",
          "type": "address"
        },
        {
          "internalType": "uint256",
          "name": "tokenId",
          "type": "uint256"
        }
      ],
      "name": "approve",
      "outputs": [],
      "stateMutability": "nonpayable",
      "type": "function"
    },
    {
      "inputs": [
        {
          "internalType": "address",
          "name": "owner",
          "type": "address"
        }
      ],
      "name": "balanceOf",
      "outputs": [
        {
          "internalType": "uint256",
          "name": "",
          "type": "uint256"
        }
      ],
      "stateMutability": "view",
      "type": "function"
    },
    {
      "inputs": [],
      "name": "currentSupply",
      "outputs": [
        {
          "internalType": "uint256",
          "name": "",
          "type": "uint256"
        }
      ],
      "stateMutability": "view",
      "type": "function"
    },
    {
      "inputs": [
        {
          "internalType": "uint256",
          "name": "tokenId",
          "type": "uint256"
        }
      ],
      "name": "getApproved",
      "outputs": [
        {
          "internalType": "address",
          "name": "",
          "type": "address"
        }
      ],
      "stateMutability": "view",
      "type": "function"
    },
    {
      "inputs": [
        {
          "internalType": "address",
          "name": "owner",
          "type": "address"
        },
        {
          "internalType": "address",
          "name": "operator",
          "type": "address"
        }
      ],
      "name": "isApprovedForAll",
      "outputs": [
        {
          "internalType": "bool",
          "name": "",
          "type": "bool"
        }
      ],
      "stateMutability": "view",
      "type": "function"
    },
    {
      "inputs": [
        {
          "internalType": "string",
          "name": "_tokenURI",
          "type": "string"
        },
        {
          "internalType": "address",
          "name": "artist",
          "type": "address"
        }
      ],
      "name": "mint",
      "outputs": [],
      "stateMutability": "nonpayable",
      "type": "function"
    },
    {
      "inputs": [],
      "name": "name",
      "outputs": [
        {
          "internalType": "string",
          "name": "",
          "type": "string"
        }
      ],
      "stateMutability": "view",
      "type": "function"
    },
    {
      "inputs": [],
      "name": "owner",
      "outputs": [
        {
          "internalType": "address",
          "name": "",
          "type": "address"
        }
      ],
      "stateMutability": "view",
      "type": "function"
    },
    {
      "inputs": [
        {
          "internalType": "uint256",
          "name": "tokenId",
          "type": "uint256"
        }
      ],
      "name": "ownerOf",
      "outputs": [
        {
          "internalType": "address",
          "name": "",
          "type": "address"
        }
      ],
      "stateMutability": "view",
      "type": "function"
    },
    {
      "inputs": [],
      "name": "renounceOwnership",
      "outputs": [],
      "stateMutability": "nonpayable",
      "type": "function"
    },
    {
      "inputs": [
        {
          "internalType": "address",
          "name": "from",
          "type": "address"
        },
        {
          "internalType": "address",
          "name": "to",
          "type": "address"
        },
        {
          "internalType": "uint256",
          "name": "tokenId",
          "type": "uint256"
        }
      ],
      "name": "safeTransferFrom",
      "outputs": [],
      "stateMutability": "nonpayable",
      "type": "function"
    },
    {
      "inputs": [
        {
          "internalType": "address",
          "name": "from",
          "type": "address"
        },
        {
          "internalType": "address",
          "name": "to",
          "type": "address"
        },
        {
          "internalType": "uint256",
          "name": "tokenId",
          "type": "uint256"
        },
        {
          "internalType": "bytes",
          "name": "_data",
          "type": "bytes"
        }
      ],
      "name": "safeTransferFrom",
      "outputs": [],
      "stateMutability": "nonpayable",
      "type": "function"
    },
    {
      "inputs": [
        {
          "internalType": "address",
          "name": "operator",
          "type": "address"
        },
        {
          "internalType": "bool",
          "name": "approved",
          "type": "bool"
        }
      ],
      "name": "setApprovalForAll",
      "outputs": [],
      "stateMutability": "nonpayable",
      "type": "function"
    },
    {
      "inputs": [
        {
          "internalType": "bytes4",
          "name": "interfaceId",
          "type": "bytes4"
        }
      ],
      "name": "supportsInterface",
      "outputs": [
        {
          "internalType": "bool",
          "name": "",
          "type": "bool"
        }
      ],
      "stateMutability": "view",
      "type": "function"
    },
    {
      "inputs": [],
      "name": "symbol",
      "outputs": [
        {
          "internalType": "string",
          "name": "",
          "type": "string"
        }
      ],
      "stateMutability": "view",
      "type": "function"
    },
    {
      "inputs": [
        {
          "internalType": "uint256",
          "name": "tokenId",
          "type": "uint256"
        }
      ],
      "name": "tokenURI",
      "outputs": [
        {
          "internalType": "string",
          "name": "",
          "type": "string"
        }
      ],
      "stateMutability": "view",
      "type": "function"
    },
    {
      "inputs": [
        {
          "internalType": "address",
          "name": "from",
          "type": "address"
        },
        {
          "internalType": "address",
          "name": "to",
          "type": "address"
        },
        {
          "internalType": "uint256",
          "name": "tokenId",
          "type": "uint256"
        }
      ],
      "name": "transferFrom",
      "outputs": [],
      "stateMutability": "nonpayable",
      "type": "function"
    },
    {
      "inputs": [
        {
          "internalType": "address",
          "name": "newOwner",
          "type": "address"
        }
      ],
      "name": "transferOwnership",
      "outputs": [],
      "stateMutability": "nonpayable",
      "type": "function"
    }
  ],
  "bytecode": "0x60806040523480156200001157600080fd5b5060405162001c5938038062001c59833981016040819052620000349162000256565b8151829082906200004d906000906020850190620000e3565b50805162000063906001906020840190620000e3565b505050620000806200007a6200008d60201b60201c565b62000091565b50506000600855620002fd565b3390565b600780546001600160a01b038381166001600160a01b0319831681179093556040519116919082907f8be0079c531659141344cd1fd0a4f28419497f9722a3daafe3b4186f6b6457e090600090a35050565b828054620000f190620002c0565b90600052602060002090601f01602090048101928262000115576000855562000160565b82601f106200013057805160ff191683800117855562000160565b8280016001018555821562000160579182015b828111156200016057825182559160200191906001019062000143565b506200016e92915062000172565b5090565b5b808211156200016e576000815560010162000173565b634e487b7160e01b600052604160045260246000fd5b600082601f830112620001b157600080fd5b81516001600160401b0380821115620001ce57620001ce62000189565b604051601f8301601f19908116603f01168101908282118183101715620001f957620001f962000189565b816040528381526020925086838588010111156200021657600080fd5b600091505b838210156200023a57858201830151818301840152908201906200021b565b838211156200024c5760008385830101525b9695505050505050565b600080604083850312156200026a57600080fd5b82516001600160401b03808211156200028257600080fd5b62000290868387016200019f565b93506020850151915080821115620002a757600080fd5b50620002b6858286016200019f565b9150509250929050565b600181811c90821680620002d557607f821691505b60208210811415620002f757634e487b7160e01b600052602260045260246000fd5b50919050565b61194c806200030d6000396000f3fe608060405234801561001057600080fd5b50600436106101165760003560e01c8063715018a6116100a2578063a22cb46511610071578063a22cb4651461022f578063b88d4fde14610242578063c87b56dd14610255578063e985e9c514610268578063f2fde38b146102a457600080fd5b8063715018a614610205578063771282f61461020d5780638da5cb5b1461021657806395d89b411461022757600080fd5b80631c351a9d116100e95780631c351a9d1461019857806323b872dd146101ab57806342842e0e146101be5780636352211e146101d157806370a08231146101e457600080fd5b806301ffc9a71461011b57806306fdde0314610143578063081812fc14610158578063095ea7b314610183575b600080fd5b61012e6101293660046113b8565b6102b7565b60405190151581526020015b60405180910390f35b61014b610309565b60405161013a919061142d565b61016b610166366004611440565b61039b565b6040516001600160a01b03909116815260200161013a565b610196610191366004611475565b610428565b005b6101966101a636600461152b565b61053e565b6101966101b936600461158d565b6105ce565b6101966101cc36600461158d565b6105ff565b61016b6101df366004611440565b61061a565b6101f76101f23660046115c9565b610691565b60405190815260200161013a565b610196610718565b6101f760085481565b6007546001600160a01b031661016b565b61014b61074e565b61019661023d3660046115e4565b61075d565b610196610250366004611620565b61076c565b61014b610263366004611440565b6107a4565b61012e61027636600461169c565b6001600160a01b03918216600090815260056020908152604080832093909416825291909152205460ff1690565b6101966102b23660046115c9565b61091b565b60006001600160e01b031982166380ac58cd60e01b14806102e857506001600160e01b03198216635b5e139f60e01b145b8061030357506301ffc9a760e01b6001600160e01b03198316145b92915050565b606060008054610318906116c6565b80601f0160208091040260200160405190810160405280929190818152602001828054610344906116c6565b80156103915780601f1061036657610100808354040283529160200191610391565b820191906000526020600020905b81548152906001019060200180831161037457829003601f168201915b5050505050905090565b60006103a6826109b6565b61040c5760405162461bcd60e51b815260206004820152602c60248201527f4552433732313a20617070726f76656420717565727920666f72206e6f6e657860448201526b34b9ba32b73a103a37b5b2b760a11b60648201526084015b60405180910390fd5b506000908152600460205260409020546001600160a01b031690565b60006104338261061a565b9050806001600160a01b0316836001600160a01b031614156104a15760405162461bcd60e51b815260206004820152602160248201527f4552433732313a20617070726f76616c20746f2063757272656e74206f776e656044820152603960f91b6064820152608401610403565b336001600160a01b03821614806104bd57506104bd8133610276565b61052f5760405162461bcd60e51b815260206004820152603860248201527f4552433732313a20617070726f76652063616c6c6572206973206e6f74206f7760448201527f6e6572206e6f7220617070726f76656420666f7220616c6c00000000000000006064820152608401610403565b61053983836109d3565b505050565b6007546001600160a01b031633146105685760405162461bcd60e51b815260040161040390611701565b60006008546001610579919061174c565b90506105858282610a41565b61058f8184610a5b565b600081815260096020526040812080546001600160a01b0319166001600160a01b03851617905560088054916105c483611764565b9190505550505050565b6105d83382610ae6565b6105f45760405162461bcd60e51b81526004016104039061177f565b610539838383610bcc565b6105398383836040518060200160405280600081525061076c565b6000818152600260205260408120546001600160a01b0316806103035760405162461bcd60e51b815260206004820152602960248201527f4552433732313a206f776e657220717565727920666f72206e6f6e657869737460448201526832b73a103a37b5b2b760b91b6064820152608401610403565b60006001600160a01b0382166106fc5760405162461bcd60e51b815260206004820152602a60248201527f4552433732313a2062616c616e636520717565727920666f7220746865207a65604482015269726f206164647265737360b01b6064820152608401610403565b506001600160a01b031660009081526003602052604090205490565b6007546001600160a01b031633146107425760405162461bcd60e51b815260040161040390611701565b61074c6000610d6c565b565b606060018054610318906116c6565b610768338383610dbe565b5050565b6107763383610ae6565b6107925760405162461bcd60e51b81526004016104039061177f565b61079e84848484610e8d565b50505050565b60606107af826109b6565b6108155760405162461bcd60e51b815260206004820152603160248201527f45524337323155524953746f726167653a2055524920717565727920666f72206044820152703737b732bc34b9ba32b73a103a37b5b2b760791b6064820152608401610403565b6000828152600660205260408120805461082e906116c6565b80601f016020809104026020016040519081016040528092919081815260200182805461085a906116c6565b80156108a75780601f1061087c576101008083540402835291602001916108a7565b820191906000526020600020905b81548152906001019060200180831161088a57829003601f168201915b5050505050905060006108c560408051602081019091526000815290565b90508051600014156108d8575092915050565b81511561090a5780826040516020016108f29291906117d0565b60405160208183030381529060405292505050919050565b61091384610ec0565b949350505050565b6007546001600160a01b031633146109455760405162461bcd60e51b815260040161040390611701565b6001600160a01b0381166109aa5760405162461bcd60e51b815260206004820152602660248201527f4f776e61626c653a206e6577206f776e657220697320746865207a65726f206160448201526564647265737360d01b6064820152608401610403565b6109b381610d6c565b50565b6000908152600260205260409020546001600160a01b0316151590565b600081815260046020526040902080546001600160a01b0319166001600160a01b0384169081179091558190610a088261061a565b6001600160a01b03167f8c5be1e5ebec7d5bd14f71427d1e84f3dd0314c0f7b2291e5b200ac8c7c3b92560405160405180910390a45050565b610768828260405180602001604052806000815250610f98565b610a64826109b6565b610ac75760405162461bcd60e51b815260206004820152602e60248201527f45524337323155524953746f726167653a2055524920736574206f66206e6f6e60448201526d32bc34b9ba32b73a103a37b5b2b760911b6064820152608401610403565b6000828152600660209081526040909120825161053992840190611309565b6000610af1826109b6565b610b525760405162461bcd60e51b815260206004820152602c60248201527f4552433732313a206f70657261746f7220717565727920666f72206e6f6e657860448201526b34b9ba32b73a103a37b5b2b760a11b6064820152608401610403565b6000610b5d8361061a565b9050806001600160a01b0316846001600160a01b03161480610b985750836001600160a01b0316610b8d8461039b565b6001600160a01b0316145b8061091357506001600160a01b0380821660009081526005602090815260408083209388168352929052205460ff16610913565b826001600160a01b0316610bdf8261061a565b6001600160a01b031614610c475760405162461bcd60e51b815260206004820152602960248201527f4552433732313a207472616e73666572206f6620746f6b656e2074686174206960448201526839903737ba1037bbb760b91b6064820152608401610403565b6001600160a01b038216610ca95760405162461bcd60e51b8152602060048201526024808201527f4552433732313a207472616e7366657220746f20746865207a65726f206164646044820152637265737360e01b6064820152608401610403565b610cb46000826109d3565b6001600160a01b0383166000908152600360205260408120805460019290610cdd9084906117ff565b90915550506001600160a01b0382166000908152600360205260408120805460019290610d0b90849061174c565b909155505060008181526002602052604080822080546001600160a01b0319166001600160a01b0386811691821790925591518493918716917fddf252ad1be2c89b69c2b068fc378daa952ba7f163c4a11628f55a4df523b3ef91a4505050565b600780546001600160a01b038381166001600160a01b0319831681179093556040519116919082907f8be0079c531659141344cd1fd0a4f28419497f9722a3daafe3b4186f6b6457e090600090a35050565b816001600160a01b0316836001600160a01b03161415610e205760405162461bcd60e51b815260206004820152601960248201527f4552433732313a20617070726f766520746f2063616c6c6572000000000000006044820152606401610403565b6001600160a01b03838116600081815260056020908152604080832094871680845294825291829020805460ff191686151590811790915591519182527f17307eab39ab6107e8899845ad3d59bd9653f200f220920489ca2b5937696c31910160405180910390a3505050565b610e98848484610bcc565b610ea484848484610fcb565b61079e5760405162461bcd60e51b815260040161040390611816565b6060610ecb826109b6565b610f2f5760405162461bcd60e51b815260206004820152602f60248201527f4552433732314d657461646174613a2055524920717565727920666f72206e6f60448201526e3732bc34b9ba32b73a103a37b5b2b760891b6064820152608401610403565b6000610f4660408051602081019091526000815290565b90506000815111610f665760405180602001604052806000815250610f91565b80610f70846110d8565b604051602001610f819291906117d0565b6040516020818303038152906040525b9392505050565b610fa283836111d6565b610faf6000848484610fcb565b6105395760405162461bcd60e51b815260040161040390611816565b60006001600160a01b0384163b156110cd57604051630a85bd0160e11b81526001600160a01b0385169063150b7a029061100f903390899088908890600401611868565b602060405180830381600087803b15801561102957600080fd5b505af1925050508015611059575060408051601f3d908101601f19168201909252611056918101906118a5565b60015b6110b3573d808015611087576040519150601f19603f3d011682016040523d82523d6000602084013e61108c565b606091505b5080516110ab5760405162461bcd60e51b815260040161040390611816565b805181602001fd5b6001600160e01b031916630a85bd0160e11b149050610913565b506001949350505050565b6060816110fc5750506040805180820190915260018152600360fc1b602082015290565b8160005b8115611126578061111081611764565b915061111f9050600a836118d8565b9150611100565b60008167ffffffffffffffff8111156111415761114161149f565b6040519080825280601f01601f19166020018201604052801561116b576020820181803683370190505b5090505b8415610913576111806001836117ff565b915061118d600a866118ec565b61119890603061174c565b60f81b8183815181106111ad576111ad611900565b60200101906001600160f81b031916908160001a9053506111cf600a866118d8565b945061116f565b6001600160a01b03821661122c5760405162461bcd60e51b815260206004820181905260248201527f4552433732313a206d696e7420746f20746865207a65726f20616464726573736044820152606401610403565b611235816109b6565b156112825760405162461bcd60e51b815260206004820152601c60248201527f4552433732313a20746f6b656e20616c7265616479206d696e746564000000006044820152606401610403565b6001600160a01b03821660009081526003602052604081208054600192906112ab90849061174c565b909155505060008181526002602052604080822080546001600160a01b0319166001600160a01b03861690811790915590518392907fddf252ad1be2c89b69c2b068fc378daa952ba7f163c4a11628f55a4df523b3ef908290a45050565b828054611315906116c6565b90600052602060002090601f016020900481019282611337576000855561137d565b82601f1061135057805160ff191683800117855561137d565b8280016001018555821561137d579182015b8281111561137d578251825591602001919060010190611362565b5061138992915061138d565b5090565b5b80821115611389576000815560010161138e565b6001600160e01b0319811681146109b357600080fd5b6000602082840312156113ca57600080fd5b8135610f91816113a2565b60005b838110156113f05781810151838201526020016113d8565b8381111561079e5750506000910152565b600081518084526114198160208601602086016113d5565b601f01601f19169290920160200192915050565b602081526000610f916020830184611401565b60006020828403121561145257600080fd5b5035919050565b80356001600160a01b038116811461147057600080fd5b919050565b6000806040838503121561148857600080fd5b61149183611459565b946020939093013593505050565b634e487b7160e01b600052604160045260246000fd5b600067ffffffffffffffff808411156114d0576114d061149f565b604051601f8501601f19908116603f011681019082821181831017156114f8576114f861149f565b8160405280935085815286868601111561151157600080fd5b858560208301376000602087830101525050509392505050565b6000806040838503121561153e57600080fd5b823567ffffffffffffffff81111561155557600080fd5b8301601f8101851361156657600080fd5b611575858235602084016114b5565b92505061158460208401611459565b90509250929050565b6000806000606084860312156115a257600080fd5b6115ab84611459565b92506115b960208501611459565b9150604084013590509250925092565b6000602082840312156115db57600080fd5b610f9182611459565b600080604083850312156115f757600080fd5b61160083611459565b91506020830135801515811461161557600080fd5b809150509250929050565b6000806000806080858703121561163657600080fd5b61163f85611459565b935061164d60208601611459565b925060408501359150606085013567ffffffffffffffff81111561167057600080fd5b8501601f8101871361168157600080fd5b611690878235602084016114b5565b91505092959194509250565b600080604083850312156116af57600080fd5b6116b883611459565b915061158460208401611459565b600181811c908216806116da57607f821691505b602082108114156116fb57634e487b7160e01b600052602260045260246000fd5b50919050565b6020808252818101527f4f776e61626c653a2063616c6c6572206973206e6f7420746865206f776e6572604082015260600190565b634e487b7160e01b600052601160045260246000fd5b6000821982111561175f5761175f611736565b500190565b600060001982141561177857611778611736565b5060010190565b60208082526031908201527f4552433732313a207472616e736665722063616c6c6572206973206e6f74206f6040820152701ddb995c881b9bdc88185c1c1c9bdd9959607a1b606082015260800190565b600083516117e28184602088016113d5565b8351908301906117f68183602088016113d5565b01949350505050565b60008282101561181157611811611736565b500390565b60208082526032908201527f4552433732313a207472616e7366657220746f206e6f6e20455243373231526560408201527131b2b4bb32b91034b6b83632b6b2b73a32b960711b606082015260800190565b6001600160a01b038581168252841660208201526040810183905260806060820181905260009061189b90830184611401565b9695505050505050565b6000602082840312156118b757600080fd5b8151610f91816113a2565b634e487b7160e01b600052601260045260246000fd5b6000826118e7576118e76118c2565b500490565b6000826118fb576118fb6118c2565b500690565b634e487b7160e01b600052603260045260246000fdfea2646970667358221220fadf0044d35b0cf0593123b6699d56dd07a9fe956b184c373edeb180e4a77f0d64736f6c63430008090033",
  "linkReferences": {},
  "deployedLinkReferences": {}
}