{
  "_format": "hh-sol-artifact-1",
  "contractName": "NFT",
  "sourceName": "contracts/NFT.sol",
  "abi": [
    {
      "inputs": [
        {
          "internalType": "string",
          "name": "_name",
          "type": "string"
        },
        {
          "internalType": "string",
          "name": "_symbol",
          "type": "string"
        }
      ],
      "stateMutability": "nonpayable",
      "type": "constructor"
    },
    {
      "anonymous": false,
      "inputs": [
        {
          "indexed": true,
          "internalType": "address",
          "name": "owner",
          "type": "address"
        },
        {
          "indexed": true,
          "internalType": "address",
          "name": "approved",
          "type": "address"
        },
        {
          "indexed": true,
          "internalType": "uint256",
          "name": "tokenId",
          "type": "uint256"
        }
      ],
      "name": "Approval",
      "type": "event"
    },
    {
      "anonymous": false,
      "inputs": [
        {
          "indexed": true,
          "internalType": "address",
          "name": "owner",
          "type": "address"
        },
        {
          "indexed": true,
          "internalType": "address",
          "name": "operator",
          "type": "address"
        },
        {
          "indexed": false,
          "internalType": "bool",
          "name": "approved",
          "type": "bool"
        }
      ],
      "name": "ApprovalForAll",
      "type": "event"
    },
    {
      "anonymous": false,
      "inputs": [
        {
          "indexed": true,
          "internalType": "address",
          "name": "previousOwner",
          "type": "address"
        },
        {
          "indexed": true,
          "internalType": "address",
          "name": "newOwner",
          "type": "address"
        }
      ],
      "name": "OwnershipTransferred",
      "type": "event"
    },
    {
      "anonymous": false,
      "inputs": [
        {
          "indexed": true,
          "internalType": "address",
          "name": "from",
          "type": "address"
        },
        {
          "indexed": true,
          "internalType": "address",
          "name": "to",
          "type": "address"
        },
        {
          "indexed": true,
          "internalType": "uint256",
          "name": "tokenId",
          "type": "uint256"
        }
      ],
      "name": "Transfer",
      "type": "event"
    },
    {
      "inputs": [
        {
          "internalType": "address",
          "name": "to",
          "type": "address"
        },
        {
          "internalType": "uint256",
          "name": "tokenId",
          "type": "uint256"
        }
      ],
      "name": "approve",
      "outputs": [],
      "stateMutability": "nonpayable",
      "type": "function"
    },
    {
      "inputs": [
        {
          "internalType": "address",
          "name": "owner",
          "type": "address"
        }
      ],
      "name": "balanceOf",
      "outputs": [
        {
          "internalType": "uint256",
          "name": "",
          "type": "uint256"
        }
      ],
      "stateMutability": "view",
      "type": "function"
    },
    {
      "inputs": [],
      "name": "currentSupply",
      "outputs": [
        {
          "internalType": "uint256",
          "name": "",
          "type": "uint256"
        }
      ],
      "stateMutability": "view",
      "type": "function"
    },
    {
      "inputs": [
        {
          "internalType": "uint256",
          "name": "tokenId",
          "type": "uint256"
        }
      ],
      "name": "getApproved",
      "outputs": [
        {
          "internalType": "address",
          "name": "",
          "type": "address"
        }
      ],
      "stateMutability": "view",
      "type": "function"
    },
    {
      "inputs": [
        {
          "internalType": "address",
          "name": "owner",
          "type": "address"
        },
        {
          "internalType": "address",
          "name": "operator",
          "type": "address"
        }
      ],
      "name": "isApprovedForAll",
      "outputs": [
        {
          "internalType": "bool",
          "name": "",
          "type": "bool"
        }
      ],
      "stateMutability": "view",
      "type": "function"
    },
    {
      "inputs": [
        {
          "internalType": "string",
          "name": "_tokenURI",
          "type": "string"
        },
        {
          "internalType": "address",
          "name": "artist",
          "type": "address"
        }
      ],
      "name": "mint",
      "outputs": [
        {
          "internalType": "uint256",
          "name": "",
          "type": "uint256"
        }
      ],
      "stateMutability": "nonpayable",
      "type": "function"
    },
    {
      "inputs": [],
      "name": "name",
      "outputs": [
        {
          "internalType": "string",
          "name": "",
          "type": "string"
        }
      ],
      "stateMutability": "view",
      "type": "function"
    },
    {
      "inputs": [],
      "name": "owner",
      "outputs": [
        {
          "internalType": "address",
          "name": "",
          "type": "address"
        }
      ],
      "stateMutability": "view",
      "type": "function"
    },
    {
      "inputs": [
        {
          "internalType": "uint256",
          "name": "tokenId",
          "type": "uint256"
        }
      ],
      "name": "ownerOf",
      "outputs": [
        {
          "internalType": "address",
          "name": "",
          "type": "address"
        }
      ],
      "stateMutability": "view",
      "type": "function"
    },
    {
      "inputs": [],
      "name": "renounceOwnership",
      "outputs": [],
      "stateMutability": "nonpayable",
      "type": "function"
    },
    {
      "inputs": [
        {
          "internalType": "address",
          "name": "from",
          "type": "address"
        },
        {
          "internalType": "address",
          "name": "to",
          "type": "address"
        },
        {
          "internalType": "uint256",
          "name": "tokenId",
          "type": "uint256"
        }
      ],
      "name": "safeTransferFrom",
      "outputs": [],
      "stateMutability": "nonpayable",
      "type": "function"
    },
    {
      "inputs": [
        {
          "internalType": "address",
          "name": "from",
          "type": "address"
        },
        {
          "internalType": "address",
          "name": "to",
          "type": "address"
        },
        {
          "internalType": "uint256",
          "name": "tokenId",
          "type": "uint256"
        },
        {
          "internalType": "bytes",
          "name": "_data",
          "type": "bytes"
        }
      ],
      "name": "safeTransferFrom",
      "outputs": [],
      "stateMutability": "nonpayable",
      "type": "function"
    },
    {
      "inputs": [
        {
          "internalType": "address",
          "name": "operator",
          "type": "address"
        },
        {
          "internalType": "bool",
          "name": "approved",
          "type": "bool"
        }
      ],
      "name": "setApprovalForAll",
      "outputs": [],
      "stateMutability": "nonpayable",
      "type": "function"
    },
    {
      "inputs": [
        {
          "internalType": "bytes4",
          "name": "interfaceId",
          "type": "bytes4"
        }
      ],
      "name": "supportsInterface",
      "outputs": [
        {
          "internalType": "bool",
          "name": "",
          "type": "bool"
        }
      ],
      "stateMutability": "view",
      "type": "function"
    },
    {
      "inputs": [],
      "name": "symbol",
      "outputs": [
        {
          "internalType": "string",
          "name": "",
          "type": "string"
        }
      ],
      "stateMutability": "view",
      "type": "function"
    },
    {
      "inputs": [
        {
          "internalType": "uint256",
          "name": "tokenId",
          "type": "uint256"
        }
      ],
      "name": "tokenURI",
      "outputs": [
        {
          "internalType": "string",
          "name": "",
          "type": "string"
        }
      ],
      "stateMutability": "view",
      "type": "function"
    },
    {
      "inputs": [
        {
          "internalType": "address",
          "name": "from",
          "type": "address"
        },
        {
          "internalType": "address",
          "name": "to",
          "type": "address"
        },
        {
          "internalType": "uint256",
          "name": "tokenId",
          "type": "uint256"
        }
      ],
      "name": "transferFrom",
      "outputs": [],
      "stateMutability": "nonpayable",
      "type": "function"
    },
    {
      "inputs": [
        {
          "internalType": "address",
          "name": "newOwner",
          "type": "address"
        }
      ],
      "name": "transferOwnership",
      "outputs": [],
      "stateMutability": "nonpayable",
      "type": "function"
    }
  ],
  "bytecode": "0x60806040523480156200001157600080fd5b5060405162001c5f38038062001c5f833981016040819052620000349162000256565b8151829082906200004d906000906020850190620000e3565b50805162000063906001906020840190620000e3565b505050620000806200007a6200008d60201b60201c565b62000091565b50506000600855620002fd565b3390565b600780546001600160a01b038381166001600160a01b0319831681179093556040519116919082907f8be0079c531659141344cd1fd0a4f28419497f9722a3daafe3b4186f6b6457e090600090a35050565b828054620000f190620002c0565b90600052602060002090601f01602090048101928262000115576000855562000160565b82601f106200013057805160ff191683800117855562000160565b8280016001018555821562000160579182015b828111156200016057825182559160200191906001019062000143565b506200016e92915062000172565b5090565b5b808211156200016e576000815560010162000173565b634e487b7160e01b600052604160045260246000fd5b600082601f830112620001b157600080fd5b81516001600160401b0380821115620001ce57620001ce62000189565b604051601f8301601f19908116603f01168101908282118183101715620001f957620001f962000189565b816040528381526020925086838588010111156200021657600080fd5b600091505b838210156200023a57858201830151818301840152908201906200021b565b838211156200024c5760008385830101525b9695505050505050565b600080604083850312156200026a57600080fd5b82516001600160401b03808211156200028257600080fd5b62000290868387016200019f565b93506020850151915080821115620002a757600080fd5b50620002b6858286016200019f565b9150509250929050565b600181811c90821680620002d557607f821691505b60208210811415620002f757634e487b7160e01b600052602260045260246000fd5b50919050565b611952806200030d6000396000f3fe608060405234801561001057600080fd5b50600436106101165760003560e01c8063715018a6116100a2578063a22cb46511610071578063a22cb4651461022f578063b88d4fde14610242578063c87b56dd14610255578063e985e9c514610268578063f2fde38b146102a457600080fd5b8063715018a614610205578063771282f61461020d5780638da5cb5b1461021657806395d89b411461022757600080fd5b80631c351a9d116100e95780631c351a9d1461019857806323b872dd146101b957806342842e0e146101cc5780636352211e146101df57806370a08231146101f257600080fd5b806301ffc9a71461011b57806306fdde0314610143578063081812fc14610158578063095ea7b314610183575b600080fd5b61012e6101293660046113be565b6102b7565b60405190151581526020015b60405180910390f35b61014b610309565b60405161013a9190611433565b61016b610166366004611446565b61039b565b6040516001600160a01b03909116815260200161013a565b61019661019136600461147b565b610428565b005b6101ab6101a6366004611531565b61053e565b60405190815260200161013a565b6101966101c7366004611593565b6105d4565b6101966101da366004611593565b610605565b61016b6101ed366004611446565b610620565b6101ab6102003660046115cf565b610697565b61019661071e565b6101ab60085481565b6007546001600160a01b031661016b565b61014b610754565b61019661023d3660046115ea565b610763565b610196610250366004611626565b610772565b61014b610263366004611446565b6107aa565b61012e6102763660046116a2565b6001600160a01b03918216600090815260056020908152604080832093909416825291909152205460ff1690565b6101966102b23660046115cf565b610921565b60006001600160e01b031982166380ac58cd60e01b14806102e857506001600160e01b03198216635b5e139f60e01b145b8061030357506301ffc9a760e01b6001600160e01b03198316145b92915050565b606060008054610318906116cc565b80601f0160208091040260200160405190810160405280929190818152602001828054610344906116cc565b80156103915780601f1061036657610100808354040283529160200191610391565b820191906000526020600020905b81548152906001019060200180831161037457829003601f168201915b5050505050905090565b60006103a6826109bc565b61040c5760405162461bcd60e51b815260206004820152602c60248201527f4552433732313a20617070726f76656420717565727920666f72206e6f6e657860448201526b34b9ba32b73a103a37b5b2b760a11b60648201526084015b60405180910390fd5b506000908152600460205260409020546001600160a01b031690565b600061043382610620565b9050806001600160a01b0316836001600160a01b031614156104a15760405162461bcd60e51b815260206004820152602160248201527f4552433732313a20617070726f76616c20746f2063757272656e74206f776e656044820152603960f91b6064820152608401610403565b336001600160a01b03821614806104bd57506104bd8133610276565b61052f5760405162461bcd60e51b815260206004820152603860248201527f4552433732313a20617070726f76652063616c6c6572206973206e6f74206f7760448201527f6e6572206e6f7220617070726f76656420666f7220616c6c00000000000000006064820152608401610403565b61053983836109d9565b505050565b6007546000906001600160a01b0316331461056b5760405162461bcd60e51b815260040161040390611707565b6000600854600161057c9190611752565b90506105888382610a47565b6105928185610a61565b600081815260096020526040812080546001600160a01b0319166001600160a01b03861617905560088054916105c78361176a565b9091555090949350505050565b6105de3382610aec565b6105fa5760405162461bcd60e51b815260040161040390611785565b610539838383610bd2565b61053983838360405180602001604052806000815250610772565b6000818152600260205260408120546001600160a01b0316806103035760405162461bcd60e51b815260206004820152602960248201527f4552433732313a206f776e657220717565727920666f72206e6f6e657869737460448201526832b73a103a37b5b2b760b91b6064820152608401610403565b60006001600160a01b0382166107025760405162461bcd60e51b815260206004820152602a60248201527f4552433732313a2062616c616e636520717565727920666f7220746865207a65604482015269726f206164647265737360b01b6064820152608401610403565b506001600160a01b031660009081526003602052604090205490565b6007546001600160a01b031633146107485760405162461bcd60e51b815260040161040390611707565b6107526000610d72565b565b606060018054610318906116cc565b61076e338383610dc4565b5050565b61077c3383610aec565b6107985760405162461bcd60e51b815260040161040390611785565b6107a484848484610e93565b50505050565b60606107b5826109bc565b61081b5760405162461bcd60e51b815260206004820152603160248201527f45524337323155524953746f726167653a2055524920717565727920666f72206044820152703737b732bc34b9ba32b73a103a37b5b2b760791b6064820152608401610403565b60008281526006602052604081208054610834906116cc565b80601f0160208091040260200160405190810160405280929190818152602001828054610860906116cc565b80156108ad5780601f10610882576101008083540402835291602001916108ad565b820191906000526020600020905b81548152906001019060200180831161089057829003601f168201915b5050505050905060006108cb60408051602081019091526000815290565b90508051600014156108de575092915050565b8151156109105780826040516020016108f89291906117d6565b60405160208183030381529060405292505050919050565b61091984610ec6565b949350505050565b6007546001600160a01b0316331461094b5760405162461bcd60e51b815260040161040390611707565b6001600160a01b0381166109b05760405162461bcd60e51b815260206004820152602660248201527f4f776e61626c653a206e6577206f776e657220697320746865207a65726f206160448201526564647265737360d01b6064820152608401610403565b6109b981610d72565b50565b6000908152600260205260409020546001600160a01b0316151590565b600081815260046020526040902080546001600160a01b0319166001600160a01b0384169081179091558190610a0e82610620565b6001600160a01b03167f8c5be1e5ebec7d5bd14f71427d1e84f3dd0314c0f7b2291e5b200ac8c7c3b92560405160405180910390a45050565b61076e828260405180602001604052806000815250610f9e565b610a6a826109bc565b610acd5760405162461bcd60e51b815260206004820152602e60248201527f45524337323155524953746f726167653a2055524920736574206f66206e6f6e60448201526d32bc34b9ba32b73a103a37b5b2b760911b6064820152608401610403565b600082815260066020908152604090912082516105399284019061130f565b6000610af7826109bc565b610b585760405162461bcd60e51b815260206004820152602c60248201527f4552433732313a206f70657261746f7220717565727920666f72206e6f6e657860448201526b34b9ba32b73a103a37b5b2b760a11b6064820152608401610403565b6000610b6383610620565b9050806001600160a01b0316846001600160a01b03161480610b9e5750836001600160a01b0316610b938461039b565b6001600160a01b0316145b8061091957506001600160a01b0380821660009081526005602090815260408083209388168352929052205460ff16610919565b826001600160a01b0316610be582610620565b6001600160a01b031614610c4d5760405162461bcd60e51b815260206004820152602960248201527f4552433732313a207472616e73666572206f6620746f6b656e2074686174206960448201526839903737ba1037bbb760b91b6064820152608401610403565b6001600160a01b038216610caf5760405162461bcd60e51b8152602060048201526024808201527f4552433732313a207472616e7366657220746f20746865207a65726f206164646044820152637265737360e01b6064820152608401610403565b610cba6000826109d9565b6001600160a01b0383166000908152600360205260408120805460019290610ce3908490611805565b90915550506001600160a01b0382166000908152600360205260408120805460019290610d11908490611752565b909155505060008181526002602052604080822080546001600160a01b0319166001600160a01b0386811691821790925591518493918716917fddf252ad1be2c89b69c2b068fc378daa952ba7f163c4a11628f55a4df523b3ef91a4505050565b600780546001600160a01b038381166001600160a01b0319831681179093556040519116919082907f8be0079c531659141344cd1fd0a4f28419497f9722a3daafe3b4186f6b6457e090600090a35050565b816001600160a01b0316836001600160a01b03161415610e265760405162461bcd60e51b815260206004820152601960248201527f4552433732313a20617070726f766520746f2063616c6c6572000000000000006044820152606401610403565b6001600160a01b03838116600081815260056020908152604080832094871680845294825291829020805460ff191686151590811790915591519182527f17307eab39ab6107e8899845ad3d59bd9653f200f220920489ca2b5937696c31910160405180910390a3505050565b610e9e848484610bd2565b610eaa84848484610fd1565b6107a45760405162461bcd60e51b81526004016104039061181c565b6060610ed1826109bc565b610f355760405162461bcd60e51b815260206004820152602f60248201527f4552433732314d657461646174613a2055524920717565727920666f72206e6f60448201526e3732bc34b9ba32b73a103a37b5b2b760891b6064820152608401610403565b6000610f4c60408051602081019091526000815290565b90506000815111610f6c5760405180602001604052806000815250610f97565b80610f76846110de565b604051602001610f879291906117d6565b6040516020818303038152906040525b9392505050565b610fa883836111dc565b610fb56000848484610fd1565b6105395760405162461bcd60e51b81526004016104039061181c565b60006001600160a01b0384163b156110d357604051630a85bd0160e11b81526001600160a01b0385169063150b7a029061101590339089908890889060040161186e565b602060405180830381600087803b15801561102f57600080fd5b505af192505050801561105f575060408051601f3d908101601f1916820190925261105c918101906118ab565b60015b6110b9573d80801561108d576040519150601f19603f3d011682016040523d82523d6000602084013e611092565b606091505b5080516110b15760405162461bcd60e51b81526004016104039061181c565b805181602001fd5b6001600160e01b031916630a85bd0160e11b149050610919565b506001949350505050565b6060816111025750506040805180820190915260018152600360fc1b602082015290565b8160005b811561112c57806111168161176a565b91506111259050600a836118de565b9150611106565b60008167ffffffffffffffff811115611147576111476114a5565b6040519080825280601f01601f191660200182016040528015611171576020820181803683370190505b5090505b841561091957611186600183611805565b9150611193600a866118f2565b61119e906030611752565b60f81b8183815181106111b3576111b3611906565b60200101906001600160f81b031916908160001a9053506111d5600a866118de565b9450611175565b6001600160a01b0382166112325760405162461bcd60e51b815260206004820181905260248201527f4552433732313a206d696e7420746f20746865207a65726f20616464726573736044820152606401610403565b61123b816109bc565b156112885760405162461bcd60e51b815260206004820152601c60248201527f4552433732313a20746f6b656e20616c7265616479206d696e746564000000006044820152606401610403565b6001600160a01b03821660009081526003602052604081208054600192906112b1908490611752565b909155505060008181526002602052604080822080546001600160a01b0319166001600160a01b03861690811790915590518392907fddf252ad1be2c89b69c2b068fc378daa952ba7f163c4a11628f55a4df523b3ef908290a45050565b82805461131b906116cc565b90600052602060002090601f01602090048101928261133d5760008555611383565b82601f1061135657805160ff1916838001178555611383565b82800160010185558215611383579182015b82811115611383578251825591602001919060010190611368565b5061138f929150611393565b5090565b5b8082111561138f5760008155600101611394565b6001600160e01b0319811681146109b957600080fd5b6000602082840312156113d057600080fd5b8135610f97816113a8565b60005b838110156113f65781810151838201526020016113de565b838111156107a45750506000910152565b6000815180845261141f8160208601602086016113db565b601f01601f19169290920160200192915050565b602081526000610f976020830184611407565b60006020828403121561145857600080fd5b5035919050565b80356001600160a01b038116811461147657600080fd5b919050565b6000806040838503121561148e57600080fd5b6114978361145f565b946020939093013593505050565b634e487b7160e01b600052604160045260246000fd5b600067ffffffffffffffff808411156114d6576114d66114a5565b604051601f8501601f19908116603f011681019082821181831017156114fe576114fe6114a5565b8160405280935085815286868601111561151757600080fd5b858560208301376000602087830101525050509392505050565b6000806040838503121561154457600080fd5b823567ffffffffffffffff81111561155b57600080fd5b8301601f8101851361156c57600080fd5b61157b858235602084016114bb565b92505061158a6020840161145f565b90509250929050565b6000806000606084860312156115a857600080fd5b6115b18461145f565b92506115bf6020850161145f565b9150604084013590509250925092565b6000602082840312156115e157600080fd5b610f978261145f565b600080604083850312156115fd57600080fd5b6116068361145f565b91506020830135801515811461161b57600080fd5b809150509250929050565b6000806000806080858703121561163c57600080fd5b6116458561145f565b93506116536020860161145f565b925060408501359150606085013567ffffffffffffffff81111561167657600080fd5b8501601f8101871361168757600080fd5b611696878235602084016114bb565b91505092959194509250565b600080604083850312156116b557600080fd5b6116be8361145f565b915061158a6020840161145f565b600181811c908216806116e057607f821691505b6020821081141561170157634e487b7160e01b600052602260045260246000fd5b50919050565b6020808252818101527f4f776e61626c653a2063616c6c6572206973206e6f7420746865206f776e6572604082015260600190565b634e487b7160e01b600052601160045260246000fd5b600082198211156117655761176561173c565b500190565b600060001982141561177e5761177e61173c565b5060010190565b60208082526031908201527f4552433732313a207472616e736665722063616c6c6572206973206e6f74206f6040820152701ddb995c881b9bdc88185c1c1c9bdd9959607a1b606082015260800190565b600083516117e88184602088016113db565b8351908301906117fc8183602088016113db565b01949350505050565b6000828210156118175761181761173c565b500390565b60208082526032908201527f4552433732313a207472616e7366657220746f206e6f6e20455243373231526560408201527131b2b4bb32b91034b6b83632b6b2b73a32b960711b606082015260800190565b6001600160a01b03858116825284166020820152604081018390526080606082018190526000906118a190830184611407565b9695505050505050565b6000602082840312156118bd57600080fd5b8151610f97816113a8565b634e487b7160e01b600052601260045260246000fd5b6000826118ed576118ed6118c8565b500490565b600082611901576119016118c8565b500690565b634e487b7160e01b600052603260045260246000fdfea26469706673582212208d2c3092310cdcbbf503f4ca67485bfc68889da74e98b0f38533675e20b63aaa64736f6c63430008090033",
  "linkReferences": {},
  "deployedLinkReferences": {}
}