{
  "contracts/TokenMigrator.sol": {
    "TokenMigrator": {
      "abi": [
        {
          "inputs": [
            {
              "internalType": "address",
              "name": "contractAddress",
              "type": "address"
            },
            {
              "internalType": "address",
              "name": "newWalletAddress",
              "type": "address"
            },
            {
              "internalType": "uint256",
              "name": "startTokenID",
              "type": "uint256"
            },
            {
              "internalType": "uint256",
              "name": "endTokenID",
              "type": "uint256"
            }
          ],
          "name": "migrate",
          "outputs": [],
          "stateMutability": "nonpayable",
          "type": "function"
        }
      ],
      "evm": {
        "bytecode": {
          "linkReferences": {},
          "object": "608060405234801561001057600080fd5b50610315806100206000396000f3fe608060405234801561001057600080fd5b506004361061002b5760003560e01c8063a79721fe14610030575b600080fd5b61004361003e36600461024b565b610045565b005b83818311156100b45760405162461bcd60e51b815260206004820152603060248201527f7374617274546f6b656e4944206d757374206265206c657373206f722065717560448201526f185b081d1bc8195b99151bdad95b925160821b60648201526084015b60405180910390fd5b60405163e985e9c560e01b81523360048201523060248201526001600160a01b0382169063e985e9c59060440160206040518083038186803b1580156100f957600080fd5b505afa15801561010d573d6000803e3d6000fd5b505050506040513d601f19601f82011682018060405250810190610131919061028d565b6101a35760405162461bcd60e51b815260206004820152603e60248201527f5468697320636f6e7472616374206d75737420626520617070726f766564206260448201527f7920796f7572204e465420636f6e747261637420746f206d696772617465000060648201526084016100ab565b825b82811161022757604051632142170760e11b81523360048201526001600160a01b038681166024830152604482018390528316906342842e0e90606401600060405180830381600087803b1580156101fc57600080fd5b505af1158015610210573d6000803e3d6000fd5b50505050808061021f906102b6565b9150506101a5565b505050505050565b80356001600160a01b038116811461024657600080fd5b919050565b6000806000806080858703121561026157600080fd5b61026a8561022f565b93506102786020860161022f565b93969395505050506040820135916060013590565b60006020828403121561029f57600080fd5b815180151581146102af57600080fd5b9392505050565b60006000198214156102d857634e487b7160e01b600052601160045260246000fd5b506001019056fea2646970667358221220f288af7f4e56820890af265e41cc9dd5631b0f2509f2d1e19ab620be975406b864736f6c63430008090033",
          "opcodes": "PUSH1 0x80 PUSH1 0x40 MSTORE CALLVALUE DUP1 ISZERO PUSH2 0x10 JUMPI PUSH1 0x0 DUP1 REVERT JUMPDEST POP PUSH2 0x315 DUP1 PUSH2 0x20 PUSH1 0x0 CODECOPY PUSH1 0x0 RETURN INVALID PUSH1 0x80 PUSH1 0x40 MSTORE CALLVALUE DUP1 ISZERO PUSH2 0x10 JUMPI PUSH1 0x0 DUP1 REVERT JUMPDEST POP PUSH1 0x4 CALLDATASIZE LT PUSH2 0x2B JUMPI PUSH1 0x0 CALLDATALOAD PUSH1 0xE0 SHR DUP1 PUSH4 0xA79721FE EQ PUSH2 0x30 JUMPI JUMPDEST PUSH1 0x0 DUP1 REVERT JUMPDEST PUSH2 0x43 PUSH2 0x3E CALLDATASIZE PUSH1 0x4 PUSH2 0x24B JUMP JUMPDEST PUSH2 0x45 JUMP JUMPDEST STOP JUMPDEST DUP4 DUP2 DUP4 GT ISZERO PUSH2 0xB4 JUMPI PUSH1 0x40 MLOAD PUSH3 0x461BCD PUSH1 0xE5 SHL DUP2 MSTORE PUSH1 0x20 PUSH1 0x4 DUP3 ADD MSTORE PUSH1 0x30 PUSH1 0x24 DUP3 ADD MSTORE PUSH32 0x7374617274546F6B656E4944206D757374206265206C657373206F7220657175 PUSH1 0x44 DUP3 ADD MSTORE PUSH16 0x185B081D1BC8195B99151BDAD95B9251 PUSH1 0x82 SHL PUSH1 0x64 DUP3 ADD MSTORE PUSH1 0x84 ADD JUMPDEST PUSH1 0x40 MLOAD DUP1 SWAP2 SUB SWAP1 REVERT JUMPDEST PUSH1 0x40 MLOAD PUSH4 0xE985E9C5 PUSH1 0xE0 SHL DUP2 MSTORE CALLER PUSH1 0x4 DUP3 ADD MSTORE ADDRESS PUSH1 0x24 DUP3 ADD MSTORE PUSH1 0x1 PUSH1 0x1 PUSH1 0xA0 SHL SUB DUP3 AND SWAP1 PUSH4 0xE985E9C5 SWAP1 PUSH1 0x44 ADD PUSH1 0x20 PUSH1 0x40 MLOAD DUP1 DUP4 SUB DUP2 DUP7 DUP1 EXTCODESIZE ISZERO DUP1 ISZERO PUSH2 0xF9 JUMPI PUSH1 0x0 DUP1 REVERT JUMPDEST POP GAS STATICCALL ISZERO DUP1 ISZERO PUSH2 0x10D JUMPI RETURNDATASIZE PUSH1 0x0 DUP1 RETURNDATACOPY RETURNDATASIZE PUSH1 0x0 REVERT JUMPDEST POP POP POP POP PUSH1 0x40 MLOAD RETURNDATASIZE PUSH1 0x1F NOT PUSH1 0x1F DUP3 ADD AND DUP3 ADD DUP1 PUSH1 0x40 MSTORE POP DUP2 ADD SWAP1 PUSH2 0x131 SWAP2 SWAP1 PUSH2 0x28D JUMP JUMPDEST PUSH2 0x1A3 JUMPI PUSH1 0x40 MLOAD PUSH3 0x461BCD PUSH1 0xE5 SHL DUP2 MSTORE PUSH1 0x20 PUSH1 0x4 DUP3 ADD MSTORE PUSH1 0x3E PUSH1 0x24 DUP3 ADD MSTORE PUSH32 0x5468697320636F6E7472616374206D75737420626520617070726F7665642062 PUSH1 0x44 DUP3 ADD MSTORE PUSH32 0x7920796F7572204E465420636F6E747261637420746F206D6967726174650000 PUSH1 0x64 DUP3 ADD MSTORE PUSH1 0x84 ADD PUSH2 0xAB JUMP JUMPDEST DUP3 JUMPDEST DUP3 DUP2 GT PUSH2 0x227 JUMPI PUSH1 0x40 MLOAD PUSH4 0x21421707 PUSH1 0xE1 SHL DUP2 MSTORE CALLER PUSH1 0x4 DUP3 ADD MSTORE PUSH1 0x1 PUSH1 0x1 PUSH1 0xA0 SHL SUB DUP7 DUP2 AND PUSH1 0x24 DUP4 ADD MSTORE PUSH1 0x44 DUP3 ADD DUP4 SWAP1 MSTORE DUP4 AND SWAP1 PUSH4 0x42842E0E SWAP1 PUSH1 0x64 ADD PUSH1 0x0 PUSH1 0x40 MLOAD DUP1 DUP4 SUB DUP2 PUSH1 0x0 DUP8 DUP1 EXTCODESIZE ISZERO DUP1 ISZERO PUSH2 0x1FC JUMPI PUSH1 0x0 DUP1 REVERT JUMPDEST POP GAS CALL ISZERO DUP1 ISZERO PUSH2 0x210 JUMPI RETURNDATASIZE PUSH1 0x0 DUP1 RETURNDATACOPY RETURNDATASIZE PUSH1 0x0 REVERT JUMPDEST POP POP POP POP DUP1 DUP1 PUSH2 0x21F SWAP1 PUSH2 0x2B6 JUMP JUMPDEST SWAP2 POP POP PUSH2 0x1A5 JUMP JUMPDEST POP POP POP POP POP POP JUMP JUMPDEST DUP1 CALLDATALOAD PUSH1 0x1 PUSH1 0x1 PUSH1 0xA0 SHL SUB DUP2 AND DUP2 EQ PUSH2 0x246 JUMPI PUSH1 0x0 DUP1 REVERT JUMPDEST SWAP2 SWAP1 POP JUMP JUMPDEST PUSH1 0x0 DUP1 PUSH1 0x0 DUP1 PUSH1 0x80 DUP6 DUP8 SUB SLT ISZERO PUSH2 0x261 JUMPI PUSH1 0x0 DUP1 REVERT JUMPDEST PUSH2 0x26A DUP6 PUSH2 0x22F JUMP JUMPDEST SWAP4 POP PUSH2 0x278 PUSH1 0x20 DUP7 ADD PUSH2 0x22F JUMP JUMPDEST SWAP4 SWAP7 SWAP4 SWAP6 POP POP POP POP PUSH1 0x40 DUP3 ADD CALLDATALOAD SWAP2 PUSH1 0x60 ADD CALLDATALOAD SWAP1 JUMP JUMPDEST PUSH1 0x0 PUSH1 0x20 DUP3 DUP5 SUB SLT ISZERO PUSH2 0x29F JUMPI PUSH1 0x0 DUP1 REVERT JUMPDEST DUP2 MLOAD DUP1 ISZERO ISZERO DUP2 EQ PUSH2 0x2AF JUMPI PUSH1 0x0 DUP1 REVERT JUMPDEST SWAP4 SWAP3 POP POP POP JUMP JUMPDEST PUSH1 0x0 PUSH1 0x0 NOT DUP3 EQ ISZERO PUSH2 0x2D8 JUMPI PUSH4 0x4E487B71 PUSH1 0xE0 SHL PUSH1 0x0 MSTORE PUSH1 0x11 PUSH1 0x4 MSTORE PUSH1 0x24 PUSH1 0x0 REVERT JUMPDEST POP PUSH1 0x1 ADD SWAP1 JUMP INVALID LOG2 PUSH5 0x6970667358 0x22 SLT KECCAK256 CALLCODE DUP9 0xAF PUSH32 0x4E56820890AF265E41CC9DD5631B0F2509F2D1E19AB620BE975406B864736F6C PUSH4 0x43000809 STOP CALLER "
        },
        "methodIdentifiers": {
          "migrate(address,address,uint256,uint256)": "a79721fe"
        }
      }
    }
  }
}