{
  "_format": "hh-sol-artifact-1",
  "contractName": "TokenMigrator",
  "sourceName": "contracts/TokenMigrator.sol",
  "abi": [
    {
      "inputs": [
        {
          "internalType": "address",
          "name": "contractAddress",
          "type": "address"
        },
        {
          "internalType": "address",
          "name": "newWalletAddress",
          "type": "address"
        },
        {
          "internalType": "uint256",
          "name": "startTokenID",
          "type": "uint256"
        },
        {
          "internalType": "uint256",
          "name": "endTokenID",
          "type": "uint256"
        }
      ],
      "name": "migrate",
      "outputs": [],
      "stateMutability": "nonpayable",
      "type": "function"
    }
  ],
  "bytecode": "0x608060405234801561001057600080fd5b50610315806100206000396000f3fe608060405234801561001057600080fd5b506004361061002b5760003560e01c8063a79721fe14610030575b600080fd5b61004361003e36600461024b565b610045565b005b83818311156100b45760405162461bcd60e51b815260206004820152603060248201527f7374617274546f6b656e4944206d757374206265206c657373206f722065717560448201526f185b081d1bc8195b99151bdad95b925160821b60648201526084015b60405180910390fd5b60405163e985e9c560e01b81523360048201523060248201526001600160a01b0382169063e985e9c59060440160206040518083038186803b1580156100f957600080fd5b505afa15801561010d573d6000803e3d6000fd5b505050506040513d601f19601f82011682018060405250810190610131919061028d565b6101a35760405162461bcd60e51b815260206004820152603e60248201527f5468697320636f6e7472616374206d75737420626520617070726f766564206260448201527f7920796f7572204e465420636f6e747261637420746f206d696772617465000060648201526084016100ab565b825b82811161022757604051632142170760e11b81523360048201526001600160a01b038681166024830152604482018390528316906342842e0e90606401600060405180830381600087803b1580156101fc57600080fd5b505af1158015610210573d6000803e3d6000fd5b50505050808061021f906102b6565b9150506101a5565b505050505050565b80356001600160a01b038116811461024657600080fd5b919050565b6000806000806080858703121561026157600080fd5b61026a8561022f565b93506102786020860161022f565b93969395505050506040820135916060013590565b60006020828403121561029f57600080fd5b815180151581146102af57600080fd5b9392505050565b60006000198214156102d857634e487b7160e01b600052601160045260246000fd5b506001019056fea26469706673582212204a5f75d8343a193060a5e242b52dc485f580a4703009b160809994c8c1d9365464736f6c63430008090033",
  "linkReferences": {},
  "deployedLinkReferences": {}
}