{
  "_format": "hh-sol-artifact-1",
  "contractName": "AirdropTokens",
  "sourceName": "contracts/AirdropTokens.sol",
  "abi": [
    {
      "inputs": [],
      "stateMutability": "nonpayable",
      "type": "constructor"
    },
    {
      "inputs": [
        {
          "internalType": "address",
          "name": "contractAddress",
          "type": "address"
        },
        {
          "internalType": "uint256",
          "name": "startTokenID",
          "type": "uint256"
        },
        {
          "internalType": "address[]",
          "name": "recipients",
          "type": "address[]"
        }
      ],
      "name": "airdrop",
      "outputs": [],
      "stateMutability": "nonpayable",
      "type": "function"
    },
    {
      "inputs": [],
      "name": "owner",
      "outputs": [
        {
          "internalType": "address",
          "name": "",
          "type": "address"
        }
      ],
      "stateMutability": "view",
      "type": "function"
    }
  ],
  "bytecode": "0x608060405234801561001057600080fd5b50600080546001600160a01b031916331790556105d9806100326000396000f3fe608060405234801561001057600080fd5b50600436106100365760003560e01c8063793f3f601461003b5780638da5cb5b14610050575b600080fd5b61004e61004936600461040d565b61007f565b005b600054610063906001600160a01b031681565b6040516001600160a01b03909116815260200160405180910390f35b6000546001600160a01b031633146100f25760405162461bcd60e51b815260206004820152602b60248201527f4f6e6c792074686520636f6e7472616374206f776e65722063616e206169726460448201526a3937b8103a37b5b2b7399760a91b60648201526084015b60405180910390fd5b600182101561015b5760405162461bcd60e51b815260206004820152602f60248201527f7374617274546f6b656e4944206d75737420626520677265617465722074686160448201526e6e206f7220657175616c20746f203160881b60648201526084016100e9565b6001815110156101b75760405162461bcd60e51b815260206004820152602160248201527f506c6561736520616464206174206c65617374206f6e6520726563697069656e6044820152601d60fa1b60648201526084016100e9565b6000839050806001600160a01b03166318160ddd6040518163ffffffff1660e01b815260040160206040518083038186803b1580156101f557600080fd5b505afa158015610209573d6000803e3d6000fd5b505050506040513d601f19601f8201168201806040525081019061022d91906104f0565b825161023a60018661051f565b6102449190610536565b11156102925760405162461bcd60e51b815260206004820152601d60248201527f4e6f7420656e6f75676820746f6b656e7320746f2061697264726f702e00000060448201526064016100e9565b60005b82518110156103c8576000846102aa8161054e565b6040516331a9108f60e11b8152600481018390529096509091506001600160a01b038416906342842e0e908290636352211e9060240160206040518083038186803b1580156102f857600080fd5b505afa15801561030c573d6000803e3d6000fd5b505050506040513d601f19601f820116820180604052508101906103309190610569565b8685815181106103425761034261058d565b60209081029190910101516040516001600160e01b031960e085901b1681526001600160a01b0392831660048201529116602482015260448101849052606401600060405180830381600087803b15801561039c57600080fd5b505af11580156103b0573d6000803e3d6000fd5b505050505080806103c09061054e565b915050610295565b5050505050565b6001600160a01b03811681146103e457600080fd5b50565b80356103f2816103cf565b919050565b634e487b7160e01b600052604160045260246000fd5b60008060006060848603121561042257600080fd5b833561042d816103cf565b92506020848101359250604085013567ffffffffffffffff8082111561045257600080fd5b818701915087601f83011261046657600080fd5b813581811115610478576104786103f7565b8060051b604051601f19603f8301168101818110858211171561049d5761049d6103f7565b60405291825284820192508381018501918a8311156104bb57600080fd5b938501935b828510156104e0576104d1856103e7565b845293850193928501926104c0565b8096505050505050509250925092565b60006020828403121561050257600080fd5b5051919050565b634e487b7160e01b600052601160045260246000fd5b60008282101561053157610531610509565b500390565b6000821982111561054957610549610509565b500190565b600060001982141561056257610562610509565b5060010190565b60006020828403121561057b57600080fd5b8151610586816103cf565b9392505050565b634e487b7160e01b600052603260045260246000fdfea2646970667358221220b6e64576c0be957ba2a04b70b49aa10264fe78f5f94568382335c0eab83a653b64736f6c63430008090033",
  "linkReferences": {},
  "deployedLinkReferences": {}
}