{
  "_format": "hh-sol-artifact-1",
  "contractName": "CloneCollection",
  "sourceName": "contracts/CloneCollection.sol",
  "abi": [
    {
      "anonymous": false,
      "inputs": [
        {
          "indexed": true,
          "internalType": "address",
          "name": "addr",
          "type": "address"
        }
      ],
      "name": "ContractDeployed",
      "type": "event"
    },
    {
      "inputs": [
        {
          "internalType": "address",
          "name": "contractAddress",
          "type": "address"
        },
        {
          "internalType": "uint256",
          "name": "tokenFrom",
          "type": "uint256"
        },
        {
          "internalType": "uint256",
          "name": "tokenTo",
          "type": "uint256"
        }
      ],
      "name": "burnTokens",
      "outputs": [],
      "stateMutability": "nonpayable",
      "type": "function"
    },
    {
      "inputs": [
        {
          "internalType": "address",
          "name": "contractAddress",
          "type": "address"
        }
      ],
      "name": "copyContract",
      "outputs": [],
      "stateMutability": "nonpayable",
      "type": "function"
    },
    {
      "inputs": [
        {
          "internalType": "address",
          "name": "originalContract",
          "type": "address"
        },
        {
          "internalType": "address",
          "name": "newContract",
          "type": "address"
        },
        {
          "internalType": "uint256",
          "name": "tokenFrom",
          "type": "uint256"
        },
        {
          "internalType": "uint256",
          "name": "tokenTo",
          "type": "uint256"
        }
      ],
      "name": "copyMints",
      "outputs": [],
      "stateMutability": "nonpayable",
      "type": "function"
    }
  ],
  "bytecode": "0x608060405234801561001057600080fd5b506135ba806100206000396000f3fe60806040523480156200001157600080fd5b5060043610620000465760003560e01c806349bd003b146200004b57806381dce39a1462000064578063e0aeb7c1146200007b575b600080fd5b620000626200005c366004620004cc565b62000092565b005b620000626200007536600462000517565b6200022b565b620000626200008c3660046200053e565b62000421565b8383835b838111620002225760405163c87b56dd60e01b8152600481018290526000906001600160a01b0385169063c87b56dd9060240160006040518083038186803b158015620000e257600080fd5b505afa158015620000f7573d6000803e3d6000fd5b505050506040513d6000823e601f3d908101601f19168201604052620001219190810190620005bf565b6040516331a9108f60e11b8152600481018490529091506000906001600160a01b03861690636352211e9060240160206040518083038186803b1580156200016857600080fd5b505afa1580156200017d573d6000803e3d6000fd5b505050506040513d601f19601f82011682018060405250810190620001a3919062000678565b604051631c351a9d60e01b81529091506001600160a01b03851690631c351a9d90620001d69085908590600401620006c6565b600060405180830381600087803b158015620001f157600080fd5b505af115801562000206573d6000803e3d6000fd5b50505050505080806200021990620006f2565b91505062000096565b50505050505050565b60008190506000816001600160a01b0316638da5cb5b6040518163ffffffff1660e01b815260040160206040518083038186803b1580156200026c57600080fd5b505afa15801562000281573d6000803e3d6000fd5b505050506040513d601f19601f82011682018060405250810190620002a7919062000678565b90506000826001600160a01b03166306fdde036040518163ffffffff1660e01b815260040160006040518083038186803b158015620002e557600080fd5b505afa158015620002fa573d6000803e3d6000fd5b505050506040513d6000823e601f3d908101601f19168201604052620003249190810190620005bf565b90506000836001600160a01b03166395d89b416040518163ffffffff1660e01b815260040160006040518083038186803b1580156200036257600080fd5b505afa15801562000377573d6000803e3d6000fd5b505050506040513d6000823e601f3d908101601f19168201604052620003a19190810190620005bf565b90506000828285604051620003b690620004a5565b620003c4939291906200071c565b604051809103906000f080158015620003e1573d6000803e3d6000fd5b506040519091506001600160a01b038216907f8ffcdc15a283d706d38281f500270d8b5a656918f555de0913d7455e3e6bc1bf90600090a2505050505050565b82825b8281116200049e57604051630852cd8d60e31b8152600481018290526001600160a01b038316906342966c6890602401600060405180830381600087803b1580156200046f57600080fd5b505af115801562000484573d6000803e3d6000fd5b5050505080806200049590620006f2565b91505062000424565b5050505050565b612e26806200075f83390190565b6001600160a01b0381168114620004c957600080fd5b50565b60008060008060808587031215620004e357600080fd5b8435620004f081620004b3565b935060208501356200050281620004b3565b93969395505050506040820135916060013590565b6000602082840312156200052a57600080fd5b81356200053781620004b3565b9392505050565b6000806000606084860312156200055457600080fd5b83356200056181620004b3565b95602085013595506040909401359392505050565b634e487b7160e01b600052604160045260246000fd5b60005b83811015620005a95781810151838201526020016200058f565b83811115620005b9576000848401525b50505050565b600060208284031215620005d257600080fd5b815167ffffffffffffffff80821115620005eb57600080fd5b818401915084601f8301126200060057600080fd5b81518181111562000615576200061562000576565b604051601f8201601f19908116603f0116810190838211818310171562000640576200064062000576565b816040528281528760208487010111156200065a57600080fd5b6200066d8360208301602088016200058c565b979650505050505050565b6000602082840312156200068b57600080fd5b81516200053781620004b3565b60008151808452620006b28160208601602086016200058c565b601f01601f19169290920160200192915050565b604081526000620006db604083018562000698565b905060018060a01b03831660208301529392505050565b60006000198214156200071557634e487b7160e01b600052601160045260246000fd5b5060010190565b60608152600062000731606083018662000698565b828103602084015262000745818662000698565b91505060018060a01b038316604083015294935050505056fe6007805460ff60a01b191690556000600b81905560a0604081905260808290526200002e91600d9190620002d2565b506010805460ff191690553480156200004657600080fd5b5060405162002e2638038062002e26833981016040819052620000699162000445565b808383816000908051906020019062000084929190620002d2565b5080516200009a906001906020840190620002d2565b505050620000ae81620000f260201b60201c565b506001600a55620000be62000144565b600c80546001600160a01b0319166001600160a01b0392909216919091179055620000e98362000160565b5050506200050f565b600780546001600160a01b038381166001600160a01b0319831681179093556040519116919082907f8be0079c531659141344cd1fd0a4f28419497f9722a3daafe3b4186f6b6457e090600090a35050565b60006200015b620001d160201b620012f91760201c565b905090565b600754600160a01b900460ff1615620001b05760405162461bcd60e51b815260206004820152600e60248201526d185b1c9958591e481a5b9a5d195960921b604482015260640160405180910390fd5b620001bb8162000230565b506007805460ff60a01b1916600160a01b179055565b6000333014156200022a57600080368080601f0160208091040260200160405190810160405280939291908181526020018383808284376000920191909152505050503601516001600160a01b031691506200022d9050565b50335b90565b6040518060800160405280604f815260200162002dd7604f9139805160209182012082519282019290922060408051808201825260018152603160f81b90840152805180840194909452838101919091527fc89efdaa54c0f20c7adf612882df0950f5a951637e0307cdcb4c672f298b8bc660608401523060808401524660a0808501919091528151808503909101815260c090930190528151910120600855565b828054620002e090620004d2565b90600052602060002090601f0160209004810192826200030457600085556200034f565b82601f106200031f57805160ff19168380011785556200034f565b828001600101855582156200034f579182015b828111156200034f57825182559160200191906001019062000332565b506200035d92915062000361565b5090565b5b808211156200035d576000815560010162000362565b634e487b7160e01b600052604160045260246000fd5b600082601f830112620003a057600080fd5b81516001600160401b0380821115620003bd57620003bd62000378565b604051601f8301601f19908116603f01168101908282118183101715620003e857620003e862000378565b816040528381526020925086838588010111156200040557600080fd5b600091505b838210156200042957858201830151818301840152908201906200040a565b838211156200043b5760008385830101525b9695505050505050565b6000806000606084860312156200045b57600080fd5b83516001600160401b03808211156200047357600080fd5b62000481878388016200038e565b945060208601519150808211156200049857600080fd5b50620004a7868287016200038e565b604086015190935090506001600160a01b0381168114620004c757600080fd5b809150509250925092565b600181811c90821680620004e757607f821691505b602082108114156200050957634e487b7160e01b600052602260045260246000fd5b50919050565b6128b8806200051f6000396000f3fe6080604052600436106101d85760003560e01c806342842e0e1161010257806395d89b4111610095578063b88d4fde11610064578063b88d4fde1461055c578063c87b56dd1461057c578063e985e9c51461059c578063f2fde38b146105bc57600080fd5b806395d89b41146104e7578063a125c824146104fc578063a22cb4651461051c578063b223920b1461053c57600080fd5b806370a08231116100d157806370a082311461047e578063715018a61461049e578063771282f6146104b35780638da5cb5b146104c957600080fd5b806342842e0e1461040857806342966c681461042857806355d0a1d0146104485780636352211e1461045e57600080fd5b806318e97fd11161017a57806322397f681161014957806322397f681461036657806323b872dd1461039f5780632d0335ab146103bf5780633408e470146103f557600080fd5b806318e97fd1146102f157806318ed4314146103115780631c351a9d1461033157806320379ee51461035157600080fd5b8063095ea7b3116101b6578063095ea7b31461026c5780630c53c51c1461028e5780630f7e5970146102a157806318160ddd146102ce57600080fd5b806301ffc9a7146101dd57806306fdde0314610212578063081812fc14610234575b600080fd5b3480156101e957600080fd5b506101fd6101f8366004612169565b6105dc565b60405190151581526020015b60405180910390f35b34801561021e57600080fd5b5061022761062e565b60405161020991906121de565b34801561024057600080fd5b5061025461024f3660046121f1565b6106c0565b6040516001600160a01b039091168152602001610209565b34801561027857600080fd5b5061028c610287366004612226565b61074d565b005b61022761029c3660046122f3565b610875565b3480156102ad57600080fd5b50610227604051806040016040528060018152602001603160f81b81525081565b3480156102da57600080fd5b506102e3610a5f565b604051908152602001610209565b3480156102fd57600080fd5b5061028c61030c36600461236f565b610a82565b34801561031d57600080fd5b5061028c61032c3660046123c6565b610b47565b34801561033d57600080fd5b5061028c61034c3660046123f9565b610bac565b34801561035d57600080fd5b506008546102e3565b34801561037257600080fd5b506101fd61038136600461243e565b6001600160a01b03166000908152600f602052604090205460ff1690565b3480156103ab57600080fd5b5061028c6103ba366004612459565b610cdb565b3480156103cb57600080fd5b506102e36103da36600461243e565b6001600160a01b031660009081526009602052604090205490565b34801561040157600080fd5b50466102e3565b34801561041457600080fd5b5061028c610423366004612459565b610d13565b34801561043457600080fd5b5061028c6104433660046121f1565b610d2e565b34801561045457600080fd5b506102e3600b5481565b34801561046a57600080fd5b506102546104793660046121f1565b610dce565b34801561048a57600080fd5b506102e361049936600461243e565b610e45565b3480156104aa57600080fd5b5061028c610ecc565b3480156104bf57600080fd5b506102e3600a5481565b3480156104d557600080fd5b506007546001600160a01b0316610254565b3480156104f357600080fd5b50610227610f51565b34801561050857600080fd5b5061028c610517366004612495565b610f60565b34801561052857600080fd5b5061028c6105373660046123c6565b610fd2565b34801561054857600080fd5b5061028c6105573660046124ca565b610fe4565b34801561056857600080fd5b5061028c6105773660046124e5565b611056565b34801561058857600080fd5b506102276105973660046121f1565b611095565b3480156105a857600080fd5b506101fd6105b736600461254d565b611165565b3480156105c857600080fd5b5061028c6105d736600461243e565b61120f565b60006001600160e01b031982166380ac58cd60e01b148061060d57506001600160e01b03198216635b5e139f60e01b145b8061062857506301ffc9a760e01b6001600160e01b03198316145b92915050565b60606000805461063d90612577565b80601f016020809104026020016040519081016040528092919081815260200182805461066990612577565b80156106b65780601f1061068b576101008083540402835291602001916106b6565b820191906000526020600020905b81548152906001019060200180831161069957829003601f168201915b5050505050905090565b60006106cb82611356565b6107315760405162461bcd60e51b815260206004820152602c60248201527f4552433732313a20617070726f76656420717565727920666f72206e6f6e657860448201526b34b9ba32b73a103a37b5b2b760a11b60648201526084015b60405180910390fd5b506000908152600460205260409020546001600160a01b031690565b600061075882610dce565b9050806001600160a01b0316836001600160a01b031614156107c65760405162461bcd60e51b815260206004820152602160248201527f4552433732313a20617070726f76616c20746f2063757272656e74206f776e656044820152603960f91b6064820152608401610728565b806001600160a01b03166107d8611373565b6001600160a01b031614806107f457506107f4816105b7611373565b6108665760405162461bcd60e51b815260206004820152603860248201527f4552433732313a20617070726f76652063616c6c6572206973206e6f74206f7760448201527f6e6572206e6f7220617070726f76656420666f7220616c6c00000000000000006064820152608401610728565b610870838361137d565b505050565b60408051606081810183526001600160a01b038816600081815260096020908152908590205484528301529181018690526108b387828787876113eb565b6109095760405162461bcd60e51b815260206004820152602160248201527f5369676e657220616e64207369676e617475726520646f206e6f74206d6174636044820152600d60fb1b6064820152608401610728565b6001600160a01b03871660009081526009602052604090205461092d9060016125c8565b6001600160a01b0388166000908152600960205260409081902091909155517f5845892132946850460bff5a0083f71031bc5bf9aadcd40f1de79423eac9b10b9061097d90899033908a906125e0565b60405180910390a1600080306001600160a01b0316888a6040516020016109a5929190612615565b60408051601f19818403018152908290526109bf9161264c565b6000604051808303816000865af19150503d80600081146109fc576040519150601f19603f3d011682016040523d82523d6000602084013e610a01565b606091505b509150915081610a535760405162461bcd60e51b815260206004820152601c60248201527f46756e6374696f6e2063616c6c206e6f74207375636365737366756c000000006044820152606401610728565b98975050505050505050565b60006001600b54600a54610a739190612668565b610a7d9190612668565b905090565b600f6000610a8e611373565b6001600160a01b0316815260208101919091526040016000205460ff16610aed5760405162461bcd60e51b8152602060048201526013602482015272556e617574686f72697a65642061636365737360681b6044820152606401610728565b610af682611356565b610b395760405162461bcd60e51b8152602060048201526014602482015273151bdad95b88191bd95cc81b9bdd08195e1a5cdd60621b6044820152606401610728565b610b4382826114db565b5050565b600c546001600160a01b0316610b5b611373565b6001600160a01b031614610b815760405162461bcd60e51b81526004016107289061267f565b6001600160a01b03919091166000908152600f60205260409020805460ff1916911515919091179055565b600c546001600160a01b0316610bc0611373565b6001600160a01b03161480610bef57506007546001600160a01b0316610be4611373565b6001600160a01b0316145b610c0b5760405162461bcd60e51b81526004016107289061267f565b600e82604051610c1b919061264c565b908152602001604051809103902054600014610c8957600e82604051610c41919061264c565b90815260405190819003602001812054906001600160a01b0383169081907ff9492de4663ad3ea04e979f77c3750740def7774be5fd55505b940633dd3d9b190600090a45050565b600a54610c968282611566565b610ca081846114db565b80600e84604051610cb1919061264c565b90815260405190819003602001902055600a8054906000610cd1836126a4565b9190505550505050565b610cec610ce6611373565b82611580565b610d085760405162461bcd60e51b8152600401610728906126bf565b61087083838361164a565b61087083838360405180602001604052806000815250611056565b610d42610d3a82610dce565b6105b7611373565b610d7d5760405162461bcd60e51b815260206004820152600c60248201526b139bdd08185c1c1c9bdd995960a21b6044820152606401610728565b6000610d8882611095565b9050610d93826117ea565b600b8054906000610da3836126a4565b91905055506000600e82604051610dba919061264c565b908152604051908190036020019020555050565b6000818152600260205260408120546001600160a01b0316806106285760405162461bcd60e51b815260206004820152602960248201527f4552433732313a206f776e657220717565727920666f72206e6f6e657869737460448201526832b73a103a37b5b2b760b91b6064820152608401610728565b60006001600160a01b038216610eb05760405162461bcd60e51b815260206004820152602a60248201527f4552433732313a2062616c616e636520717565727920666f7220746865207a65604482015269726f206164647265737360b01b6064820152608401610728565b506001600160a01b031660009081526003602052604090205490565b610ed4611373565b6001600160a01b0316610eef6007546001600160a01b031690565b6001600160a01b031614610f455760405162461bcd60e51b815260206004820181905260248201527f4f776e61626c653a2063616c6c6572206973206e6f7420746865206f776e65726044820152606401610728565b610f4f600061182a565b565b60606001805461063d90612577565b600c546001600160a01b0316610f74611373565b6001600160a01b03161480610fa357506007546001600160a01b0316610f98611373565b6001600160a01b0316145b610fbf5760405162461bcd60e51b81526004016107289061267f565b8051610b4390600d906020840190612084565b610b43610fdd611373565b838361187c565b600c546001600160a01b0316610ff8611373565b6001600160a01b0316148061102757506007546001600160a01b031661101c611373565b6001600160a01b0316145b6110435760405162461bcd60e51b81526004016107289061267f565b6010805460ff1916911515919091179055565b611067611061611373565b83611580565b6110835760405162461bcd60e51b8152600401610728906126bf565b61108f8484848461194b565b50505050565b60105460609060ff1680156110c557506007546001600160a01b03166110ba83610dce565b6001600160a01b0316145b1561115c57600d80546110d790612577565b80601f016020809104026020016040519081016040528092919081815260200182805461110390612577565b80156111505780601f1061112557610100808354040283529160200191611150565b820191906000526020600020905b81548152906001019060200180831161113357829003601f168201915b50505050509050919050565b6106288261197e565b60006001600160a01b03821673d47e14dd9b98411754f722b4c4074e14752ada7c14806111ae57506001600160a01b0382167358807bad0b376efc12f5ad86aac70e78ed67deae145b806111d157506001600160a01b0382166000908152600f602052604090205460ff165b156111de57506001610628565b6001600160a01b0380841660009081526005602090815260408083209386168352929052205460ff165b9392505050565b611217611373565b6001600160a01b03166112326007546001600160a01b031690565b6001600160a01b0316146112885760405162461bcd60e51b815260206004820181905260248201527f4f776e61626c653a2063616c6c6572206973206e6f7420746865206f776e65726044820152606401610728565b6001600160a01b0381166112ed5760405162461bcd60e51b815260206004820152602660248201527f4f776e61626c653a206e6577206f776e657220697320746865207a65726f206160448201526564647265737360d01b6064820152608401610728565b6112f68161182a565b50565b60003330141561135057600080368080601f0160208091040260200160405190810160405280939291908181526020018383808284376000920191909152505050503601516001600160a01b031691506113539050565b50335b90565b6000908152600260205260409020546001600160a01b0316151590565b6000610a7d6112f9565b600081815260046020526040902080546001600160a01b0319166001600160a01b03841690811790915581906113b282610dce565b6001600160a01b03167f8c5be1e5ebec7d5bd14f71427d1e84f3dd0314c0f7b2291e5b200ac8c7c3b92560405160405180910390a45050565b60006001600160a01b0386166114515760405162461bcd60e51b815260206004820152602560248201527f4e61746976654d6574615472616e73616374696f6e3a20494e56414c49445f5360448201526424a3a722a960d91b6064820152608401610728565b600161146461145f87611aed565b611b6a565b6040805160008152602081018083529290925260ff851690820152606081018690526080810185905260a0016020604051602081039080840390855afa1580156114b2573d6000803e3d6000fd5b505050602060405103516001600160a01b0316866001600160a01b031614905095945050505050565b6114e482611356565b6115475760405162461bcd60e51b815260206004820152602e60248201527f45524337323155524953746f726167653a2055524920736574206f66206e6f6e60448201526d32bc34b9ba32b73a103a37b5b2b760911b6064820152608401610728565b6000828152600660209081526040909120825161087092840190612084565b610b43828260405180602001604052806000815250611b9a565b600061158b82611356565b6115ec5760405162461bcd60e51b815260206004820152602c60248201527f4552433732313a206f70657261746f7220717565727920666f72206e6f6e657860448201526b34b9ba32b73a103a37b5b2b760a11b6064820152608401610728565b60006115f783610dce565b9050806001600160a01b0316846001600160a01b031614806116325750836001600160a01b0316611627846106c0565b6001600160a01b0316145b8061164257506116428185611165565b949350505050565b826001600160a01b031661165d82610dce565b6001600160a01b0316146116c55760405162461bcd60e51b815260206004820152602960248201527f4552433732313a207472616e73666572206f6620746f6b656e2074686174206960448201526839903737ba1037bbb760b91b6064820152608401610728565b6001600160a01b0382166117275760405162461bcd60e51b8152602060048201526024808201527f4552433732313a207472616e7366657220746f20746865207a65726f206164646044820152637265737360e01b6064820152608401610728565b61173260008261137d565b6001600160a01b038316600090815260036020526040812080546001929061175b908490612668565b90915550506001600160a01b03821660009081526003602052604081208054600192906117899084906125c8565b909155505060008181526002602052604080822080546001600160a01b0319166001600160a01b0386811691821790925591518493918716917fddf252ad1be2c89b69c2b068fc378daa952ba7f163c4a11628f55a4df523b3ef91a4505050565b6117f381611bcd565b6000818152600660205260409020805461180c90612577565b1590506112f65760008181526006602052604081206112f691612108565b600780546001600160a01b038381166001600160a01b0319831681179093556040519116919082907f8be0079c531659141344cd1fd0a4f28419497f9722a3daafe3b4186f6b6457e090600090a35050565b816001600160a01b0316836001600160a01b031614156118de5760405162461bcd60e51b815260206004820152601960248201527f4552433732313a20617070726f766520746f2063616c6c6572000000000000006044820152606401610728565b6001600160a01b03838116600081815260056020908152604080832094871680845294825291829020805460ff191686151590811790915591519182527f17307eab39ab6107e8899845ad3d59bd9653f200f220920489ca2b5937696c31910160405180910390a3505050565b61195684848461164a565b61196284848484611c68565b61108f5760405162461bcd60e51b815260040161072890612710565b606061198982611356565b6119ef5760405162461bcd60e51b815260206004820152603160248201527f45524337323155524953746f726167653a2055524920717565727920666f72206044820152703737b732bc34b9ba32b73a103a37b5b2b760791b6064820152608401610728565b60008281526006602052604081208054611a0890612577565b80601f0160208091040260200160405190810160405280929190818152602001828054611a3490612577565b8015611a815780601f10611a5657610100808354040283529160200191611a81565b820191906000526020600020905b815481529060010190602001808311611a6457829003601f168201915b505050505090506000611a9f60408051602081019091526000815290565b9050805160001415611ab2575092915050565b815115611ae4578082604051602001611acc929190612762565b60405160208183030381529060405292505050919050565b61164284611d7c565b60006040518060800160405280604381526020016128406043913980516020918201208351848301516040808701518051908601209051611b4d950193845260208401929092526001600160a01b03166040830152606082015260800190565b604051602081830303815290604052805190602001209050919050565b6000611b7560085490565b60405161190160f01b6020820152602281019190915260428101839052606201611b4d565b611ba48383611e53565b611bb16000848484611c68565b6108705760405162461bcd60e51b815260040161072890612710565b6000611bd882610dce565b9050611be560008361137d565b6001600160a01b0381166000908152600360205260408120805460019290611c0e908490612668565b909155505060008281526002602052604080822080546001600160a01b0319169055518391906001600160a01b038416907fddf252ad1be2c89b69c2b068fc378daa952ba7f163c4a11628f55a4df523b3ef908390a45050565b60006001600160a01b0384163b15611d7157836001600160a01b031663150b7a02611c91611373565b8786866040518563ffffffff1660e01b8152600401611cb39493929190612791565b602060405180830381600087803b158015611ccd57600080fd5b505af1925050508015611cfd575060408051601f3d908101601f19168201909252611cfa918101906127ce565b60015b611d57573d808015611d2b576040519150601f19603f3d011682016040523d82523d6000602084013e611d30565b606091505b508051611d4f5760405162461bcd60e51b815260040161072890612710565b805181602001fd5b6001600160e01b031916630a85bd0160e11b149050611642565b506001949350505050565b6060611d8782611356565b611deb5760405162461bcd60e51b815260206004820152602f60248201527f4552433732314d657461646174613a2055524920717565727920666f72206e6f60448201526e3732bc34b9ba32b73a103a37b5b2b760891b6064820152608401610728565b6000611e0260408051602081019091526000815290565b90506000815111611e225760405180602001604052806000815250611208565b80611e2c84611f86565b604051602001611e3d929190612762565b6040516020818303038152906040529392505050565b6001600160a01b038216611ea95760405162461bcd60e51b815260206004820181905260248201527f4552433732313a206d696e7420746f20746865207a65726f20616464726573736044820152606401610728565b611eb281611356565b15611eff5760405162461bcd60e51b815260206004820152601c60248201527f4552433732313a20746f6b656e20616c7265616479206d696e746564000000006044820152606401610728565b6001600160a01b0382166000908152600360205260408120805460019290611f289084906125c8565b909155505060008181526002602052604080822080546001600160a01b0319166001600160a01b03861690811790915590518392907fddf252ad1be2c89b69c2b068fc378daa952ba7f163c4a11628f55a4df523b3ef908290a45050565b606081611faa5750506040805180820190915260018152600360fc1b602082015290565b8160005b8115611fd45780611fbe816126a4565b9150611fcd9050600a83612801565b9150611fae565b60008167ffffffffffffffff811115611fef57611fef612250565b6040519080825280601f01601f191660200182016040528015612019576020820181803683370190505b5090505b84156116425761202e600183612668565b915061203b600a86612815565b6120469060306125c8565b60f81b81838151811061205b5761205b612829565b60200101906001600160f81b031916908160001a90535061207d600a86612801565b945061201d565b82805461209090612577565b90600052602060002090601f0160209004810192826120b257600085556120f8565b82601f106120cb57805160ff19168380011785556120f8565b828001600101855582156120f8579182015b828111156120f85782518255916020019190600101906120dd565b5061210492915061213e565b5090565b50805461211490612577565b6000825580601f10612124575050565b601f0160209004906000526020600020908101906112f691905b5b80821115612104576000815560010161213f565b6001600160e01b0319811681146112f657600080fd5b60006020828403121561217b57600080fd5b813561120881612153565b60005b838110156121a1578181015183820152602001612189565b8381111561108f5750506000910152565b600081518084526121ca816020860160208601612186565b601f01601f19169290920160200192915050565b60208152600061120860208301846121b2565b60006020828403121561220357600080fd5b5035919050565b80356001600160a01b038116811461222157600080fd5b919050565b6000806040838503121561223957600080fd5b6122428361220a565b946020939093013593505050565b634e487b7160e01b600052604160045260246000fd5b600082601f83011261227757600080fd5b813567ffffffffffffffff8082111561229257612292612250565b604051601f8301601f19908116603f011681019082821181831017156122ba576122ba612250565b816040528381528660208588010111156122d357600080fd5b836020870160208301376000602085830101528094505050505092915050565b600080600080600060a0868803121561230b57600080fd5b6123148661220a565b9450602086013567ffffffffffffffff81111561233057600080fd5b61233c88828901612266565b9450506040860135925060608601359150608086013560ff8116811461236157600080fd5b809150509295509295909350565b6000806040838503121561238257600080fd5b82359150602083013567ffffffffffffffff8111156123a057600080fd5b6123ac85828601612266565b9150509250929050565b8035801515811461222157600080fd5b600080604083850312156123d957600080fd5b6123e28361220a565b91506123f0602084016123b6565b90509250929050565b6000806040838503121561240c57600080fd5b823567ffffffffffffffff81111561242357600080fd5b61242f85828601612266565b9250506123f06020840161220a565b60006020828403121561245057600080fd5b6112088261220a565b60008060006060848603121561246e57600080fd5b6124778461220a565b92506124856020850161220a565b9150604084013590509250925092565b6000602082840312156124a757600080fd5b813567ffffffffffffffff8111156124be57600080fd5b61164284828501612266565b6000602082840312156124dc57600080fd5b611208826123b6565b600080600080608085870312156124fb57600080fd5b6125048561220a565b93506125126020860161220a565b925060408501359150606085013567ffffffffffffffff81111561253557600080fd5b61254187828801612266565b91505092959194509250565b6000806040838503121561256057600080fd5b6125698361220a565b91506123f06020840161220a565b600181811c9082168061258b57607f821691505b602082108114156125ac57634e487b7160e01b600052602260045260246000fd5b50919050565b634e487b7160e01b600052601160045260246000fd5b600082198211156125db576125db6125b2565b500190565b6001600160a01b0384811682528316602082015260606040820181905260009061260c908301846121b2565b95945050505050565b60008351612627818460208801612186565b60609390931b6bffffffffffffffffffffffff19169190920190815260140192915050565b6000825161265e818460208701612186565b9190910192915050565b60008282101561267a5761267a6125b2565b500390565b6020808252600b908201526a139bdd08185b1b1bddd95960aa1b604082015260600190565b60006000198214156126b8576126b86125b2565b5060010190565b60208082526031908201527f4552433732313a207472616e736665722063616c6c6572206973206e6f74206f6040820152701ddb995c881b9bdc88185c1c1c9bdd9959607a1b606082015260800190565b60208082526032908201527f4552433732313a207472616e7366657220746f206e6f6e20455243373231526560408201527131b2b4bb32b91034b6b83632b6b2b73a32b960711b606082015260800190565b60008351612774818460208801612186565b835190830190612788818360208801612186565b01949350505050565b6001600160a01b03858116825284166020820152604081018390526080606082018190526000906127c4908301846121b2565b9695505050505050565b6000602082840312156127e057600080fd5b815161120881612153565b634e487b7160e01b600052601260045260246000fd5b600082612810576128106127eb565b500490565b600082612824576128246127eb565b500690565b634e487b7160e01b600052603260045260246000fdfe4d6574615472616e73616374696f6e2875696e74323536206e6f6e63652c616464726573732066726f6d2c62797465732066756e6374696f6e5369676e617475726529a2646970667358221220507c36b40adbfc156013e795b94f314b5e92cf8ed4130360b26e009856e1f85064736f6c63430008090033454950373132446f6d61696e28737472696e67206e616d652c737472696e672076657273696f6e2c6164647265737320766572696679696e67436f6e74726163742c627974657333322073616c7429a26469706673582212208903a67d633f4040d9b90f640ce5dddadd4eb03a6bfbc1ddecf525cee3f480b164736f6c63430008090033",
  "linkReferences": {},
  "deployedLinkReferences": {}
}