{
  "_format": "hh-sol-artifact-1",
  "contractName": "CloneCollection",
  "sourceName": "contracts/CloneCollection.sol",
  "abi": [
    {
      "anonymous": false,
      "inputs": [
        {
          "indexed": true,
          "internalType": "address",
          "name": "addr",
          "type": "address"
        }
      ],
      "name": "ContractDeployed",
      "type": "event"
    },
    {
      "inputs": [
        {
          "internalType": "address",
          "name": "contractAddress",
          "type": "address"
        }
      ],
      "name": "copyContract",
      "outputs": [],
      "stateMutability": "nonpayable",
      "type": "function"
    },
    {
      "inputs": [
        {
          "internalType": "address",
          "name": "originalContract",
          "type": "address"
        },
        {
          "internalType": "address",
          "name": "newContract",
          "type": "address"
        },
        {
          "internalType": "uint256",
          "name": "tokenFrom",
          "type": "uint256"
        },
        {
          "internalType": "uint256",
          "name": "tokenTo",
          "type": "uint256"
        }
      ],
      "name": "copyMints",
      "outputs": [],
      "stateMutability": "nonpayable",
      "type": "function"
    }
  ],
  "bytecode": "0x608060405234801561001057600080fd5b50612598806100206000396000f3fe60806040523480156200001157600080fd5b50600436106200003a5760003560e01c806349bd003b146200003f57806381dce39a1462000058575b600080fd5b620000566200005036600462000425565b6200006f565b005b620000566200006936600462000470565b62000208565b8383835b838111620001ff5760405163c87b56dd60e01b8152600481018290526000906001600160a01b0385169063c87b56dd9060240160006040518083038186803b158015620000bf57600080fd5b505afa158015620000d4573d6000803e3d6000fd5b505050506040513d6000823e601f3d908101601f19168201604052620000fe9190810190620004e0565b6040516331a9108f60e11b8152600481018490529091506000906001600160a01b03861690636352211e9060240160206040518083038186803b1580156200014557600080fd5b505afa1580156200015a573d6000803e3d6000fd5b505050506040513d601f19601f8201168201806040525081019062000180919062000599565b604051631c351a9d60e01b81529091506001600160a01b03851690631c351a9d90620001b39085908590600401620005e7565b600060405180830381600087803b158015620001ce57600080fd5b505af1158015620001e3573d6000803e3d6000fd5b5050505050508080620001f69062000613565b91505062000073565b50505050505050565b60008190506000816001600160a01b0316638da5cb5b6040518163ffffffff1660e01b815260040160206040518083038186803b1580156200024957600080fd5b505afa1580156200025e573d6000803e3d6000fd5b505050506040513d601f19601f8201168201806040525081019062000284919062000599565b90506000826001600160a01b03166306fdde036040518163ffffffff1660e01b815260040160006040518083038186803b158015620002c257600080fd5b505afa158015620002d7573d6000803e3d6000fd5b505050506040513d6000823e601f3d908101601f19168201604052620003019190810190620004e0565b90506000836001600160a01b03166395d89b416040518163ffffffff1660e01b815260040160006040518083038186803b1580156200033f57600080fd5b505afa15801562000354573d6000803e3d6000fd5b505050506040513d6000823e601f3d908101601f191682016040526200037e9190810190620004e0565b905060008282856040516200039390620003fe565b620003a1939291906200063d565b604051809103906000f080158015620003be573d6000803e3d6000fd5b506040519091506001600160a01b038216907f8ffcdc15a283d706d38281f500270d8b5a656918f555de0913d7455e3e6bc1bf90600090a2505050505050565b611ee3806200068083390190565b6001600160a01b03811681146200042257600080fd5b50565b600080600080608085870312156200043c57600080fd5b843562000449816200040c565b935060208501356200045b816200040c565b93969395505050506040820135916060013590565b6000602082840312156200048357600080fd5b813562000490816200040c565b9392505050565b634e487b7160e01b600052604160045260246000fd5b60005b83811015620004ca578181015183820152602001620004b0565b83811115620004da576000848401525b50505050565b600060208284031215620004f357600080fd5b815167ffffffffffffffff808211156200050c57600080fd5b818401915084601f8301126200052157600080fd5b81518181111562000536576200053662000497565b604051601f8201601f19908116603f0116810190838211818310171562000561576200056162000497565b816040528281528760208487010111156200057b57600080fd5b6200058e836020830160208801620004ad565b979650505050505050565b600060208284031215620005ac57600080fd5b815162000490816200040c565b60008151808452620005d3816020860160208601620004ad565b601f01601f19169290920160200192915050565b604081526000620005fc6040830185620005b9565b905060018060a01b03831660208301529392505050565b60006000198214156200063657634e487b7160e01b600052601160045260246000fd5b5060010190565b606081526000620006526060830186620005b9565b8281036020840152620006668186620005b9565b91505060018060a01b038316604083015294935050505056fe6080604052600b805460ff191690553480156200001b57600080fd5b5060405162001ee338038062001ee38339810160408190526200003e9162000269565b808383816000908051906020019062000059929190620000f6565b5080516200006f906001906020840190620000f6565b5050506200008381620000a460201b60201c565b505060016008555050600980546001600160a01b0319163317905562000333565b600780546001600160a01b038381166001600160a01b0319831681179093556040519116919082907f8be0079c531659141344cd1fd0a4f28419497f9722a3daafe3b4186f6b6457e090600090a35050565b8280546200010490620002f6565b90600052602060002090601f01602090048101928262000128576000855562000173565b82601f106200014357805160ff191683800117855562000173565b8280016001018555821562000173579182015b828111156200017357825182559160200191906001019062000156565b506200018192915062000185565b5090565b5b8082111562000181576000815560010162000186565b634e487b7160e01b600052604160045260246000fd5b600082601f830112620001c457600080fd5b81516001600160401b0380821115620001e157620001e16200019c565b604051601f8301601f19908116603f011681019082821181831017156200020c576200020c6200019c565b816040528381526020925086838588010111156200022957600080fd5b600091505b838210156200024d57858201830151818301840152908201906200022e565b838211156200025f5760008385830101525b9695505050505050565b6000806000606084860312156200027f57600080fd5b83516001600160401b03808211156200029757600080fd5b620002a587838801620001b2565b94506020860151915080821115620002bc57600080fd5b50620002cb86828701620001b2565b604086015190935090506001600160a01b0381168114620002eb57600080fd5b809150509250925092565b600181811c908216806200030b57607f821691505b602082108114156200032d57634e487b7160e01b600052602260045260246000fd5b50919050565b611ba080620003436000396000f3fe608060405234801561001057600080fd5b506004361061012c5760003560e01c8063715018a6116100ad578063b223920b11610071578063b223920b14610260578063b88d4fde14610273578063c87b56dd14610286578063e985e9c514610299578063f2fde38b146102ac57600080fd5b8063715018a614610223578063771282f61461022b5780638da5cb5b1461023457806395d89b4114610245578063a22cb4651461024d57600080fd5b80631c351a9d116100f45780631c351a9d146101c457806323b872dd146101d757806342842e0e146101ea5780636352211e146101fd57806370a082311461021057600080fd5b806301ffc9a71461013157806306fdde0314610159578063081812fc1461016e578063095ea7b31461019957806318160ddd146101ae575b600080fd5b61014461013f36600461160c565b6102bf565b60405190151581526020015b60405180910390f35b610161610311565b6040516101509190611681565b61018161017c366004611694565b6103a3565b6040516001600160a01b039091168152602001610150565b6101ac6101a73660046116c9565b610430565b005b6101b6610546565b604051908152602001610150565b6101ac6101d236600461177f565b61055c565b6101ac6101e53660046117e1565b61068a565b6101ac6101f83660046117e1565b6106bb565b61018161020b366004611694565b6106d6565b6101b661021e36600461181d565b61074d565b6101ac6107d4565b6101b660085481565b6007546001600160a01b0316610181565b61016161083a565b6101ac61025b366004611848565b610849565b6101ac61026e366004611872565b610854565b6101ac61028136600461188d565b6108c4565b610161610294366004611694565b6108fc565b6101446102a7366004611909565b61094e565b6101ac6102ba36600461181d565b6109ed565b60006001600160e01b031982166380ac58cd60e01b14806102f057506001600160e01b03198216635b5e139f60e01b145b8061030b57506301ffc9a760e01b6001600160e01b03198316145b92915050565b60606000805461032090611933565b80601f016020809104026020016040519081016040528092919081815260200182805461034c90611933565b80156103995780601f1061036e57610100808354040283529160200191610399565b820191906000526020600020905b81548152906001019060200180831161037c57829003601f168201915b5050505050905090565b60006103ae82610ab8565b6104145760405162461bcd60e51b815260206004820152602c60248201527f4552433732313a20617070726f76656420717565727920666f72206e6f6e657860448201526b34b9ba32b73a103a37b5b2b760a11b60648201526084015b60405180910390fd5b506000908152600460205260409020546001600160a01b031690565b600061043b826106d6565b9050806001600160a01b0316836001600160a01b031614156104a95760405162461bcd60e51b815260206004820152602160248201527f4552433732313a20617070726f76616c20746f2063757272656e74206f776e656044820152603960f91b606482015260840161040b565b336001600160a01b03821614806104c557506104c5813361094e565b6105375760405162461bcd60e51b815260206004820152603860248201527f4552433732313a20617070726f76652063616c6c6572206973206e6f74206f7760448201527f6e6572206e6f7220617070726f76656420666f7220616c6c0000000000000000606482015260840161040b565b6105418383610ad5565b505050565b600060016008546105579190611984565b905090565b6009546001600160a01b031633148061057f57506007546001600160a01b031633145b6105b95760405162461bcd60e51b815260206004820152600b60248201526a139bdd08185b1b1bddd95960aa1b604482015260640161040b565b600a826040516105c9919061199b565b90815260200160405180910390205460001461063757600a826040516105ef919061199b565b90815260405190819003602001812054906001600160a01b0383169081907ff9492de4663ad3ea04e979f77c3750740def7774be5fd55505b940633dd3d9b190600090a45050565b6008546106448282610b43565b61064e8184610b5d565b80600a8460405161065f919061199b565b908152604051908190036020019020556008805490600061067f836119b7565b9190505550505b5050565b6106943382610be8565b6106b05760405162461bcd60e51b815260040161040b906119d2565b610541838383610cb2565b610541838383604051806020016040528060008152506108c4565b6000818152600260205260408120546001600160a01b03168061030b5760405162461bcd60e51b815260206004820152602960248201527f4552433732313a206f776e657220717565727920666f72206e6f6e657869737460448201526832b73a103a37b5b2b760b91b606482015260840161040b565b60006001600160a01b0382166107b85760405162461bcd60e51b815260206004820152602a60248201527f4552433732313a2062616c616e636520717565727920666f7220746865207a65604482015269726f206164647265737360b01b606482015260840161040b565b506001600160a01b031660009081526003602052604090205490565b6007546001600160a01b0316331461082e5760405162461bcd60e51b815260206004820181905260248201527f4f776e61626c653a2063616c6c6572206973206e6f7420746865206f776e6572604482015260640161040b565b6108386000610e52565b565b60606001805461032090611933565b610686338383610ea4565b6009546001600160a01b031633148061087757506007546001600160a01b031633145b6108b15760405162461bcd60e51b815260206004820152600b60248201526a139bdd08185b1b1bddd95960aa1b604482015260640161040b565b600b805460ff1916911515919091179055565b6108ce3383610be8565b6108ea5760405162461bcd60e51b815260040161040b906119d2565b6108f684848484610f73565b50505050565b600b5460609060ff16801561092c57506007546001600160a01b0316610921836106d6565b6001600160a01b0316145b1561094557505060408051602081019091526000815290565b61030b82610fa6565b60006001600160a01b03821673d47e14dd9b98411754f722b4c4074e14752ada7c148061099757506001600160a01b0382167358807bad0b376efc12f5ad86aac70e78ed67deae145b806109af57506009546001600160a01b038381169116145b156109bc5750600161030b565b6001600160a01b0380841660009081526005602090815260408083209386168352929052205460ff165b9392505050565b6007546001600160a01b03163314610a475760405162461bcd60e51b815260206004820181905260248201527f4f776e61626c653a2063616c6c6572206973206e6f7420746865206f776e6572604482015260640161040b565b6001600160a01b038116610aac5760405162461bcd60e51b815260206004820152602660248201527f4f776e61626c653a206e6577206f776e657220697320746865207a65726f206160448201526564647265737360d01b606482015260840161040b565b610ab581610e52565b50565b6000908152600260205260409020546001600160a01b0316151590565b600081815260046020526040902080546001600160a01b0319166001600160a01b0384169081179091558190610b0a826106d6565b6001600160a01b03167f8c5be1e5ebec7d5bd14f71427d1e84f3dd0314c0f7b2291e5b200ac8c7c3b92560405160405180910390a45050565b610686828260405180602001604052806000815250611115565b610b6682610ab8565b610bc95760405162461bcd60e51b815260206004820152602e60248201527f45524337323155524953746f726167653a2055524920736574206f66206e6f6e60448201526d32bc34b9ba32b73a103a37b5b2b760911b606482015260840161040b565b600082815260066020908152604090912082516105419284019061155d565b6000610bf382610ab8565b610c545760405162461bcd60e51b815260206004820152602c60248201527f4552433732313a206f70657261746f7220717565727920666f72206e6f6e657860448201526b34b9ba32b73a103a37b5b2b760a11b606482015260840161040b565b6000610c5f836106d6565b9050806001600160a01b0316846001600160a01b03161480610c9a5750836001600160a01b0316610c8f846103a3565b6001600160a01b0316145b80610caa5750610caa818561094e565b949350505050565b826001600160a01b0316610cc5826106d6565b6001600160a01b031614610d2d5760405162461bcd60e51b815260206004820152602960248201527f4552433732313a207472616e73666572206f6620746f6b656e2074686174206960448201526839903737ba1037bbb760b91b606482015260840161040b565b6001600160a01b038216610d8f5760405162461bcd60e51b8152602060048201526024808201527f4552433732313a207472616e7366657220746f20746865207a65726f206164646044820152637265737360e01b606482015260840161040b565b610d9a600082610ad5565b6001600160a01b0383166000908152600360205260408120805460019290610dc3908490611984565b90915550506001600160a01b0382166000908152600360205260408120805460019290610df1908490611a23565b909155505060008181526002602052604080822080546001600160a01b0319166001600160a01b0386811691821790925591518493918716917fddf252ad1be2c89b69c2b068fc378daa952ba7f163c4a11628f55a4df523b3ef91a4505050565b600780546001600160a01b038381166001600160a01b0319831681179093556040519116919082907f8be0079c531659141344cd1fd0a4f28419497f9722a3daafe3b4186f6b6457e090600090a35050565b816001600160a01b0316836001600160a01b03161415610f065760405162461bcd60e51b815260206004820152601960248201527f4552433732313a20617070726f766520746f2063616c6c657200000000000000604482015260640161040b565b6001600160a01b03838116600081815260056020908152604080832094871680845294825291829020805460ff191686151590811790915591519182527f17307eab39ab6107e8899845ad3d59bd9653f200f220920489ca2b5937696c31910160405180910390a3505050565b610f7e848484610cb2565b610f8a84848484611148565b6108f65760405162461bcd60e51b815260040161040b90611a3b565b6060610fb182610ab8565b6110175760405162461bcd60e51b815260206004820152603160248201527f45524337323155524953746f726167653a2055524920717565727920666f72206044820152703737b732bc34b9ba32b73a103a37b5b2b760791b606482015260840161040b565b6000828152600660205260408120805461103090611933565b80601f016020809104026020016040519081016040528092919081815260200182805461105c90611933565b80156110a95780601f1061107e576101008083540402835291602001916110a9565b820191906000526020600020905b81548152906001019060200180831161108c57829003601f168201915b5050505050905060006110c760408051602081019091526000815290565b90508051600014156110da575092915050565b81511561110c5780826040516020016110f4929190611a8d565b60405160208183030381529060405292505050919050565b610caa84611255565b61111f838361132c565b61112c6000848484611148565b6105415760405162461bcd60e51b815260040161040b90611a3b565b60006001600160a01b0384163b1561124a57604051630a85bd0160e11b81526001600160a01b0385169063150b7a029061118c903390899088908890600401611abc565b602060405180830381600087803b1580156111a657600080fd5b505af19250505080156111d6575060408051601f3d908101601f191682019092526111d391810190611af9565b60015b611230573d808015611204576040519150601f19603f3d011682016040523d82523d6000602084013e611209565b606091505b5080516112285760405162461bcd60e51b815260040161040b90611a3b565b805181602001fd5b6001600160e01b031916630a85bd0160e11b149050610caa565b506001949350505050565b606061126082610ab8565b6112c45760405162461bcd60e51b815260206004820152602f60248201527f4552433732314d657461646174613a2055524920717565727920666f72206e6f60448201526e3732bc34b9ba32b73a103a37b5b2b760891b606482015260840161040b565b60006112db60408051602081019091526000815290565b905060008151116112fb57604051806020016040528060008152506109e6565b806113058461145f565b604051602001611316929190611a8d565b6040516020818303038152906040529392505050565b6001600160a01b0382166113825760405162461bcd60e51b815260206004820181905260248201527f4552433732313a206d696e7420746f20746865207a65726f2061646472657373604482015260640161040b565b61138b81610ab8565b156113d85760405162461bcd60e51b815260206004820152601c60248201527f4552433732313a20746f6b656e20616c7265616479206d696e74656400000000604482015260640161040b565b6001600160a01b0382166000908152600360205260408120805460019290611401908490611a23565b909155505060008181526002602052604080822080546001600160a01b0319166001600160a01b03861690811790915590518392907fddf252ad1be2c89b69c2b068fc378daa952ba7f163c4a11628f55a4df523b3ef908290a45050565b6060816114835750506040805180820190915260018152600360fc1b602082015290565b8160005b81156114ad5780611497816119b7565b91506114a69050600a83611b2c565b9150611487565b60008167ffffffffffffffff8111156114c8576114c86116f3565b6040519080825280601f01601f1916602001820160405280156114f2576020820181803683370190505b5090505b8415610caa57611507600183611984565b9150611514600a86611b40565b61151f906030611a23565b60f81b81838151811061153457611534611b54565b60200101906001600160f81b031916908160001a905350611556600a86611b2c565b94506114f6565b82805461156990611933565b90600052602060002090601f01602090048101928261158b57600085556115d1565b82601f106115a457805160ff19168380011785556115d1565b828001600101855582156115d1579182015b828111156115d15782518255916020019190600101906115b6565b506115dd9291506115e1565b5090565b5b808211156115dd57600081556001016115e2565b6001600160e01b031981168114610ab557600080fd5b60006020828403121561161e57600080fd5b81356109e6816115f6565b60005b8381101561164457818101518382015260200161162c565b838111156108f65750506000910152565b6000815180845261166d816020860160208601611629565b601f01601f19169290920160200192915050565b6020815260006109e66020830184611655565b6000602082840312156116a657600080fd5b5035919050565b80356001600160a01b03811681146116c457600080fd5b919050565b600080604083850312156116dc57600080fd5b6116e5836116ad565b946020939093013593505050565b634e487b7160e01b600052604160045260246000fd5b600067ffffffffffffffff80841115611724576117246116f3565b604051601f8501601f19908116603f0116810190828211818310171561174c5761174c6116f3565b8160405280935085815286868601111561176557600080fd5b858560208301376000602087830101525050509392505050565b6000806040838503121561179257600080fd5b823567ffffffffffffffff8111156117a957600080fd5b8301601f810185136117ba57600080fd5b6117c985823560208401611709565b9250506117d8602084016116ad565b90509250929050565b6000806000606084860312156117f657600080fd5b6117ff846116ad565b925061180d602085016116ad565b9150604084013590509250925092565b60006020828403121561182f57600080fd5b6109e6826116ad565b803580151581146116c457600080fd5b6000806040838503121561185b57600080fd5b611864836116ad565b91506117d860208401611838565b60006020828403121561188457600080fd5b6109e682611838565b600080600080608085870312156118a357600080fd5b6118ac856116ad565b93506118ba602086016116ad565b925060408501359150606085013567ffffffffffffffff8111156118dd57600080fd5b8501601f810187136118ee57600080fd5b6118fd87823560208401611709565b91505092959194509250565b6000806040838503121561191c57600080fd5b611925836116ad565b91506117d8602084016116ad565b600181811c9082168061194757607f821691505b6020821081141561196857634e487b7160e01b600052602260045260246000fd5b50919050565b634e487b7160e01b600052601160045260246000fd5b6000828210156119965761199661196e565b500390565b600082516119ad818460208701611629565b9190910192915050565b60006000198214156119cb576119cb61196e565b5060010190565b60208082526031908201527f4552433732313a207472616e736665722063616c6c6572206973206e6f74206f6040820152701ddb995c881b9bdc88185c1c1c9bdd9959607a1b606082015260800190565b60008219821115611a3657611a3661196e565b500190565b60208082526032908201527f4552433732313a207472616e7366657220746f206e6f6e20455243373231526560408201527131b2b4bb32b91034b6b83632b6b2b73a32b960711b606082015260800190565b60008351611a9f818460208801611629565b835190830190611ab3818360208801611629565b01949350505050565b6001600160a01b0385811682528416602082015260408101839052608060608201819052600090611aef90830184611655565b9695505050505050565b600060208284031215611b0b57600080fd5b81516109e6816115f6565b634e487b7160e01b600052601260045260246000fd5b600082611b3b57611b3b611b16565b500490565b600082611b4f57611b4f611b16565b500690565b634e487b7160e01b600052603260045260246000fdfea2646970667358221220f2846a9da6e51b87d57aa762c52b6fd7b7e82782c941f49e1dab1956785423f464736f6c63430008090033a2646970667358221220137e82389498a763eb8cf8d677dbb076c1a2caba234bf94b785e6cfdbdae253164736f6c63430008090033",
  "linkReferences": {},
  "deployedLinkReferences": {}
}